:020000040800F2
:1000000000060020A10100082F2B00083F25000852
:100010002D2B00080503000825350008000000000E
:10002000000000000000000000000000C12D0008DA
:100030000703000800000000312B0008C32D000852
:10004000BB010008BB010008BB010008BB010008A0
:10005000BB010008BB010008BB010008BB01000890
:10006000BB010008BB010008BB010008BB01000880
:10007000BB010008BB010008BB010008BB01000870
:10008000BB010008BB010008BB010008BB01000860
:10009000BB010008BB010008BB010008BB01000850
:1000A000BB010008BB010008BB010008BB01000840
:1000B000BB0100080000000000000000BB010008B8
:1000C000BB010008BB010008BB010008BB01000820
:1000D000BB010008013500080D350008193500087E
:1000E000BB010008BB010008000000000000000088
:1000F0000000000000000000000000000000000000
:1001000000000000BB01000800000000BB01000867
:100110000000000000000000BB010008BB01000857
:10012000BB010008BB010008BB010008BB010008BF
:10013000BB010008000000000000000000000000FB
:10014000BB010008BB010008BB0100080000000063
:10015000BB010008BB010008BB010008BB0100088F
:10016000BB010008BB010008BB0100080000000043
:10017000BB010008BB0100080000000000000000F7
:10018000BB010008BB010008BB010008DFF80CD070
:1001900000F090F800480047E5380008000600200D
:1001A0000648804706480047FEE7FEE7FEE7FEE711
:1001B000FEE7FEE7FEE7FEE7FEE7FEE7352E000876
:1001C0008D0100082DE9F05F0546002092469B4610
:1001D00088460646814640241BE02846414647465D
:1001E000224600F057F853465A46C01A914110D3A0
:1001F00011461846224600F03EF82D1A67EB01081A
:100200004F4622460120002100F035F817EB000987
:100210004E41201EA4F10104DFDC484631462A4647
:100220004346BDE8F09FD2B201E000F8012B491E21
:10023000FBD270470022F6E710B513460A46044683
:100240001946FFF7F0FF204610BD30B50B460146BA
:1002500000202022012409E021FA02F59D4205D365
:1002600003FA02F5491B04FA02F52844151EA2F10F
:100270000102F1DC30BD202A04DB203A00FA02F151
:10028000002070479140C2F1200320FA03F3194384
:1002900090407047202A04DB203A21FA02F0002126
:1002A000704721FA02F3D040C2F120029140084386
:1002B00019467047064C074D06E0E06840F0010320
:1002C00094E8070098471034AC42F6D3FFF762FF7A
:1002D000743900089439000810B5012000F026F8A0
:1002E000102000F023F8BDE81040472000F01EB8B1
:1002F00008B500200090684600F008F8BDF800003E
:1003000040BA08BDFEE7704772B6FEE738B504464E
:10031000FFF7E2FF4FF4807000900223224646214F
:10032000014800F0A9FB38BD1400002001B582B0DF
:100330004FF480700090012302AA4621014800F08A
:100340002DFC0EBD1400002010B590F825100022E1
:10035000022905D00421C16380F82420012010BDAA
:1003600001680B6823F00E030B6001680B6823F033
:1003700001030B6090F84410046C01F01C03012190
:1003800001FA03F3636080F8251080F824201046FA
:1003900010BD10B590F825100024022903D00421C7
:1003A000C16301241AE001680A6822F00E020A60A3
:1003B00001680A6822F001020A6090F84410036C98
:1003C00001F01C02012101FA02F25A6080F82510A6
:1003D000002180F82410816B01B18847204610BDB0
:1003E00070B5044600F098F90546601C02D0044838
:1003F0000078044400F090F9401BA042FAD370BD8D
:10040000000000202DE9F84F00274FF0904ADFF858
:100410004482DFF844B20D460446504510D04445AE
:100420000ED05C450CD08D48844209D08C48844263
:1004300006D08C48844203D0AA218BA003F045FA51
:1004400028680104090C01D0000C03D0AB2186A060
:1004500003F03BFA68684FF00309002821D0012817
:10046000FCD01128FAD00228F8D01228F6D0B0F526
:10047000881FF3D0B0F5041FF0D0B0F5441FEDD0C5
:10048000B0F5901FEAD0B0F5081FE7D0B0F5481FCF
:10049000E4D00328E2D00B28E0D0AC2172A003F016
:1004A00014FACFE00121B9400840009106007DD048
:1004B000287900F00300012801D002281DD1E86846
:1004C00048B1012807D0022805D0032803D0BB215A
:1004D00065A003F0FAF9A0687A0009FA02F18843EE
:1004E000E96891400143A1606068009988432979D7
:1004F000C1F30011B940014361602879C04380070E
:1005000012D0A86838B1012805D0022803D0DC2118
:1005100055A003F0DAF9E0687A0009FA02F188439D
:10052000A96891400143E160287900F003000228A6
:1005300026D1544510D044450ED05C450CD04748D8
:10054000844209D04648844206D04648844203D0BB
:10055000E82145A003F0B9F928690F2803D9E9215A
:1005600041A003F0B2F9F80804EB8003186A790798
:10057000CA0E0F21914088432969914001431962B5
:1005800021687A0009FA02F08143287900F003001B
:10059000904008432060686810F4403F51D04148C3
:1005A000016E41F001010166006E00E049E000F0DB
:1005B000010000903C4827F003010A189168B80731
:1005C000030F0F2098408143544501D1002012E0D1
:1005D000444501D101200EE05C4501D102200AE032
:1005E0001E48844201D1032005E01D48844201D108
:1005F000042000E007209840084390602B490868D9
:100600006A68B043D20200D5304308602749091D0B
:1006100008686A68B043920200D5304308602349F5
:10062000091F08686A68B043920300D53043086028
:100630001E49083908686A68B043D20300D53043C0
:1006400008607F1C2E683046FE407FF42BAFBDE86B
:10065000F88F00000004004800080048000C004823
:1006600000100048001C00482E2E2F447269766549
:1006700072732F53544D33324C3478785F48414C69
:100680005F4472697665722F5372632F73746D3392
:10069000326C3478785F68616C5F6770696F2E6365
:1006A000000000000010024000000140080401406A
:1006B00070B515460C00064604D14FF4D77107A05B
:1006C00003F003F945B1012D04D040F2AF1103A0AE
:1006D00003F0FBF8B46170BDB46270BD2E2E2F44E0
:1006E0007269766572732F53544D33324C34787877
:1006F0005F48414C5F4472697665722F5372632F75
:1007000073746D33326C3478785F68616C5F6770D6
:10071000696F2E6300000000014880687047000088
:100720000000002070B50D46044600681F4988424D
:1007300009D01F49884206D01E49884203D0632150
:100740001DA003F0C2F835B1B5F5805F03D0642178
:1007500019A003F0BAF894F84100202823D194F8A6
:10076000400001281FD0012084F84000242084F894
:1007700041002068016821F00101016020680168E2
:1007800021F48051016020680168294301602068DC
:10079000016841F001010160202084F8410000203F
:1007A00084F8400070BD022070BD0000005400407D
:1007B00000580040005C00402E2E2F447269766580
:1007C00072732F53544D33324C3478785F48414C18
:1007D0005F4472697665722F5372632F73746D3341
:1007E000326C3478785F68616C5F6932635F65781A
:1007F0002E63000070B50D46044600681D4988420E
:1008000009D01D49884206D01C49884203D0912155
:100810001BA003F05AF80F2D03D9922118A003F062
:1008200054F894F84100202821D194F84000012880
:100830001DD0012084F84000242084F84100206865
:10084000016821F0010101602068016821F47061F4
:1008500041EA052101602068016841F00101016061
:10086000202084F84100002084F8400070BD022060
:1008700070BD00000054004000580040005C004083
:100880002E2E2F447269766572732F53544D333276
:100890004C3478785F48414C5F4472697665722FBA
:1008A0005372632F73746D33326C3478785F686180
:1008B0006C5F6932635F65782E63000070B5040079
:1008C00061D05B49206888420AD05A49884207D0E3
:1008D0005949884204D04FF4087158A002F0F5FF3E
:1008E000A068B0F5806F04D340F2212153A002F03C
:1008F000ECFFE068012806D0022804D040F2222153
:100900004EA002F0E2FF206938B1B0F5004F04D0EC
:1009100040F2232149A002F0D8FF6069FF2804D9E2
:100920004FF4097145A002F0D0FFA06990B10128F1
:1009300010D002280ED003280CD004280AD0052895
:1009400008D0062806D0072804D040F225213BA075
:1009500002F0BBFFE06938B1B0F5002F04D040F2DF
:10096000262136A002F0B1FF206A38B1B0F5003F71
:1009700004D040F2272131A002F0A7FF94F84100F3
:10098000002510B106E0012070BD84F840502046DB
:1009900000F0AAF9242084F841002068016821F0C1
:1009A000010101606068216820F0706008612068C2
:1009B000816821F400418160E0680128A06830D09E
:1009C00040F4044021688860E0680228206841689B
:1009D0002AD021F40061416020684168254A114312
:1009E00041602068C16821F40041C160D4E904017C
:1009F0000843A16940EA01202168C860D4E90701E1
:100A00000843216808602068016841F00101016025
:100A10006564202084F84100256384F8425000205A
:100A200070BD40F40040CDE741F40061D3E7000021
:100A30000054004000580040005C00402E2E2F441F
:100A40007269766572732F53544D33324C34787813
:100A50005F48414C5F4472697665722F5372632F11
:100A600073746D33326C3478785F68616C5F6932AF
:100A7000632E6300008000022DE9F84F044690F8D1
:100A80004100DDF828A0984691468B4620287ED16B
:100A900094F8400001287AD0012784F84070FFF7CD
:100AA0003BFE0646012200901923D103204601F0A7
:100AB0004DFEE0BB222084F84100102084F8420063
:100AC00000256564C4F82490A4F82A806563618DCC
:100AD00030484FF080784FF00079FF2903D92785FF
:100AE0003A46009039E0618D218500903AE0594600
:100AF000204601F0BBFD13E001F066FEB8B92068A6
:100B0000406A616A0870606A401C6062208D401E05
:100B100080B22085618D491E6185618D01B168B10A
:100B2000608D3246002851462046E5D100E002E0C3
:100B300001F09CFED0B10120BDE8F88F53460022A1
:100B400080212046009601F001FE0028F3D1608D3F
:100B5000FF2804D9FF22228500954346C7E7608D10
:100B60002085009594F828204B46C0E72168202076
:100B7000C86121684A68084B1A404A6084F84100FD
:100B800084F8425084F840500020D5E7FFE7022067
:100B9000D2E700000024008000E800FE2DE9FF4FAE
:100BA00081B0044690F84100DDF838B01F46904609
:100BB00020287BD194F84000012877D0012084F8C8
:100BC0004000FFF7A9FD0646012200901923D1033A
:100BD000204601F0BBFD002853D1212084F84100BC
:100BE000102084F8420000256564C4F824806785DD
:100BF0006563608D3A49FF274FF080794FF0007AA6
:100C0000FF2802D927854B4605E0608D208500042A
:100C10005346000C10D0226898F800009062606A79
:100C2000401C6062608D401E6085208D401E2085C6
:100C3000401CC2B2009101E00022009120460299BE
:100C400001F014FD14E000BF01F03BFEC8B9606A7A
:100C5000216800788862606A401C6062608D401E76
:100C60006085208D401E80B22085618D01B160B10C
:100C7000608D3246002859462046E5D101F0F6FD48
:100C8000E0B1012005B0BDE8F08F5B460022802175
:100C90002046009601F05AFD0028F2D1608DFF2811
:100CA00005D927853A464B460095C7E716E0608D83
:100CB0002085009594F828205346BFE7216820201E
:100CC000C86121684A68074B1A404A6084F84100AD
:100CD00084F8425084F840500020D3E70220D1E746
:100CE0000020008000E800FE30B59DB004461421CD
:100CF00017A8FFF79FFA5C216846FFF79BFA174990
:100D00002068884227D14020002500900C95684635
:100D100000F0A0F908B1FFF7F7FA114CE06C40F0D1
:100D20000200E064E06C17A900F002001C90C020F3
:100D300017901220CDE9180503201A9004201B906B
:100D40000848FFF75FFBA06D40F40010A065A06DA0
:100D500000F400101C901DB030BD00000054004095
:100D600000100240000400480248816802781144E3
:100D7000816070470000002010B50024032000F0BF
:100D8000C5F80F2000F008F808B1012401E000F0D8
:100D900025F8204610BD000070B50E4E0546002413
:100DA000307898B14FF47A71B1FBF0F00A490968D4
:100DB000B1FBF0F001F0D0F840B9102D06D20022BE
:100DC0002946501E00F052F8756000E001242046CC
:100DD00070BD0000000000200C000020094808B58C
:100DE000016E41F001010166016E01F00101009107
:100DF000816D41F080518165806D00F080500090E0
:100E000008BD00000010024010B5040003D5D22137
:100E100007A002F05AFD002C09DB04F01F0101209D
:100E200088406109890001F1E021C1F8000110BD8D
:100E30002E2E2F447269766572732F53544D3332C0
:100E40004C3478785F48414C5F4472697665722F04
:100E50005372632F73746D33326C3478785F6861CA
:100E60006C5F636F727465782E63000070B5154611
:100E70000C460646102A03D3BE2114A002F025FD1D
:100E8000102C03D3BF2111A002F01FFD1E480068E3
:100E9000C0F30223C3F107022046042A00D904222A
:100EA000191D072901D2002300E0DB1E012404FAEA
:100EB00002F1491E014099409C40641E2C40214390
:100EC0003046BDE8704002F03FBB00002E2E2F449C
:100ED0007269766572732F53544D33324C3478787F
:100EE0005F48414C5F4472697665722F5372632F7D
:100EF00073746D33326C3478785F68616C5F636FE4
:100F0000727465782E6300000CED00E010B50446A5
:100F100007280BD0062C09D0052C07D0042C05D0AF
:100F2000032C03D0A62108A002F0CFFC154904F041
:100F3000070208684FF6FF03184040EA0220124AF1
:100F40001043086010BD00002E2E2F447269766594
:100F500072732F53544D33324C3478785F48414C80
:100F60005F4472697665722F5372632F73746D33A9
:100F7000326C3478785F68616C5F636F7274657827
:100F80002E6300000CED00E00000FA0510B51B4CCC
:100F9000B0F5007F13D0B0F5806F03D0A72118A063
:100FA00002F093FC2068C0F34120022805D020689D
:100FB00020F4C06040F480602060002010BD2068F4
:100FC000C0F341200128F8D0206820F4C06040F42C
:100FD0000070206019483221006848431849B0FB6E
:100FE000F1F0401C00E0401E6169490501D5002870
:100FF000F9D160694005E0D5032010BD00700040C4
:101000002E2E2F447269766572732F53544D3332EE
:101010004C3478785F48414C5F4472697665722F32
:101020005372632F73746D33326C3478785F6861F8
:101030006C5F7077725F65782E6300000C00002093
:1010400040420F000248006800F4C0607047000092
:10105000007000402DE9F84F044600270068F3496E
:101060003E46084202D0C943084203D0C921F0A03D
:1010700002F02BFC2088FD4D000521D5606C4FF45B
:1010800000084FF4400938B1404505D0484503D029
:10109000D121E7A002F019FC606C50B1404503D0AB
:1010A00048453BD001270AE0E86840F48030E8601A
:1010B00034E00021201D01F03DFD07002ED03E460A
:1010C000206880034BD5A06D4FF0000868B1B0F5E3
:1010D000807F0AD0B0F5007F07D0B0F5407F04D004
:1010E0004FF4A271D2A002F0F0FBA86DC00009D4A9
:1010F000A86D40F08050A865A86D4FF0010800F081
:1011000080500090DFF868A3DAF8001041F4807195
:10111000CAF80010FFF700FB814611E0D5F88800FF
:10112000616C20F440000843C5F88800C8E700BFA0
:10113000FFF7F2FAA0EB0900022801D9032705E026
:10114000DAF80000C005F3D5002F7DD04FEA07067E
:10115000B8F1000F03D0A86D20F08050A86520786A
:10116000C00714D0206A50B1012808D0032806D047
:10117000022804D040F29911ADA002F0A6FBD5F8E8
:101180008800216A20F003000843C5F88800207811
:10119000800714D5606A50B1042808D00C2806D006
:1011A000082804D040F2A311A1A002F08EFBD5F8CC
:1011B0008800616A20F00C000843C5F88800207898
:1011C000400714D5A06A50B1102808D0302806D0A6
:1011D000202804D040F2AF1195A002F076FBD5F89C
:1011E0008800A16A20F030000843C5F88800207804
:1011F000800617D5E06A68B1B0F5806F0AD0B0F507
:10120000406F07D0B0F5006F04D040F2D71188A02E
:1012100002F05BFBD5F88800E16A20F440600843E7
:10122000C5F888002088800519D5E06B78B1B0F545
:10123000802F0CD0B0F5002F09D0B0F5402F06D08C
:101240004FF4F0717AA000E092E002F03EFBD5F896
:101250008800E16B20F440200843C5F8880020880E
:10126000400517D5206C68B1B0F5801F0AD0B0F5E5
:10127000001F07D0B0F5401F04D040F2E7116CA06A
:1012800002F023FBD5F88800216C20F440100843BD
:10129000C5F888002078400614D5206B50B1B0F511
:1012A000805F07D0B0F5005F04D040F2EF1160A07E
:1012B00002F00BFBD5F88800216B20F44050084366
:1012C000C5F888002078000614D5606B50B1B0F5E1
:1012D000804F07D0B0F5004F04D040F2FB1154A06E
:1012E00002F0F3FAD5F88800616B20F4404008431F
:1012F000C5F888002088C00514D5A06B50B1B0F5A2
:10130000803F07D0B0F5003F04D040F2072148A04D
:1013100002F0DBFAD5F88800A16B20F440300843D6
:10132000C5F8880020684FF0406900034FF08067DF
:101330004FF000685AD5A06C50B1B84208D0404573
:1013400006D0484504D040F2412139A002F0BDFA50
:10135000D5F88800A16C20F040600843C5F88800EB
:10136000A06C40453AD1E86840F48010E8603DE068
:10137000D5F8900010F4407014D0A16D814211D0C6
:10138000D5F89000D5F8901020F4407041F48031E9
:10139000C5F89010D5F8901021F48031C5F8901060
:1013A000C5F89000C00710D0FFF7B6F9074641F224
:1013B000883906E0FFF7B0F9C11B494501D903267A
:1013C000C6E6D5F890008007F4D5D5F89000A16D59
:1013D00020F440700843C5F89000B9E6B84205D142
:1013E0000121201D01F0A6FB00B106462068400344
:1013F00048D5E06C50B1B84208D0404506D04845C9
:1014000004D040F266210AA002F05FFAD5F8880005
:10141000E16C20F040600843C5F88800E06C40456E
:1014200028D1E86840F48010E8602BE0E7CF0E0098
:101430002E2E2F447269766572732F53544D3332BA
:101440004C3478785F48414C5F4472697665722FFE
:101450005372632F73746D33326C3478785F6861C4
:101460006C5F7263635F65782E630000001002405A
:1014700000700040B84205D10121201D01F05AFB47
:1014800000B10646208840041FD5206D4FF08057DC
:1014900050B1B84208D0B0F1405F05D040F286218B
:1014A000AFF2740002F011FAD5F88800216D20F037
:1014B00040500843C5F88800206DB84205D102218C
:1014C000201D01F037FB00B106462088000411D52D
:1014D000606D40B1B0F1804F05D040F2B621AFF25F
:1014E000B00002F0F2F955F8880F616D20F08040ED
:1014F000084328603046BDE8F88F00002DE9F0472A
:101500000E46050072D02868401E0E2804D940F20D
:10151000594178A002F0D9F966B1012E0AD0022E05
:1015200008D0032E06D0042E04D040F25A4171A0F8
:1015300002F0CBF97D4F386800F00700B04209D2C5
:10154000386820F0070030433860386800F0070042
:10155000B0424BD12878764C800721D5A868A0B13D
:10156000802812D0902810D0A0280ED0B0280CD0FF
:10157000C0280AD0D02808D0E02806D0F02804D00F
:1015800040F272415BA002F0A0F9A868A16801F0E6
:10159000F001884204D9A16821F0F0010143A16063
:1015A0002878C0073CD0686838B301280ED00228DC
:1015B00020D003281BD040F27D414EA002F085F9D7
:1015C0006868032813D0022814D0B0B12068400501
:1015D000002842DAA068696820F003000843A06090
:1015E000FFF79AF8804641F2883912E035E020682A
:1015F0008001EDE720688003EAE720688007E7E7DD
:10160000FFF78AF8A0EB0801494502D90320BDE89D
:10161000F087A068696800F00C00B0EB810FEFD193
:10162000287880070AD5A868A16801F0F0018842EF
:1016300004D2A16821F0F0010143A160386800F0F4
:101640000700B0420BD9386820F0070030433860FB
:10165000386800F00700B04201D00120D7E72878B1
:101660004FF4806640074FF4A0674FF4C0684FF412
:10167000E06914D5E86860B1B0420AD0B84208D039
:10168000404506D0484504D040F2F54119A002F08B
:101690001CF9A068E96820F4E0600843A06028789D
:1016A000000715D5286960B1B0420AD0B84208D009
:1016B000404506D0484504D040F2FC410DA002F060
:1016C00004F9A068296920F4605040EAC100A060D4
:1016D00000F05AF8A168174AC1F30311515C01F0F8
:1016E0001F01C8401449086014480068BDE8F0476D
:1016F000FFF752BB2E2E2F447269766572732F53FB
:10170000544D33324C3478785F48414C5F447269B1
:101710007665722F5372632F73746D33326C347825
:10172000785F68616C5F7263632E63000020024023
:10173000001002402C3900080C000020040000209A
:101740000548064900688968054AC1F30221515CD1
:1017500001F01F01C84070470C000020001002403B
:101760006C3900080548064900688968054AC1F3D4
:10177000C221515C01F01F01C84070470C000020DD
:10178000001002406C39000870B525490023184646
:101790008A68CC6812F00C0204F00306214C4FEA70
:1017A000640509D00C2A05D0042A32D0082A00D1B9
:1017B000284670BD012E10D10B681B0704D4D1F848
:1017C0009430C3F3032302E00B68C3F30313164EF4
:1017D00056F82330DAB10C2AEBD1C86800F00300C8
:1017E000022818D0032818D01846CA68CB68C2F35C
:1017F0000212C3F306234343521CB3FBF2F2C86840
:10180000C0F34160401C4000B2FBF0F070BD1846D0
:1018100070BD204670BD2046E7E72846E5E700009A
:10182000001002400024F4003C3900082DE9F84380
:1018300004007CD0206830B1800904D04FF4D1710D
:10184000F1A002F042F8FE4DA86800F00C06E8682E
:1018500000F003072078C0066AD5A06930B10128DE
:1018600004D040F2AB11E8A002F02FF8E069FF28A5
:1018700004D94FF4D671E4A002F027F8206AD0B161
:10188000102818D0202816D0302814D0402812D084
:10189000502810D060280ED070280CD080280AD094
:1018A000902808D0A02806D0B02804D040F2AD116E
:1018B000D5A002F00AF876B10C2E01D1012F0AD082
:1018C000A069002828687BD040F001002860FEF75E
:1018D00023FF80465EE02868800702D5A0690028C3
:1018E000A7D0216A2868000703D5286800F0F00017
:1018F00004E0D5F89400F02202EA1010814218D9D1
:10190000084601F01FFA002811D1286840F00800AD
:1019100028602868216A20F0F00008432860686881
:10192000E16920F47F4040EA0120686018E0F0E0BF
:1019300057E0286840F0080028602868216A20F0F5
:10194000F000084328606868E16920F47F4040EABD
:101950000120686026B9206A01F0F4F90028D3D18B
:10196000FFF712FFA968B74AC1F30311515C01F0F8
:101970001F01C840B4490860B4480068FFF70CFA7A
:10198000002873D12DE000BFFEF7C6FEA0EB0800D3
:1019900002286CD828688007F6D5286840F008002F
:1019A00028602868216A20F0F000084328606868F1
:1019B000E16920F47F4040EA0120686011E0FFE720
:1019C00020F001002860FEF7A7FE804606E000BF79
:1019D000FEF7A2FEA0EB08000228DAD828688007EC
:1019E000F6D42078C00750D060684FF480384FF4A8
:1019F000A02940B1404506D0484504D040F2192105
:101A000081A001F062FF082E0AD00C2E01D1032F15
:101A100006D0606840450AD1286840F4803013E061
:101A20002868800331D56068002872D02DE04845D1
:101A3000286803D140F480202860EDE720F480304E
:101A40002860286820F480202860606880B1FEF754
:101A500063FE804606E000BFFEF75EFEA0EB0800D6
:101A6000642896D828688003F6D50EE062E260E22A
:101A7000FEF752FE804605E0FEF74EFEA0EB0800A2
:101A8000642886D828688003F6D42078800749D552
:101A9000E06838B1B0F5807F04D04FF413715AA0DC
:101AA00001F013FF20691F2804D940F24D2156A0F0
:101AB00001F00BFF042E0ED00C2E01D1022F0AD004
:101AC000E068002828681DD040F480702860FEF788
:101AD00023FE07460BE0286840050BD5E068002888
:101AE000A3D007E0FEF718FEC01B0228B9D828686B
:101AF0004005F7D56868217C20F0F85040EA016085
:101B000068600FE020F480702860FEF705FE07464D
:101B100005E092E1FEF700FEC01B0228A1D828686C
:101B20004005F7D42078000731D56069E0B101287D
:101B300006D040F28D2134A001F0C7FE606998B153
:101B4000D5F8940040F00100C5F89400FEF7E4FDDC
:101B5000074604E0FEF7E0FDC01B022891D8D5F847
:101B600094008007F6D512E0D5F8940020F001002B
:101B7000C5F89400FEF7D0FD074604E0FEF7CCFD63
:101B8000C01B0228B2D8D5F894008007F6D420787C
:101B900040076FD5A068002740B1012806D005286E
:101BA00004D04FF4387118A001F08FFEA86DC0006A
:101BB00008D4A86D40F08050A865A86D012700F0FA
:101BC0008050009022480168C90513D401688146FD
:101BD00041F480710160FEF79FFD804606E000BF82
:101BE000FEF79AFDA0EB0800022897D8D9F800006C
:101BF000C005F5D5A06801283DD00528D5F890008E
:101C00003ED020F0010025E02E2E2F44726976652B
:101C100072732F53544D33324C3478785F48414CB3
:101C20005F4472697665722F5372632F73746D33DC
:101C3000326C3478785F68616C5F7263632E630026
:101C4000001002402C3900080C0000200400002085
:101C500000700040C5F89000D5F8900020F0040016
:101C6000C5F89000A06841F28839D0B1FEF754FD64
:101C7000804611E029E0D5F8900040F00100EFE740
:101C800040F00400C5F89000F5E700BFFEF744FD02
:101C9000A0EB08014945A8D8D5F890008007F5D5F4
:101CA0000EE0FEF739FD804606E000BFFEF734FD8A
:101CB000A0EB0801494598D8D5F890008007F5D4E5
:101CC0001FB1A86D20F08050A8652078800632D51D
:101CD000606AE8B1012807D040F24531AFF2D80080
:101CE00001F0F3FD606A98B1D5F8980040F001006A
:101CF000C5F89800FEF710FD074604E0FEF70CFD5E
:101D0000C01B0228C7D8D5F898008007F6D512E086
:101D1000D5F8980020F00100C5F89800FEF7FCFC0B
:101D2000074604E0FEF7F8FCC01B0228B3D8D5F83C
:101D300098008007F6D4A06A00287DD001280CD036
:101D4000022814D040F26E31AFF2441001F0BDFD14
:101D5000A06A0028F1D0022809D00C2E6DD0286886
:101D600020F080702860FEF7D7FC0446E4E0E06ACB
:101D700058B1012809D0022807D0032805D040F225
:101D80007631AFF27C1001F0A0FD206B401E0728D9
:101D900005D940F27731AFF2901001F096FD606BFB
:101DA00008384E2805D94FF45E71AFF2A41001F047
:101DB0008CFDA06B801E1D2805D940F27A31AFF250
:101DC000B81001F082FDE06B02280BD0042809D086
:101DD000062807D0082805D04FF45F71AFF2D8105D
:101DE00001F073FD206C02280BD0042809D00628CE
:101DF00007D0082805D040F27D31AFF2F41001F091
:101E000064FDE868E26A00F00301914229D1216B88
:101E100000F0700209011039914222D1626B00F486
:101E2000FE41B1EB022F1CD194F8382000F078412C
:101E3000B1EBC26F15D101E074E086E0A18F00F430
:101E4000C00249084905A1F50011914209D194F851
:101E5000401000F0C06049084906A1F100718142BC
:101E600049D00C2E72D0286840016FD4286820F029
:101E700080702860FEF750FC064604E0FEF74CFC3C
:101E8000801B022855D828688001F7D4F4E90B019B
:101E90006FF00F0202EB01110843218A5204490836
:101EA00002EB4151A26841EA02210843217D4FF033
:101EB0007E42490802EB41610843217B40EAC16050
:101EC000E968234A11400843E860286840F08070C0
:101ED0002860E86840F08070E860FEF71DFC04466A
:101EE00005E000BFFEF718FC001B022821D8286877
:101EF0008001F7D527E02868800124D4286840F0C5
:101F000080702860E86840F08070E860FEF704FCAC
:101F1000044604E0FEF700FC001B022809D82868EC
:101F20008001F7D50FE000BFFEF7F6FB001B02288B
:101F300002D90320BDE8F88328688001F4D4E8685A
:101F400004490840E8600020F4E7FFE70120F1E7DA
:101F50008C809D01FCFFEEFE10B5401EB0F1807F2D
:101F600001D3012010BD4FF0E02460610F21601704
:101F700001F0EAFA0020A06107202061002010BDD6
:101F800070477047704700002DE9F0410268044631
:101F9000D0691168936840F60F0528424FF000059C
:101FA0004FF0020605D187067ED58F067CD5A16E3F
:101FB00033E1DFF894C203F0010701EA0C0C57EAA1
:101FC0000C0C71D05FEAC07C0CD05FEAC15C09D513
:101FD0004FF0010CC2F820C0D4F8842042F0010276
:101FE000C4F88420820709D5DA0707D02268166270
:101FF000D4F8842042F00402C4F8842042070AD5B1
:10200000DA0708D0236804221A62D4F8842042F048
:102010000202C4F8842002070CD501F020023A43E2
:1020200008D0236808221A62D4F8842042F00802FB
:10203000C4F8842002050BD54A0109D523684FF462
:1020400000621A62D4F8842042F02002C4F884208E
:10205000D4F88420002A36D0800605D5880603D51A
:10206000A16E09B120468847D4F8840021688968A8
:10207000490602D410F0280F27D0204601F042F87C
:102080002068806840061BD52068083050E8001F93
:1020900021F0400140E80012002AF5D1606F78B1CC
:1020A0006A498163606F00E015E0FEF772F900286D
:1020B00009D0606F816B00E02046BDE8F041084721
:1020C0002046FFF75FFFBDE8F0812046FFF75AFF8B
:1020D000C4F88450F7E7D4F860C02027BCF1010FA2
:1020E0007ED15FEAC06C7BD55FEAC16C78D51020E9
:1020F00010622068806840064FD5616F0A6850689A
:102100000004000C3DD0B4F85830834239D9A4F80B
:102110005A000868006880062BD4206850E8001F29
:1021200021F4807140E80012002AF6D120680830BE
:1021300050E8001F21F0010140E80012002AF5D10B
:102140002068083050E8001F21F0400140E80012EC
:10215000002AF5D1C4F880702566206850E8001F79
:1021600021F0100140E80012002AF6D1606FFEF75E
:10217000EBF86666B4F85800B4F85A10401A81B209
:1021800007E0B4F8581081429DD1106880069AD5B6
:1021900066662046FFF7F4FE95E7B4F85800B4F8F9
:1021A0005A10401A81B2B4F85A0000288BD0002986
:1021B00089D0226852E8000F20F4907042E80003B2
:1021C000002BF6D12068083050E8002F22F00102E1
:1021D00040E80023002BF5D1C4F88070256600E0AC
:1021E0000AE0A566226852E8000F20F0100042E8DD
:1021F0000003002BF6D1CBE7C60209D55B0207D559
:102200004FF4801010622046BDE8F041FFF7B9BEE0
:10221000020606D50A0604D5E16E00297FF44CAF0C
:1022200051E74006B8D54806B6D52046026852E8C0
:10223000001F21F0400142E80013002BF6D1C767D0
:10224000C56600F07BF93EE720010004F13000088C
:1022500070B5040012D0A06926490028264A274BF1
:10226000274D20680CD0884217D0904215D0984254
:1022700013D0A84211D04FF4A9710BE0012070BD1A
:1022800088420AD0904208D0984206D0A84204D092
:1022900040F257111BA001F018FBE06F28B9002095
:1022A00084F87800204600F04BF82420E06720688E
:1022B000016821F001010160606A10B1204600F060
:1022C000C1FD204600F044FF0128D8D020684168B5
:1022D00021F4904141602068816821F02A018160E9
:1022E0002068016841F0010101602046BDE87040AE
:1022F00000F0AABE00380140004400400048004001
:10230000008000402E2E2F447269766572732F5321
:10231000544D33324C3478785F48414C5F44726995
:102320007665722F5372632F73746D33326C347809
:10233000785F68616C5F756172742E6300000000E5
:102340002DE9F0439DB00446142117A8FDF772FF54
:102350005C216846FDF76EFF4A4920684A4C032617
:10236000072700254FF090494FF0020888422AD1F4
:102370000120009008956846FEF76CFE08B1FDF755
:10238000C3FF206E40F480402066206E00F4804041
:102390001C90E06C40F00100E064E06C19AA00F0D1
:1023A00001001C904FF4C060CDE9170882E8E000FE
:1023B00017A94846FEF726F8002211462520FEF709
:1023C00055FD25202BE0314988422DD16846CDF8B6
:1023D00000800995FEF73EFE08B1FDF795FFA06D60
:1023E00040F40030A065A06D00F400301C90E06C5B
:1023F00040F00100E064E06C19AA00F001001C90BC
:102400000C20CDE9170882E8E00017A94846FDF73F
:10241000F9FF002211462620FEF728FD2620FEF7B0
:10242000F3FC1DB0BDE8F08319498842F9D10420BE
:102430000A9500906846FEF70DFE08B1FDF764FFAF
:10244000A06D40F48020A065A06D00F480201C9059
:10245000E06C40F00400E064E06C19AA00F00400B5
:102460001C903020CDE9170882E8E00017A9094840
:10247000FDF7C8FF002211462720FEF7F7FC2720B2
:10248000CDE7000000380140001002400044004049
:1024900000480040000800482DE9F8430446C06F9A
:1024A000984616460D46202802D00220BDE8F88343
:1024B00095B18EB10020C4F884002120E067FEF7BA
:1024C0002BF9A4F850608146A4F85260A068202738
:1024D000B0F5805F02D003E00120E7E7206910B18A
:1024E0002E46002510E000260EE08021204600F058
:1024F000BDFFC0B9D6B116F8010B21680885B4F844
:102500005200401EA4F85200B4F852004B464FF05F
:102510000002CDF800800028E7D14FF040012046AE
:1025200000F0A4FF38B1E7670320BFE735F8020BDE
:10253000C0F30800E1E7E7670020B7E77047FEE770
:1025400001688A69D243920701D400228A62006836
:102550008169C943C90703D0816941F001018161E3
:10256000704700002DE9F0470446006888460026C1
:10257000816935461746C9064FF020093FD510211D
:10258000C1612FE0B8F1FF3F2CD0FEF7C5F8C11BA9
:10259000414502D8B8F1000F24D12068416894F871
:1025A000422001F480418369DB431B0415D4B1F55B
:1025B000804F12D0202A10D0416841F48041416000
:1025C000FEF7AAF8074608E0FEF7A6F8C01B192890
:1025D00003D945F02005012604E020688069C04346
:1025E0008006F1D420688069C0F340103043C9D020
:1025F00016B92168C1F81C9045F004050126216830
:102600008869C20505D54FF4807245F00105CA619D
:102610000126410509D522684FF4806145F008057F
:10262000D1610126800502D40AE0800507D5216822
:102630004FF4007045F00205C861012600E086B144
:102640002046FFF77DFF54F8241B4868064A1040D7
:102650004860206A2843206284F81D900020A077FB
:1026600020773046BDE8F08700E800FE2DE9F04114
:102670000F46064600682049069C1D469046884243
:102680000AD01E49884207D01D49884204D041F62D
:10269000A9411CA001F019F9B5F1807F08D0B5F16E
:1026A000007F05D025B141F6AA4116A001F00DF931
:1026B000224884420BD02248844208D021488442D8
:1026C00005D024B141F6AB410EA001F0FEF8C7F3EE
:1026D000090141EA0840326828432043516820F04C
:1026E00000404FF4806303EA5453174C234399434B
:1026F00001435160BDE8F0810054004000580040A3
:10270000005C00402E2E2F447269766572732F5341
:10271000544D33324C3478785F48414C5F44726991
:102720007665722F5372632F73746D33326C347805
:10273000785F68616C5F6932632E630000400080DF
:102740000024008000200080FF63FF032DE9F0419A
:102750001D4617460E460446DDF8188027E042461F
:1027600029462046FFF7FEFE10B10120BDE8F081AA
:10277000681C1CD0FDF7D0FFA0EB0800A84200D8D1
:10278000ADB92068806936EA00000ED00020B8425A
:102790000DD154F8440F40F0200044F804092020E3
:1027A00060700020A0702070DFE70120EFE7206854
:1027B000806936EA000004D00020B842CFD0002063
:1027C000D4E70120F9E700002DE9F0470025914604
:1027D0000F4604462E464FF020083CE04A46394654
:1027E0002046FFF7BFFE00B1012520688169C9437B
:1027F00089061AD4CDB981698169C943C90613D440
:102800001021C161042060642168C1F81C80216826
:102810004A68154B1A404A6084F8418084F8426047
:1028200084F84060012500E06664FDF775FFA0EBC9
:102830000900B84200D877B96DB920688069C043F3
:10284000400708D5606C40F02000606484F8418047
:1028500084F84060012520688069C0F38000284327
:10286000BCD02846BDE8F08700E800FE70B51646EB
:102870000D4604461EE0324629462046FFF772FE0A
:1028800008B1012070BDFDF747FF801BA84200D8AA
:1028900085B920688069C04380060BD554F8440F81
:1028A00040F0200044F80409202060700020A0704F
:1028B0002070E6E720688069C0438006DBD40020F2
:1028C00070BD70B516460D46044620E032462946D6
:1028D0002046FFF747FE08B1012070BD681C16D0E6
:1028E000FDF71AFF801BA84200D885B920688069CF
:1028F000C04380070BD554F8440F40F0200044F843
:102900000409202060700020A0702070E4E7206897
:102910008069C0438007D9D4002070BDF0B587B06E
:1029200014216846FDF786FC3848C16C41F004016B
:10293000C164C16C01F004010591C16C41F08001DA
:10294000C164C16C01F080010591C16C41F00101CD
:10295000C164C16C01F001010591C16C41F002013B
:10296000C164C16C01F002010591C16C41F0080124
:10297000C164C06C264F00F00800059001220721B9
:102980003846FDF795FE4FF40050002401268DE8EF
:10299000510069463846FDF735FD4DF6C8700325F0
:1029A000CDE90005694602943846FDF72BFD072066
:1029B000CDE90006CDE9026469463846FDF722FDFF
:1029C00049F6F310CDE90005694602944FF09040B6
:1029D000FDF718FD4FF63F70CDE9000569460294FA
:1029E0000C48FDF70FFD0420CDE90005694602946F
:1029F0000948FDF707FD0820CDE900056946029466
:102A00000648FDF7FFFC07B0F0BD000000100240D3
:102A10000008004800040048000C0048001C004862
:102A2000134810B51149016012494160002101228B
:102A3000C0E90212016141618161C1610162FDF77A
:102A40003DFF08B1FDF760FC00210948FDF76AFE73
:102A500008B1FDF759FC00210548FDF7CBFE002821
:102A600003D0BDE81040FDF74FBC10BD005400403E
:102A700014000020EC9C90100D4810B50B4901602B
:102A80004FF4E1314160002181600C22C160C0E956
:102A900004128161C16101624162FFF7D9FB002824
:102AA00003D0BDE81040FDF72FBC10BD0038014039
:102AB000680000200D4810B50B4901604FF4E1316A
:102AC0004160002181600C22C160C0E90412816173
:102AD000C16101624162FFF7BBFB002803D0BDE882
:102AE0001040FDF711BC10BD00440040F000002074
:102AF0000D4810B50B4901604FF4E13141600021F0
:102B000081600C22C160C0E904128161C16101626F
:102B10004162FFF79DFB002803D0BDE81040FDF7A0
:102B2000F3BB10BD0048004078010020FEE7FEE73F
:102B3000704700002DE9F0410446006888460026F1
:102B400050B1012808D0022806D0032804D040F64E
:102B5000623167A000F0B9FE6068401E072804D902
:102B600040F6633162A000F0B0FEA06808384E283D
:102B700004D940F664315EA000F0A7FEA069C1034D
:102B800003D4C10201D4C10102D56849084204D06E
:102B900040F6653156A000F098FE654DE868800764
:102BA0000ED0E86800F003012068814217D1B0B16F
:102BB000E8686168C0F30210401C88420FD121E030
:102BC0002068012804D0022805D0032807D108E096
:102BD0002968890701E029684905002907DB0126E2
:102BE00082E02968890302D429684903F5E7E96886
:102BF00062686FF00F0321F0730103EB02121143BF
:102C00000143E960286820F080602860FDF784FDBA
:102C1000074604E0FDF780FDC01B02285BD828684A
:102C20000001F7D4B8F1000F26D0B8F1010F34D06D
:102C3000606902280AD0042808D0062806D008288F
:102C400004D040F6EE312AA000F03FFE207D4FF088
:102C50007E41400801EB4060A16840EA01202969FB
:102C6000344A114008432861286840F08060286099
:102C7000FDF752FD074630E0E068801E1D2804D9AC
:102C800040F6B8311AA000F020FEA068217B0002B7
:102C900040EAC1602969284AE3E7206902280AD08E
:102CA000042808D0062806D0082804D040F6DC31D5
:102CB0000FA000F00AFE208A2049400801EB405096
:102CC000A16840EA012029691D4ACAE7FDF724FDF1
:102CD000C01B022801D9032606E028680001F5D5AB
:102CE0002869A169084328613046BDE8F0810000E9
:102CF0002E2E2F447269766572732F53544D3332E2
:102D00004C3478785F48414C5F4472697665722F25
:102D10005372632F73746D33326C3478785F6861EB
:102D20006C5F7263635F65782E630000FFFFEEFEE9
:102D300000100240FF80FFF9FF80FF070000E0FF66
:102D4000FF809FFFF8B51C4D06460024A86DC0000B
:102D500002D5FEF777F90DE0A86D40F08050A86528
:102D6000A86D00F080500090FEF76CF9A96D21F07D
:102D70008051A965B0F5007F04D0802E07D94FF0AF
:102D800003040AE0802E08D9A02E01D804E001D166
:102D9000022402E0702E00D101240848016821F0CD
:102DA000070121430160006800F00700A04201D044
:102DB0000120F8BD0020F8BD0010024000200240B4
:102DC0007047FDF7D1BF10B596B044216846FDF7B6
:102DD00031FA142111A8FDF72DFA4FF40070FEF717
:102DE000D5F808B172B6FEE701210804CDE900105C
:102DF000022003240A90CDE90B4114210D910721F3
:102E0000CDE90E1010906846FEF710FD08B172B6BD
:102E1000FEE70F20CDE911040020139014901590C7
:102E2000042111A8FEF76AFB002801D072B6FEE764
:102E300016B010BD0248016841F47001016070478E
:102E400088ED00E070B50446406AFF2804D940F6DA
:102E50004D516BA000F039FD94F82400000710D507
:102E6000606B38B1B0F5004F04D040F6525164A009
:102E700000F02BFD20684168626B21F40041114392
:102E8000416094F82400C00710D0A06A38B1B0F5B2
:102E9000003F04D040F6595159A000F016FD2068BB
:102EA0004168A26A21F400311143416094F8240082
:102EB000800710D5E06A38B1B0F5803F04D04FF4F8
:102EC00056614FA000F001FD20684168E26A21F4DC
:102ED00080311143416094F82400400710D5206BE5
:102EE00038B1B0F5802F04D040F6675144A000F00F
:102EF000ECFC20684168226B21F480211143416081
:102F000094F82400C00610D5A06B38B1B0F5805FEE
:102F100004D040F66E513AA000F0D7FC20688168DA
:102F2000A26B21F480511143816094F82400800643
:102F300010D5E06B38B1B0F5005F04D040F67551A4
:102F40002FA000F0C2FC20688168E26B21F40051E0
:102F50001143816094F8240040063AD5374920682F
:102F600088420AD03649884207D03649884204D080
:102F700040F67C5122A000F0A8FC206C4FF4801594
:102F800030B1A84204D040F67D511DA000F09DFC58
:102F900020684168226C21F4801111434160206C4B
:102FA000A84216D1606C68B1B0F5001F0AD0B0F528
:102FB000800F07D0B0F5C00F04D040F6825110A0AA
:102FC00000F083FC20684168626C21F4C001114369
:102FD000416094F82400000610D5A06C38B1B0F51B
:102FE000002F04D040F68A5105A000F06EFC206846
:102FF0004168A26C21F400211143416070BD0000C2
:103000002E2E2F447269766572732F53544D3332CE
:103010004C3478785F48414C5F4472697665722F12
:103020005372632F73746D33326C3478785F6861D8
:103030006C5F756172742E630000000000380140FF
:1030400000440040004800402DE9F84300260446B3
:10305000C0F88460FDF760FB8046206800684FF090
:10306000200500076FF07E4712D543460022290451
:103070002046009700F0FAF950B1216851E8000F9E
:1030800020F0800041E80002002AF6D1E56721E047
:1030900020680068400722D5434600224FF4800193
:1030A0002046009700F0E2F9C8B1216851E8000F0E
:1030B00020F4907041E80002002AF6D12068083020
:1030C00050E8001F21F0010140E80012002AF5D16C
:1030D000C4F8805084F878600320BDE8F883E56781
:1030E000C4F8805044F8606F666026760020F4E7EC
:1030F00010B5806A0021A0F85A10A0F85210FEF70F
:1031000041FF10BD016851E8002F22F4907241E8A0
:103110000023002BF6D10168083151E8002F22F07E
:10312000010241E80023002BF5D1016E012908D1ED
:10313000026852E8001F21F0100142E80013002B42
:10314000F6D12021C0F88010002101668166704709
:103150002DE9F04704464068AC490026884204D374
:1031600040F65841AAA000F0B0FBA0684FF480558B
:10317000B0F1805F07D030B1A84204D040F6594189
:10318000A3A000F0A2FBDFF8C48220684FF4005136
:103190004045E0684FF4006906D100281AD0884203
:1031A00018D040F65C4112E0A8420AD048B1B0F510
:1031B000405F06D0884204D04FF4466194A000F0EE
:1031C00084FB206A30B1484504D040F6614190A0AC
:1031D00000F07BFB20694FF4806748B1B84207D00C
:1031E000B0F5C06F04D040F6644189A000F06DFBDB
:1031F000606930F00C0100D120B940F6654184A02F
:1032000000F063FBA06968B1B0F5807F0AD0B0F52B
:10321000007F07D0B0F5407F04D040F666417CA027
:1032200000F053FBE0694FF4004530B1A84204D0F0
:1032300040F6674176A000F048FB2169A068E2698A
:10324000084361691143084321680A68804B1A40AA
:1032500002430A6020684168E26821F4405111434A
:1032600041602168A069414501D0226A10438A6803
:1032700022F4306202438A607649226876488A42A4
:103280000DD1D0F8880010F0030006D0012841D0FD
:10329000022831D003282ED13EE001202CE06F49D6
:1032A0008A420BD1D0F8880010F00C0024D00428FA
:1032B00022D008282CD00C281DD12DE068498A4244
:1032C0000BD1D0F8880010F0300015D0102821D094
:1032D00020281DD030280ED11EE042450BD1D0F859
:1032E000880010F4406007D0B84213D048450FD092
:1032F000B0F5406F10D010205A49002742452FD119
:1033000060B102280DD004280DD0082874D125E022
:103310000220F1E70420EFE70820EDE7FEF710FABE
:1033200003E0084602E0FEF72FFA78B3626802EB8A
:103330004201814260D8B0EB023F5DD8010E03022A
:103340005008181879410023FCF73CFF464AA0F5C5
:103350004071914250D82168C8604EE02846E5E7A8
:10336000E2694FF6EF78AA4229D1092844D2DFE872
:1033700000F005080B430E4343432400FEF7E0F939
:1033800007E0FEF7EFF904E0084603E035E0FEF75A
:10339000FBF990B34100606801EB5001B1FBF0F024
:1033A000A0F11001414527D84FF6F0710140C0F35C
:1033B000420001432068C1601FE02846EAE709286F
:1033C0001AD2DFE800F005080B190D1919191F00B2
:1033D000FEF7B6F906E0FEF7C5F903E0084602E09D
:1033E000FEF7D2F948B1616800EB5100B0FBF1F093
:1033F000A0F11001414507D90126A7663046E766CE
:10340000BDE8F0872846EEE780B2A4E781969800F1
:103410002E2E2F447269766572732F53544D3332BA
:103420004C3478785F48414C5F4472697665722FFE
:103430005372632F73746D33326C3478785F6861C4
:103440006C5F756172742E630000000000800040A4
:10345000F369FFEF003801400010024000440040D3
:10346000004800400024F400FFFC0F002DE9F04765
:10347000994617460D4604464FF00008089E33E073
:10348000701C31D0FDF748F9A0EB0900B04218D804
:10349000BEB120680168490726D5802D24D0402D73
:1034A00022D0C169C94309070DD408250562204609
:1034B000FFF728FEC4F8845084F878800120BDE826
:1034C000F0870320FBE7C069C04300050CD42168E6
:1034D0004FF4006008622046FFF714FE2020C4F875
:1034E000840084F87880ECE72068C06935EA000041
:1034F00004D00020B842C3D00020E0E70120F9E763
:103500000148FEF741BD0000680000200148FEF7B9
:103510003BBD0000F00000200148FEF735BD000073
:1035200078010020FEE700000FB4054B10B503A999
:10353000044A029800F028F810BC5DF814FB000063
:10354000CD380008100000200907090E002804DB10
:1035500000F1E02080F80014704700F00F0000F147
:10356000E02080F8141D704702E008C8121F08C14F
:10357000002AFAD170477047002001E001C1121FF4
:10358000002AFBD1704700002DE9FF4F8BB0884621
:103590000546002606E025280BD0DDE90D129047F0
:1035A0006D1C761C28780028F5D10FB03046BDE898
:1035B000F08F0024A146A2460122AE4900E0044358
:1035C00015F8013F203B02FA03F00842F7D12878B2
:1035D0002A2810D06FF02F022878A0F13001092995
:1035E00015D809EB890102EB410144F0020400EB1C
:1035F00001096D1CF0E758F8041B5FEA010903D5C7
:1036000044F40054C9F1000944F002046D1C287808
:103610002E2817D115F8010F44F004042A280ED0E3
:103620006FF02F022878A0F1300109290AD80AEB9F
:103630008A0102EB410100EB010A6D1CF2E758F828
:1036400004AB6D1C28786C280FD006DC4C2817D0F2
:1036500068280DD06A2814D104E0742810D07A2884
:103660000FD10DE044F400140AE044F4801401E0AA
:1036700044F440146978814202D104F580146D1C31
:103680006D1C2878692865D006DC00288DD0632859
:1036900027D0642806D15DE06E2808D073282AD090
:1036A000752877D0DDE90D129047761CE0E0C4F371
:1036B0000250022809D003280DD0D8F800100428A1
:1036C0000DD00E6008F10408D2E0D8F80010F2170F
:1036D000C1E90062F6E7D8F800100E80F2E70E703C
:1036E000F0E718F8041B8DF8001000208DF8010099
:1036F000EB46012003E058F804BB4FF0FF306107B0
:103700004FF0000701D40AE07F1C57450DDA8742CD
:10371000FADB1BF807100029F6D106E07F1C874270
:10372000FCDB1BF807100029F8D1DDE90D23A9EB1C
:1037300007008146214600F0B1F83044C61904E084
:10374000DDE90D121BF8010B90477F1EF8D22146D0
:10375000484688E058F8040BC4F302514FF00A0BB6
:10376000032900D100B2042900D140B2002802DAB6
:1037700040422D2102E0210505D52B218DF8241092
:10378000012104E006E0E10710D02021F6E708AFB0
:10379000089113E058F8040BC4F302514FF00A0BE0
:1037A000032900D180B2042900D1C0B20021EEE784
:1037B0005946FCF74AFD303107F8011D0028F7D1C2
:1037C000ADEB070000F1200B600702D524F4803434
:1037D00001E04FF0010ADA4502DDAAEB0B0000E040
:1037E0000020824600EB0B0108980144A9EB010080
:1037F0000A90E00306D4DDE90D2321460A9800F083
:103800004DF806444FF0000908E009A911F8090035
:10381000DDE90D12904709F10109761C08998945E7
:10382000F3DBE0030CD5DDE90D2321460A9800F017
:1038300035F8064404E0DDE90D1230209047761C8F
:10384000BAF10001AAF1010AF5DC05E0DDE90D128B
:1038500017F8010B9047761CBBF10001ABF1010B8F
:10386000F4DC0A982146DDE90D2300F005F8064452
:103870006D1C97E6092801002DE9F041044600255A
:103880001E461746880404D405E039462020B04778
:103890006D1C641EF9D52846BDE8F0812DE9F04184
:1038A000044600251E469046C80301D5302700E097
:1038B0002027880404D505E041463846B0476D1CF2
:1038C000641EF9D52846BDE8F081704713B54FF660
:1038D000FF73012269460248FEF7DEFD00981CBD19
:1038E00068000020FDF748FAFFF76DFAFFF716F8B9
:1038F000FFF7C2F8FFF7DEF8FFF7FAF8FFF790F8E6
:103900004FF4FA74FCF7F4FC014603A0FFF70CFE39
:103910002046FCF765FDF5E7B9E2D5D5C7BFB6C8C7
:103920003A253464204C55580D0A00000000000070
:10393000000000000102030406070809A086010038
:10394000400D0300801A060000350C0040420F00B5
:1039500080841E0000093D0000127A000024F4005B
:1039600000366E010048E801006CDC020000000037
:103970000102030494390008000000201400000034
:1039800068350008A839000814000020EC05000084
:103990007835000801000000100000000000000061
:0839A00000093D0000000000D9
:040000050800018D61
:00000001FF
