:020000040800F2
:1000000010060020A10100084B2400083722000838
:1000100049240008AD020008393100080000000042
:10002000000000000000000000000000DD260008C5
:10003000AF020008000000004D240008F12600086F
:10004000BB010008BB010008BB010008BB010008A0
:10005000BB010008BB010008BB010008BB01000890
:10006000BB010008BB010008BB010008BB01000880
:10007000BB010008BB010008BB010008BB01000870
:10008000BB010008BB010008BB010008BB01000860
:10009000BB010008BB010008BB010008BB01000850
:1000A000BB010008BB010008BB010008BB01000840
:1000B000BB0100080000000000000000BB010008B8
:1000C000BB010008BB010008BB010008BB01000820
:1000D000BB01000815310008213100082D3100084E
:1000E000BB010008BB010008000000000000000088
:1000F0000000000000000000000000000000000000
:1001000000000000BB01000800000000BB01000867
:100110000000000000000000BB010008BB01000857
:10012000BB010008BB010008BB010008BB010008BF
:10013000BB010008000000000000000000000000FB
:10014000BB010008BB010008BB0100080000000063
:10015000BB010008BB010008BB010008BB0100088F
:10016000BB010008BB010008BB0100080000000043
:10017000BB010008BB0100080000000000000000F7
:10018000BB010008BB010008BB010008DFF80CD070
:1001900000F07AF8004800477D3100081006002082
:1001A0000648804706480047FEE7FEE7FEE7FEE711
:1001B000FEE7FEE7FEE7FEE7FEE7FEE7652700084D
:1001C0008D0100082DE9F05F0546002092469B4610
:1001D00088460646814640241BE02846414647465D
:1001E000224600F041F853465A46C01A914110D3B6
:1001F00011461846224600F028F82D1A67EB010830
:100200004F4622460120002100F01FF817EB00099D
:100210004E41201EA4F10104DFDC484631462A4647
:100220004346BDE8F09FD2B201E000F8012B491E21
:10023000FBD270470022F6E710B513460A46044683
:100240001946FFF7F0FF204610BD202A04DB203AB4
:1002500000FA02F1002070479140C2F1200320FA19
:1002600003F3194390407047202A04DB203A21FA17
:1002700002F00021704721FA02F3D040C2F12002BF
:100280009140084319467047064C074D06E0E06868
:1002900040F0010394E8070098471034AC42F6D3CD
:1002A000FFF778FFF431000814320008FEE77047CA
:1002B00072B6FEE710B590F825100022022905D08D
:1002C0000421C16380F82420012010BD01680B685F
:1002D00023F00E030B6001680B6823F001030B6031
:1002E00090F84410046C01F01C03012101FA03F39F
:1002F000636080F8251080F82420104610BD10B5EA
:1003000090F825100024022903D00421C1630124A0
:100310001AE001680A6822F00E020A6001680A68A1
:1003200022F001020A6090F84410036C01F01C02F4
:10033000012101FA02F25A6080F82510002180F8AC
:100340002410816B01B18847204610BD2DE9F84F7C
:1003500000274FF0904ADFF84482DFF844B20D46A0
:100360000446504510D044450ED05C450CD08D4815
:10037000844209D08C48844206D08C48844203D001
:10038000AA218BA002F0F8FE28680104090C01D014
:10039000000C03D0AB2186A002F0EEFE68684FF09F
:1003A0000309002821D00128FCD01128FAD0022806
:1003B000F8D01228F6D0B0F5881FF3D0B0F5041F9E
:1003C000F0D0B0F5441FEDD0B0F5901FEAD0B0F5F5
:1003D000081FE7D0B0F5481FE4D00328E2D00B286F
:1003E000E0D0AC2172A002F0C7FECFE00121B940FD
:1003F0000840009106007DD0287900F00300012814
:1004000001D002281DD1E86848B1012807D0022890
:1004100005D0032803D0BB2165A002F0ADFEA06883
:100420007A0009FA02F18843E96891400143A1602A
:100430006068009988432979C1F30011B9400143EC
:1004400061602879C043800712D0A86838B10128BC
:1004500005D0022803D0DC2155A002F08DFEE06813
:100460007A0009FA02F18843A96891400143E160EA
:10047000287900F00300022826D1544510D04445C5
:100480000ED05C450CD04748844209D0464884428F
:1004900006D04648844203D0E82145A002F06CFE15
:1004A00028690F2803D9E92141A002F065FEF80868
:1004B00004EB8003186A7907CA0E0F219140884324
:1004C000296991400143196221687A0009FA02F012
:1004D0008143287900F00300904008432060686859
:1004E00010F4403F51D04148016E41F001010166D6
:1004F000006E00E049E000F0010000903C4827F069
:1005000003010A189168B807030F0F209840814330
:10051000544501D1002012E0444501D101200EE0F4
:100520005C4501D102200AE01E48844201D103202B
:1005300005E01D48844201D1042000E007209840D6
:10054000084390602B4908686A68B043D20200D51E
:10055000304308602749091D08686A68B043920261
:1005600000D5304308602349091F08686A68B04312
:10057000920300D5304308601E49083908686A684C
:10058000B043D20300D5304308607F1C2E6830464C
:10059000FE407FF42BAFBDE8F88F00000004004858
:1005A00000080048000C004800100048001C0048EB
:1005B0002E2E2F447269766572732F53544D333249
:1005C0004C3478785F48414C5F4472697665722F8D
:1005D0005372632F73746D33326C3478785F686153
:1005E0006C5F6770696F2E630000000000100240AE
:1005F000000001400804014070B515460C00064695
:1006000004D14FF4D77107A002F0B6FD45B1012D1A
:1006100004D040F2AF1103A002F0AEFDB46170BD92
:10062000B46270BD2E2E2F447269766572732F539B
:10063000544D33324C3478785F48414C5F44726992
:100640007665722F5372632F73746D33326C347806
:10065000785F68616C5F6770696F2E6300000000EF
:1006600001488068704700001400002070B50D46F6
:10067000044600681F49884209D01F49884206D0B5
:100680001E49884203D063211DA002F075FD35B1DB
:10069000B5F5805F03D0642119A002F06DFD94F8D8
:1006A0004100202823D194F8400001281FD00120C8
:1006B00084F84000242084F841002068016821F07B
:1006C000010101602068016821F480510160206807
:1006D0000168294301602068016841F0010101605F
:1006E000202084F84100002084F8400070BD0220E2
:1006F00070BD00000054004000580040005C004005
:100700002E2E2F447269766572732F53544D3332F7
:100710004C3478785F48414C5F4472697665722F3B
:100720005372632F73746D33326C3478785F686101
:100730006C5F6932635F65782E63000070B50D46AB
:10074000044600681D49884209D01D49884206D0E8
:100750001C49884203D091211BA002F00DFD0F2DF2
:1007600003D9922118A002F007FD94F84100202837
:1007700021D194F8400001281DD0012084F84000C8
:10078000242084F841002068016821F00101016003
:100790002068016821F4706141EA05210160206848
:1007A000016841F001010160202084F8410000202F
:1007B00084F8400070BD022070BD0000005400406D
:1007C00000580040005C00402E2E2F447269766570
:1007D00072732F53544D33324C3478785F48414C08
:1007E0005F4472697665722F5372632F73746D3331
:1007F000326C3478785F68616C5F6932635F65780A
:100800002E63000070B5040061D05B492068884207
:100810000AD05A49884207D05949884204D04FF437
:10082000087158A002F0A8FCA068B0F5806F04D34E
:1008300040F2212153A002F09FFCE068012806D07D
:10084000022804D040F222214EA002F095FC20693B
:1008500038B1B0F5004F04D040F2232149A002F096
:100860008BFC6069FF2804D94FF4097145A002F0A0
:1008700083FCA06990B1012810D002280ED0032873
:100880000CD004280AD0052808D0062806D007284E
:1008900004D040F225213BA002F06EFCE06938B1A3
:1008A000B0F5002F04D040F2262136A002F064FCFF
:1008B000206A38B1B0F5003F04D040F2272131A0C2
:1008C00002F05AFC94F84100002510B106E0012026
:1008D00070BD84F84050204600F072F8242084F85F
:1008E00041002068016821F0010101606068216811
:1008F00020F0706008612068816821F40041816007
:10090000E0680128A06830D040F404402168886085
:10091000E0680228206841682AD021F40061416023
:1009200020684168254A114341602068C16821F46C
:100930000041C160D4E904010843A16940EA0120F3
:100940002168C860D4E9070108432168086020686D
:10095000016841F0010101606564202084F84100D4
:10096000256384F84250002070BD40F40040CDE77C
:1009700041F40061D3E700000054004000580040FB
:10098000005C00402E2E2F447269766572732F53DF
:10099000544D33324C3478785F48414C5F4472692F
:1009A0007665722F5372632F73746D33326C3478A3
:1009B000785F68616C5F6932632E630000800002BB
:1009C00030B59DB00446142117A8FFF733FC5C2115
:1009D0006846FFF72FFC17492068884227D140203E
:1009E000002500900C95684600F0A0F908B1FFF7CB
:1009F0005FFC114CE06C40F00200E064E06C17A971
:100A000000F002001C90C02017901220CDE91805BC
:100A100003201A9004201B900848FFF797FCA06D54
:100A200040F40010A065A06D00F400101C901DB0F3
:100A300030BD000000540040001002400004004897
:100A400002488168027811448160704714000020D8
:100A500010B50024032000F0C5F80F2000F008F8BE
:100A600008B1012401E000F025F8204610BD000087
:100A700070B50E4E05460024307898B14FF47A7167
:100A8000B1FBF0F00A490968B1FBF0F001F0D0F8D1
:100A900040B9102D06D200222946501E00F052F80F
:100AA000756000E00124204670BD000014000020A5
:100AB00020000020094808B5016E41F001010166DF
:100AC000016E01F001010091816D41F0805181655D
:100AD000806D00F08050009008BD000000100240C2
:100AE00010B5040003D5D22107A002F045FB002C6D
:100AF00009DB04F01F01012088406109890001F130
:100B0000E021C1F8000110BD2E2E2F4472697665D8
:100B100072732F53544D33324C3478785F48414CC4
:100B20005F4472697665722F5372632F73746D33ED
:100B3000326C3478785F68616C5F636F727465786B
:100B40002E63000070B515460C460646102A03D3E6
:100B5000BE2114A002F010FB102C03D3BF2111A062
:100B600002F00AFB1E480068C0F30223C3F107022B
:100B70002046042A00D90422191D072901D2002386
:100B800000E0DB1E012404FA02F1491E01409940F5
:100B90009C40641E2C4021433046BDE8704002F06A
:100BA000CCBA00002E2E2F447269766572732F53D3
:100BB000544D33324C3478785F48414C5F4472690D
:100BC0007665722F5372632F73746D33326C347881
:100BD000785F68616C5F636F727465782E63000084
:100BE0000CED00E010B5044607280BD0062C09D008
:100BF000052C07D0042C05D0032C03D0A62108A077
:100C000002F0BAFA154904F0070208684FF6FF032C
:100C1000184040EA0220124A1043086010BD00004C
:100C20002E2E2F447269766572732F53544D3332D2
:100C30004C3478785F48414C5F4472697665722F16
:100C40005372632F73746D33326C3478785F6861DC
:100C50006C5F636F727465782E6300000CED00E0CA
:100C60000000FA0510B51B4CB0F5007F13D0B0F5AD
:100C7000806F03D0A72118A002F07EFA2068C0F38D
:100C80004120022805D0206820F4C06040F4806034
:100C90002060002010BD2068C0F341200128F8D05A
:100CA000206820F4C06040F40070206019483221B0
:100CB000006848431849B0FBF1F0401C00E0401EBA
:100CC0006169490501D50028F9D160694005E0D581
:100CD000032010BD007000402E2E2F4472697665EF
:100CE00072732F53544D33324C3478785F48414CF3
:100CF0005F4472697665722F5372632F73746D331C
:100D0000326C3478785F68616C5F7077725F657899
:100D10002E6300002000002040420F0002480068BF
:100D200000F4C06070470000007000402DE9F84FEB
:100D3000044600270068F3493E46084202D0C943F2
:100D4000084203D0C921F0A002F016FA2088FD4D18
:100D5000000521D5606C4FF400084FF4400938B10C
:100D6000404505D0484503D0D121E7A002F004FA60
:100D7000606C50B1404503D048453BD001270AE0A4
:100D8000E86840F48030E86034E00021201D01F084
:100D90005FFB07002ED03E46206880034BD5A06D38
:100DA0004FF0000868B1B0F5807F0AD0B0F5007F41
:100DB00007D0B0F5407F04D04FF4A271D2A002F06A
:100DC000DBF9A86DC00009D4A86D40F08050A8657B
:100DD000A86D4FF0010800F080500090DFF868A384
:100DE000DAF8001041F48071CAF80010FFF738FCFF
:100DF000814611E0D5F88800616C20F4400008437A
:100E0000C5F88800C8E700BFFFF72AFCA0EB09007F
:100E1000022801D9032705E0DAF80000C005F3D560
:100E2000002F7DD04FEA0706B8F1000F03D0A86D60
:100E300020F08050A8652078C00714D0206A50B1F7
:100E4000012808D0032806D0022804D040F29911C6
:100E5000ADA002F091F9D5F88800216A20F00300D6
:100E60000843C5F888002078800714D5606A50B11F
:100E7000042808D00C2806D0082804D040F2A3117A
:100E8000A1A002F079F9D5F88800616A20F00C0081
:100E90000843C5F888002078400714D5A06A50B1EF
:100EA000102808D0302806D0202804D040F2AF11F6
:100EB00095A002F061F9D5F88800A16A20F0300011
:100EC0000843C5F888002078800617D5E06A68B125
:100ED000B0F5806F0AD0B0F5406F07D0B0F5006F65
:100EE00004D040F2D71188A002F046F9D5F8880066
:100EF000E16A20F440600843C5F888002088800536
:100F000019D5E06B78B1B0F5802F0CD0B0F5002F7B
:100F100009D0B0F5402F06D04FF4F0717AA000E070
:100F200092E002F029F9D5F88800E16B20F4402026
:100F30000843C5F888002088400517D5206C68B1A3
:100F4000B0F5801F0AD0B0F5001F07D0B0F5401FE4
:100F500004D040F2E7116CA002F00EF9D5F8880039
:100F6000216C20F440100843C5F888002078400622
:100F700014D5206B50B1B0F5805F07D0B0F5005F9D
:100F800004D040F2EF1160A002F0F6F8D5F8880026
:100F9000216B20F440500843C5F8880020780006F3
:100FA00014D5606B50B1B0F5804F07D0B0F5004F4D
:100FB00004D040F2FB1154A002F0DEF8D5F888000E
:100FC000616B20F440400843C5F888002088C005C4
:100FD00014D5A06B50B1B0F5803F07D0B0F5003FFD
:100FE00004D040F2072148A002F0C6F8D5F88800E6
:100FF000A16B20F440300843C5F8880020684FF00A
:10100000406900034FF080674FF000685AD5A06C2C
:1010100050B1B84208D0404506D0484504D040F20F
:10102000412139A002F0A8F8D5F88800A16C20F081
:1010300040600843C5F88800A06C40453AD1E86894
:1010400040F48010E8603DE0D5F8900010F4407066
:1010500014D0A16D814211D0D5F89000D5F8901030
:1010600020F4407041F48031C5F89010D5F890100C
:1010700021F48031C5F89010C5F89000C00710D059
:10108000FFF7EEFA074641F2883906E0FFF7E8FA83
:10109000C11B494501D90326C6E6D5F89000800753
:1010A000F4D5D5F89000A16D20F440700843C5F840
:1010B0009000B9E6B84205D10121201D01F0C8F920
:1010C00000B106462068400348D5E06C50B1B842F4
:1010D00008D0404506D0484504D040F266210AA019
:1010E00002F04AF8D5F88800E16C20F0406008432F
:1010F000C5F88800E06C404528D1E86840F48010CD
:10110000E8602BE0E7CF0E002E2E2F447269766543
:1011100072732F53544D33324C3478785F48414CBE
:101120005F4472697665722F5372632F73746D33E7
:10113000326C3478785F68616C5F7263635F657886
:101140002E6300000010024000700040B84205D13C
:101150000121201D01F07CF900B1064620884004E1
:101160001FD5206D4FF0805750B1B84208D0B0F174
:10117000405F05D040F28621AFF2740001F0FCFF21
:10118000D5F88800216D20F040500843C5F888004C
:10119000206DB84205D10221201D01F059F900B19E
:1011A00006462088000411D5606D40B1B0F1804F33
:1011B00005D040F2B621AFF2B00001F0DDFF55F8E6
:1011C000880F616D20F08040084328603046BDE8FC
:1011D000F88F00002DE9F0470E46050072D0286810
:1011E000401E0E2804D940F2594178A001F0C4FFF6
:1011F00066B1012E0AD0022E08D0032E06D0042E8E
:1012000004D040F25A4171A001F0B6FF7D4F38681A
:1012100000F00700B04209D2386820F007003043E0
:101220003860386800F00700B0424BD12878764C1F
:10123000800721D5A868A0B1802812D0902810D0AE
:10124000A0280ED0B0280CD0C0280AD0D02808D0B2
:10125000E02806D0F02804D040F272415BA001F0F3
:101260008BFFA868A16801F0F001884204D9A16849
:1012700021F0F0010143A1602878C0073CD06868E4
:1012800038B301280ED0022820D003281BD040F20A
:101290007D414EA001F070FF6868032813D002283A
:1012A00014D0B0B120684005002842DAA06869680F
:1012B00020F003000843A060FFF7D2F9804641F216
:1012C000883912E035E020688001EDE7206880036E
:1012D000EAE720688007E7E7FFF7C2F9A0EB08011B
:1012E000494502D90320BDE8F087A068696800F08D
:1012F0000C00B0EB810FEFD1287880070AD5A868E1
:10130000A16801F0F001884204D2A16821F0F00147
:101310000143A160386800F00700B0420BD938687B
:1013200020F0070030433860386800F00700B04212
:1013300001D00120D7E728784FF4806640074FF4AA
:10134000A0674FF4C0684FF4E06914D5E86860B155
:10135000B0420AD0B84208D0404506D0484504D033
:1013600040F2F54119A001F007FFA068E96820F4F8
:10137000E0600843A0602878000715D5286960B1AF
:10138000B0420AD0B84208D0404506D0484504D003
:1013900040F2FC410DA001F0EFFEA068296920F4A5
:1013A000605040EAC100A06000F05AF8A168174AF6
:1013B000C1F30311515C01F01F01C84014490860DA
:1013C00014480068BDE8F047FFF752BB2E2E2F44AB
:1013D0007269766572732F53544D33324C3478787A
:1013E0005F48414C5F4472697665722F5372632F78
:1013F00073746D33326C3478785F68616C5F7263DC
:10140000632E63000020024000100240AC3100084F
:10141000200000201800002005480649006889685F
:10142000054AC1F30221515C01F01F01C840704719
:101430002000002000100240EC3100080548064959
:1014400000688968054AC1F3C221515C01F01F019F
:10145000C84070472000002000100240EC31000816
:1014600070B52549002318468A68CC6812F00C0232
:1014700004F00306214C4FEA640509D00C2A05D07C
:10148000042A32D0082A00D1284670BD012E10D17E
:101490000B681B0704D4D1F89430C3F3032302E094
:1014A0000B68C3F30313164E56F82330DAB10C2A37
:1014B000EBD1C86800F00300022818D0032818D028
:1014C0001846CA68CB68C2F30212C3F3062343432B
:1014D000521CB3FBF2F2C868C0F34160401C4000EC
:1014E000B2FBF0F070BD184670BD204670BD2046BE
:1014F000E7E72846E5E70000001002400024F4007A
:10150000BC3100082DE9F84304007CD0206830B1DC
:10151000800904D04FF4D171F1A001F02DFEFE4DF1
:10152000A86800F00C06E86800F003072078C00601
:101530006AD5A06930B1012804D040F2AB11E8A00F
:1015400001F01AFEE069FF2804D94FF4D671E4A037
:1015500001F012FE206AD0B1102818D0202816D031
:10156000302814D0402812D0502810D060280ED037
:1015700070280CD080280AD0902808D0A02806D047
:10158000B02804D040F2AD11D5A001F0F5FD76B140
:101590000C2E01D1012F0AD0A069002828687BD029
:1015A00040F001002860FFF75BF880465EE02868A5
:1015B000800702D5A0690028A7D0216A2868000703
:1015C00003D5286800F0F00004E0D5F89400F0227C
:1015D00002EA1010814218D9084601F041F80028AB
:1015E00011D1286840F0080028602868216A20F09E
:1015F000F000084328606868E16920F47F4040EA11
:101600000120686018E0F0E057E0286840F008002A
:1016100028602868216A20F0F00008432860686884
:10162000E16920F47F4040EA0120686026B9206A21
:1016300001F016F80028D3D1FFF712FFA968B74AC6
:10164000C1F30311515C01F01F01C840B4490860A7
:10165000B4480068FFF70CFA002873D12DE000BFF2
:10166000FEF7FEFFA0EB080002286CD82868800770
:10167000F6D5286840F0080028602868216A20F024
:10168000F000084328606868E16920F47F4040EA80
:101690000120686011E0FFE720F001002860FEF7FC
:1016A000DFFF804606E000BFFEF7DAFFA0EB080090
:1016B0000228DAD828688007F6D42078C00750D0EE
:1016C00060684FF480384FF4A02940B1404506D0FF
:1016D000484504D040F2192181A001F04DFD082EAB
:1016E0000AD00C2E01D1032F06D0606840450AD1E4
:1016F000286840F4803013E02868800331D56068A2
:10170000002872D02DE04845286803D140F480209D
:101710002860EDE720F480302860286820F48020DD
:101720002860606880B1FEF79BFF804606E000BF3E
:10173000FEF796FFA0EB0800642896D8286880037F
:10174000F6D50EE062E260E2FEF78AFF804605E031
:10175000FEF786FFA0EB0800642886D8286880037F
:10176000F6D42078800749D5E06838B1B0F5807F9D
:1017700004D04FF413715AA001F0FEFC20691F2819
:1017800004D940F24D2156A001F0F6FC042E0ED0F3
:101790000C2E01D1022F0AD0E068002828681DD045
:1017A00040F480702860FEF75BFF07460BE0286876
:1017B00040050BD5E0680028A3D007E0FEF750FFF6
:1017C000C01B0228B9D828684005F7D56868217C75
:1017D00020F0F85040EA016068600FE020F480706B
:1017E0002860FEF73DFF074605E092E1FEF738FF6F
:1017F000C01B0228A1D828684005F7D4207800072C
:1018000031D56069E0B1012806D040F28D2134A0C5
:1018100001F0B2FC606998B1D5F8940040F0010085
:10182000C5F89400FEF71CFF074604E0FEF718FF1A
:10183000C01B022891D8D5F894008007F6D512E095
:10184000D5F8940020F00100C5F89400FEF708FFD9
:10185000074604E0FEF704FFC01B0228B2D8D5F803
:1018600094008007F6D4207840076FD5A068002741
:1018700040B1012806D0052804D04FF4387118A0D3
:1018800001F07AFCA86DC00008D4A86D40F080502B
:10189000A865A86D012700F08050009022480168DB
:1018A000C90513D40168814641F480710160FEF7D7
:1018B000D7FE804606E000BFFEF7D2FEA0EB080090
:1018C000022897D8D9F80000C005F5D5A0680128EE
:1018D0003DD00528D5F890003ED020F0010025E04D
:1018E0002E2E2F447269766572732F53544D333206
:1018F0004C3478785F48414C5F4472697665722F4A
:101900005372632F73746D33326C3478785F68610F
:101910006C5F7263632E630000100240AC310008FC
:10192000200000201800002000700040C5F8900042
:10193000D5F8900020F00400C5F89000A06841F2AE
:101940008839D0B1FEF78CFE804611E029E0D5F849
:10195000900040F00100EFE740F00400C5F890006F
:10196000F5E700BFFEF77CFEA0EB08014945A8D8CB
:10197000D5F890008007F5D50EE0FEF771FE8046A1
:1019800006E000BFFEF76CFEA0EB0801494598D8C1
:10199000D5F890008007F5D41FB1A86D20F08050D5
:1019A000A8652078800632D5606AE8B1012807D0A2
:1019B00040F24531AFF2D80001F0DEFB606A98B129
:1019C000D5F8980040F00100C5F89800FEF748FEF1
:1019D000074604E0FEF744FEC01B0228C7D8D5F82E
:1019E00098008007F6D512E0D5F8980020F00100A5
:1019F000C5F89800FEF734FE074604E0FEF730FE17
:101A0000C01B0228B3D8D5F898008007F6D4A06A86
:101A100000287DD001280CD0022814D040F26E316D
:101A2000AFF2441001F0A8FBA06A0028F1D0022810
:101A300009D00C2E6DD0286820F080702860FEF749
:101A40000FFE0446E4E0E06A58B1012809D00228FC
:101A500007D0032805D040F27631AFF27C1001F0B8
:101A60008BFB206B401E072805D940F27731AFF27F
:101A7000901001F081FB606B08384E2805D94FF4B7
:101A80005E71AFF2A41001F077FBA06B801E1D28E1
:101A900005D940F27A31AFF2B81001F06DFBE06B7E
:101AA00002280BD0042809D0062807D0082805D022
:101AB0004FF45F71AFF2D81001F05EFB206C02288A
:101AC0000BD0042809D0062807D0082805D040F2FA
:101AD0007D31AFF2F41001F04FFBE868E26A00F0EC
:101AE0000301914229D1216B00F0700209011039E4
:101AF000914222D1626B00F4FE41B1EB022F1CD166
:101B000094F8382000F07841B1EBC26F15D101E0B4
:101B100074E086E0A18F00F4C00249084905A1F5F0
:101B20000011914209D194F8401000F0C0604908BA
:101B30004906A1F10071814249D00C2E72D028686B
:101B400040016FD4286820F080702860FEF788FD7F
:101B5000064604E0FEF784FD801B022855D828685D
:101B60008001F7D4F4E90B016FF00F0202EB0111D1
:101B70000843218A5204490802EB4151A26841EA14
:101B800002210843217D4FF07E42490802EB41616A
:101B90000843217B40EAC160E968234A11400843B9
:101BA000E860286840F080702860E86840F0807045
:101BB000E860FEF755FD044605E000BFFEF750FD66
:101BC000001B022821D828688001F7D527E0286863
:101BD000800124D4286840F080702860E86840F0D4
:101BE0008070E860FEF73CFD044604E0FEF738FD37
:101BF000001B022809D828688001F7D50FE000BF34
:101C0000FEF72EFD001B022802D90320BDE8F88351
:101C100028688001F4D4E86804490840E86000209E
:101C2000F4E7FFE70120F1E78C809D01FCFFEEFE69
:101C300010B5401EB0F1807F01D3012010BD4FF0E0
:101C4000E02460610F21601701F077FA0020A061A5
:101C500007202061002010BD7047704770470000CA
:101C60002DE9F04102680446D0691168936840F696
:101C70000F0528424FF000054FF0020605D18706F8
:101C80007ED58F067CD5A16E33E1DFF894C203F0D8
:101C9000010701EA0C0C57EA0C0C71D05FEAC07C1A
:101CA0000CD05FEAC15C09D54FF0010CC2F820C02E
:101CB000D4F8842042F00102C4F88420820709D5B8
:101CC000DA0707D022681662D4F8842042F00402B2
:101CD000C4F8842042070AD5DA0708D02368042212
:101CE0001A62D4F8842042F00202C4F88420020769
:101CF0000CD501F020023A4308D0236808221A626A
:101D0000D4F8842042F00802C4F8842002050BD5E0
:101D10004A0109D523684FF400621A62D4F884207E
:101D200042F02002C4F88420D4F88420002A36D05F
:101D3000800605D5880603D5A16E09B120468847DF
:101D4000D4F8840021688968490602D410F0280F6D
:101D500027D0204600F06EFE2068806840061BD524
:101D60002068083050E8001F21F0400140E80012D0
:101D7000002AF5D1606F78B16A498163606F00E035
:101D800015E0FEF7BCFA002809D0606F816B00E017
:101D90002046BDE8F04108472046FFF75FFFBDE859
:101DA000F0812046FFF75AFFC4F88450F7E7D4F8D3
:101DB00060C02027BCF1010F7ED15FEAC06C7BD5EB
:101DC0005FEAC16C78D510201062206880684006F8
:101DD0004FD5616F0A6850680004000C3DD0B4F81C
:101DE0005830834239D9A4F85A0008680068800640
:101DF0002BD4206850E8001F21F4807140E80012C5
:101E0000002AF6D12068083050E8001F21F00101B7
:101E100040E80012002AF5D12068083050E8001F81
:101E200021F0400140E80012002AF5D1C4F880708A
:101E30002566206850E8001F21F0100140E80012DC
:101E4000002AF6D1606FFEF735FA6666B4F85800DE
:101E5000B4F85A10401A81B207E0B4F85810814221
:101E60009DD1106880069AD566662046FFF7F4FE7D
:101E700095E7B4F85800B4F85A10401A81B2B4F893
:101E80005A0000288BD0002989D0226852E8000F20
:101E900020F4907042E80003002BF6D1206808304F
:101EA00050E8002F22F0010240E80023002BF5D17A
:101EB000C4F88070256600E00AE0A566226852E852
:101EC000000F20F0100042E80003002BF6D1CBE712
:101ED000C60209D55B0207D54FF480101062204678
:101EE000BDE8F041FFF7B9BE020606D50A0604D5E3
:101EF000E16E00297FF44CAF51E74006B8D54806A3
:101F0000B6D52046026852E8001F21F0400142E8A1
:101F10000013002BF6D1C767C56600F08BF93EE7CA
:101F200020010004212A000870B5040012D0A06925
:101F300026490028264A274B274D20680CD0884286
:101F400017D0904215D0984213D0A84211D04FF428
:101F5000A9710BE0012070BD88420AD0904208D0E0
:101F6000984206D0A84204D040F257111BA001F0BD
:101F700003F9E06F28B9002084F87800204600F0CB
:101F80004BF82420E0672068016821F0010101601E
:101F9000606A10B1204600F0EDFB204600F038FEEC
:101FA0000128D8D02068416821F490414160206820
:101FB000816821F02A0181602068016841F00101F7
:101FC00001602046BDE8704000F0D6BC00380140FA
:101FD0000044004000480040008000402E2E2F4466
:101FE0007269766572732F53544D33324C3478785E
:101FF0005F48414C5F4472697665722F5372632F5C
:1020000073746D33326C3478785F68616C5F7561BE
:1020100072742E63000000002DE9F0439DB0044669
:10202000142117A8FEF706F95C216846FEF702F9AD
:102030004A4920684A4C0326072700254FF090495B
:102040004FF0020888422AD1012000900895684686
:10205000FEF76CFE08B1FEF72BF9206E40F48040CD
:102060002066206E00F480401C90E06C40F001007F
:10207000E064E06C19AA00F001001C904FF4C0600D
:10208000CDE9170882E8E00017A94846FEF75EF997
:10209000002211462520FEF755FD25202BE0314971
:1020A00088422DD16846CDF800800995FEF73EFEA6
:1020B00008B1FEF7FDF8A06D40F40030A065A06DFA
:1020C00000F400301C90E06C40F00100E064E06C33
:1020D00019AA00F001001C900C20CDE9170882E835
:1020E000E00017A94846FEF731F9002211462620E4
:1020F000FEF728FD2620FEF7F3FC1DB0BDE8F083B7
:1021000019498842F9D104200A9500906846FEF7E3
:102110000DFE08B1FEF7CCF8A06D40F48020A0655C
:10212000A06D00F480201C90E06C40F00400E0649E
:10213000E06C19AA00F004001C903020CDE91708CB
:1021400082E8E00017A90948FEF700F900221146CD
:102150002720FEF7F7FC2720CDE7000000380140DC
:1021600000100240004400400048004000080048C1
:1021700030B4D0F88030202B02D0022030BC704721
:10218000A9B1A2B1002303660A4C0368A3420BD095
:102190005B681B0208D5046854E8003F43F0806385
:1021A00044E80035002DF6D130BC00F0BFBE012060
:1021B000E4E700000080004010B5142204490548FF
:1021C000FFF7D6FFBDE810401421014800F088BA9F
:1021D0000000002088010020C36F202B01D00220C6
:1021E000704781B17AB1C164A0F85020A0F85220A4
:1021F0000021C166C0F884102121C1678168B1F552
:10220000805F02D003E001207047016961B1074996
:10221000C166026852E8001F41F0800142E80013E5
:10222000002BF6D1002070470149F1E73530000856
:10223000E52F00087047FEE7F0B587B01421684627
:10224000FDF7F8FF3848C16C41F00401C164C16C6E
:1022500001F004010591C16C41F08001C164C16CC1
:1022600001F080010591C16C41F00101C164C16CB4
:1022700001F001010591C16C41F00201C164C16C22
:1022800001F002010591C16C41F00801C164C06C0C
:10229000264F00F008000590012207213846FEF77E
:1022A000ABF94FF40050002401268DE85100694637
:1022B0003846FEF74BF84DF6C8700325CDE900050A
:1022C000694602943846FEF741F80720CDE900063A
:1022D000CDE9026469463846FEF738F849F6F3104E
:1022E000CDE90005694602944FF09040FEF72EF8C4
:1022F0004FF63F70CDE90005694602940C48FEF7A1
:1023000025F80420CDE90005694602940948FEF746
:102310001DF80820CDE90005694602940648FEF73D
:1023200015F807B0F0BD000000100240000800489A
:1023300000040048000C0048001C0048134810B579
:10234000114901601249416000210122C0E90212D5
:10235000016141618161C1610162FEF753FA08B117
:10236000FDF7A6FF00210948FEF780F908B1FDF747
:102370009FFF00210548FEF7E1F9002803D0BDE8E2
:102380001040FDF795BF10BD005400402400002010
:10239000EC9C90100D4810B50B4901604FF4E131F1
:1023A0004160002181600C22C160C0E9041281619A
:1023B000C16101624162FFF7B7FD002803D0BDE8AB
:1023C0001040FDF775BF10BD0038014078000020B7
:1023D0000D4810B50B4901604FF4E1314160002117
:1023E00081600C22C160C0E904128161C161016297
:1023F0004162FFF799FD002803D0BDE81040FDF7CA
:1024000057BF10BD00440040000100200D4810B52A
:102410000B4901604FF4E1314160002181600C22E1
:10242000C160C0E904128161C16101624162FFF7CC
:102430007BFD002803D0BDE81040FDF739BF10BD7B
:102440000048004088010020FEE7FEE770470000DA
:102450002DE9F041044600688846002650B1012865
:1024600008D0022806D0032804D040F6623167A0C5
:1024700000F082FE6068401E072804D940F66331F0
:1024800062A000F079FEA06808384E2804D940F612
:1024900064315EA000F070FEA069C10303D4C102E4
:1024A00001D4C10102D56849084204D040F6653123
:1024B00056A000F061FE654DE86880070ED0E86820
:1024C00000F003012068814217D1B0B1E86861686B
:1024D000C0F30210401C88420FD121E0206801287F
:1024E00004D0022805D0032807D108E0296889070D
:1024F00001E029684905002907DB012682E02968F7
:10250000890302D429684903F5E7E96862686FF036
:102510000F0321F0730103EB021211430143E96041
:10252000286820F080602860FEF79AF8074604E0EB
:10253000FEF796F8C01B02285BD828680001F7D484
:10254000B8F1000F26D0B8F1010F34D0606902282D
:102550000AD0042808D0062806D0082804D040F65F
:10256000EE312AA000F008FE207D4FF07E414008A9
:1025700001EB4060A16840EA01202969344A11401A
:1025800008432861286840F080602860FEF768F8FA
:10259000074630E0E068801E1D2804D940F6B831B7
:1025A0001AA000F0E9FDA068217B000240EAC160AA
:1025B0002969284AE3E7206902280AD0042808D0BC
:1025C000062806D0082804D040F6DC310FA000F021
:1025D000D3FD208A2049400801EB4050A16840EA21
:1025E000012029691D4ACAE7FEF73AF8C01B0228F4
:1025F00001D9032606E028680001F5D52869A169FC
:10260000084328613046BDE8F08100002E2E2F449B
:102610007269766572732F53544D33324C34787827
:102620005F48414C5F4472697665722F5372632F25
:1026300073746D33326C3478785F68616C5F726389
:10264000635F65782E630000FFFFEEFE001002401E
:10265000FF80FFF9FF80FF070000E0FFFF809FFF82
:10266000F8B51C4D06460024A86DC00002D5FEF743
:1026700055FB0DE0A86D40F08050A865A86D00F0F6
:1026800080500090FEF74AFBA96D21F08051A965AA
:10269000B0F5007F04D0802E07D94FF003040AE084
:1026A000802E08D9A02E01D804E001D1022402E036
:1026B000702E00D101240848016821F00701214350
:1026C0000160006800F00700A04201D00120F8BDC1
:1026D0000020F8BD001002400020024070470000BA
:1026E0000A4601460148FFF777BD00008801002037
:1026F000FEF7A6B910B596B044216846FDF79AFDDD
:10270000142111A8FDF796FD4FF40070FEF7AAFA08
:1027100008B172B6FEE701210804CDE900100220DD
:1027200003240A90CDE90B4114210D910721CDE935
:102730000E1010906846FEF7E5FE08B172B6FEE78F
:102740000F20CDE91104002013901490159004215E
:1027500011A8FEF73FFD002801D072B6FEE716B0C3
:1027600010BD00000248016841F47001016070472B
:1027700088ED00E070B50446406AFF2804D940F6B1
:102780004D516BA000F0F8FC94F82400000710D520
:10279000606B38B1B0F5004F04D040F6525164A0E0
:1027A00000F0EAFC20684168626B21F400411143AB
:1027B000416094F82400C00710D0A06A38B1B0F589
:1027C000003F04D040F6595159A000F0D5FC2068D4
:1027D0004168A26A21F400311143416094F8240059
:1027E000800710D5E06A38B1B0F5803F04D04FF4CF
:1027F00056614FA000F0C0FC20684168E26A21F4F5
:1028000080311143416094F82400400710D5206BBB
:1028100038B1B0F5802F04D040F6675144A000F0E5
:10282000ABFC20684168226B21F480211143416098
:1028300094F82400C00610D5A06B38B1B0F5805FC5
:1028400004D040F66E513AA000F096FC20688168F2
:10285000A26B21F480511143816094F8240080061A
:1028600010D5E06B38B1B0F5005F04D040F675517B
:102870002FA000F081FC20688168E26B21F40051F8
:102880001143816094F8240040063AD53749206806
:1028900088420AD03649884207D03649884204D057
:1028A00040F67C5122A000F067FC206C4FF48015AC
:1028B00030B1A84204D040F67D511DA000F05CFC70
:1028C00020684168226C21F4801111434160206C22
:1028D000A84216D1606C68B1B0F5001F0AD0B0F5FF
:1028E000800F07D0B0F5C00F04D040F6825110A081
:1028F00000F042FC20684168626C21F4C001114381
:10290000416094F82400000610D5A06C38B1B0F5F1
:10291000002F04D040F68A5105A000F02DFC20685D
:102920004168A26C21F400211143416070BD000098
:102930002E2E2F447269766572732F53544D3332A5
:102940004C3478785F48414C5F4472697665722FE9
:102950005372632F73746D33326C3478785F6861AF
:102960006C5F756172742E630000000000380140D6
:1029700000440040004800402DE9F843002604468A
:10298000C0F88460FDF76CFE8046206800684FF058
:10299000200500076FF07E4712D543460022290428
:1029A0002046009700F06CFB50B1216851E8000F01
:1029B00020F0800041E80002002AF6D1E56721E01E
:1029C00020680068400722D5434600224FF480016A
:1029D0002046009700F054FBC8B1216851E8000F71
:1029E00020F4907041E80002002AF6D120680830F7
:1029F00050E8001F21F0010140E80012002AF5D143
:102A0000C4F8805084F878600320BDE8F883E56757
:102A1000C4F8805044F8606F666026760020F4E7C2
:102A200010B5806A0021A0F85A10A0F85210FFF7E4
:102A300015F910BD016851E8002F22F4907241E8A9
:102A40000023002BF6D10168083151E8002F22F055
:102A5000010241E80023002BF5D1016E012908D1C4
:102A6000026852E8001F21F0100142E80013002B19
:102A7000F6D12021C0F880100021016681667047E0
:102A800010B5B0F85C20D0F880300168222B04D05B
:102A9000088B40F00800088310BD898C436D1140FD
:102AA0001980416D891C4165B0F85A10491EA0F883
:102AB0005A10B0F85A100029EED1016851E8002FE1
:102AC00022F4907241E80023002BF6D1016808310E
:102AD00051E8002F22F0010241E80023002BF5D13C
:102AE0002021C0F88010002181664166154B0268E4
:102AF0009A420BD05268120208D5036853E8002F9F
:102B000022F0806243E80024002CF6D1026E012AF4
:102B100002D0FFF751FB10BD0166026852E8001FAA
:102B200021F0100142E80013002BF6D10168CA69B8
:102B3000D243D20601D410220A62B0F85810FFF72F
:102B40008BF810BD0080004010B5B0F85C20D0F8C4
:102B500080300168222B04D0088B40F008000883E5
:102B600010BD898C1140426D1170416D491C416549
:102B7000B0F85A10491EA0F85A10B0F85A1000299F
:102B8000EED1026852E8001F21F4907142E8001370
:102B9000002BF6D10168083151E8002F22F0010224
:102BA00041E80023002BF5D12021C0F8801000213E
:102BB00081664166154B02689A420BD05268120238
:102BC00008D5036853E8002F22F0806243E8002410
:102BD000002CF6D1026E012A02D0FFF7EDFA10BDEB
:102BE0000166026852E8001F21F0100142E800135C
:102BF000002BF6D10168CA69D243D20601D4102253
:102C00000A62B0F85810FFF727F810BD00800040A6
:102C10002DE9F04704464068AC490026884204D3B9
:102C200040F65841AAA000F0A7FAA0684FF48055DA
:102C3000B0F1805F07D030B1A84204D040F65941CE
:102C4000A3A000F099FADFF8C48220684FF4005185
:102C50004045E0684FF4006906D100281AD0884248
:102C600018D040F65C4112E0A8420AD048B1B0F555
:102C7000405F06D0884204D04FF4466194A000F033
:102C80007BFA206A30B1484504D040F6614190A0FB
:102C900000F072FA20694FF4806748B1B84207D05B
:102CA000B0F5C06F04D040F6644189A000F064FA2A
:102CB000606930F00C0100D120B940F6654184A074
:102CC00000F05AFAA06968B1B0F5807F0AD0B0F57B
:102CD000007F07D0B0F5407F04D040F666417CA06D
:102CE00000F04AFAE0694FF4004530B1A84204D040
:102CF00040F6674176A000F03FFA2169A068E269DA
:102D0000084361691143084321680A68804B1A40EF
:102D100002430A6020684168E26821F4405111438F
:102D200041602168A069414501D0226A10438A6848
:102D300022F4306202438A607649226876488A42E9
:102D40000DD1D0F8880010F0030006D0012841D042
:102D5000022831D003282ED13EE001202CE06F491B
:102D60008A420BD1D0F8880010F00C0024D004283F
:102D700022D008282CD00C281DD12DE068498A4289
:102D80000BD1D0F8880010F0300015D0102821D0D9
:102D900020281DD030280ED11EE042450BD1D0F89E
:102DA000880010F4406007D0B84213D048450FD0D7
:102DB000B0F5406F10D010205A49002742452FD15E
:102DC00060B102280DD004280DD0082874D125E068
:102DD0000220F1E70420EFE70820EDE7FEF71CFBF7
:102DE00003E0084602E0FEF73BFB78B3626802EBC3
:102DF0004201814260D8B0EB023F5DD8010E030270
:102E00005008181879410023FDF7DCF9464AA0F56F
:102E10004071914250D82168C8604EE02846E5E7ED
:102E2000E2694FF6EF78AA4229D1092844D2DFE8B7
:102E300000F005080B430E4343432400FEF7ECFA71
:102E400007E0FEF7FBFA04E0084603E035E0FEF792
:102E500007FB90B34100606801EB5001B1FBF0F05B
:102E6000A0F11001414527D84FF6F0710140C0F3A1
:102E7000420001432068C1601FE02846EAE70928B4
:102E80001AD2DFE800F005080B190D1919191F00F7
:102E9000FEF7C2FA06E0FEF7D1FA03E0084602E0C8
:102EA000FEF7DEFA48B1616800EB5100B0FBF1F0CB
:102EB000A0F11001414507D90126A7663046E76613
:102EC000BDE8F0872846EEE780B2A4E78196980037
:102ED0002E2E2F447269766572732F53544D333200
:102EE0004C3478785F48414C5F4472697665722F44
:102EF0005372632F73746D33326C3478785F68610A
:102F00006C5F756172742E630000000000800040E9
:102F1000F369FFEF00380140001002400044004018
:102F2000004800400024F400FFFC0F0030B541656C
:102F3000A0F85820A0F85A200022826681684FF439
:102F40008055FF23A94204D1016969BB40F2FF11FA
:102F500030E07F2431B3B1F1805F28D0A0F85C204D
:102F6000C0F884202221C0F880100168083151E89F
:102F7000002F42F0010241E80023002BF5D18168C7
:102F8000A94201D10169D9B1144981660169C9B168
:102F9000016851E8002F42F4907241E80023002BB1
:102FA000F6D118E0016941B9A0F85C30D8E70169B1
:102FB00019B13F21A0F85C10D2E7A0F85C40CFE740
:102FC00007498166026852E8001F41F0200142E88B
:102FD0000013002BF6D1002030BD0000492B000863
:102FE000812A0008C16F212910D1B0F8521071B1A7
:102FF000C16C02680988C1F308011185C16C891C84
:10300000C164B0F85210491EA0F85210704702680F
:1030100052E8001F21F0800142E80013002BF6D196
:10302000026852E8001F41F0400142E80013002B03
:10303000F6D17047C16F21290ED1B0F8521061B19D
:10304000C16C026809781185C16C491CC164B0F873
:103050005210491EA0F852107047016851E8002F25
:1030600022F0800241E80023002BF6D1026852E8EA
:10307000001F41F0400142E80013002BF6D17047D9
:103080002DE9F047994617460D4604464FF00008D3
:10309000089E33E0701C31D0FDF7E2FAA0EB090086
:1030A000B04218D8BEB120680168490726D5802DE6
:1030B00024D0402D22D0C169C94309070DD4082569
:1030C00005622046FFF7B6FCC4F8845084F8788087
:1030D0000120BDE8F0870320FBE7C069C04300057D
:1030E0000CD421684FF4006008622046FFF7A2FC70
:1030F0002020C4F8840084F87880ECE72068C06958
:1031000035EA000004D00020B842C3D00020E0E738
:103110000120F9E70148FEF7A3BD00007800002078
:103120000148FEF79DBD0000000100200148FEF7A8
:1031300097BD000088010020FEE70907090E00285E
:1031400004DB00F1E02080F80014704700F00F006D
:1031500000F1E02080F8141D704702E008C8121F3B
:1031600008C1002AFAD170477047002001E001C170
:10317000121F002AFBD1704770470000FDF768FC62
:10318000FFF7B8FAFFF758F8FFF704F9FFF720F94F
:10319000FFF73CF9FFF7D2F8142202490248FEF784
:1031A000E7FFFEE70000002088010020000000008B
:1031B000000000000102030406070809A0860100C0
:1031C000400D0300801A060000350C0040420F003D
:1031D00080841E0000093D0000127A000024F400E3
:1031E00000366E010048E801006CDC0200000000BF
:1031F0000102030414320008000000202400000033
:103200005A3100083832000824000020EC05000084
:103210006A31000831323331320000000000000012
:10322000000000000000000001000000100000008D
:083230000000000000093D0050
:040000050800018D61
:00000001FF
