:020000040800F2
:10000000D8060020A101000847450008BF3D0008B0
:10001000454500081104000839530008000000009D
:10002000000000000000000000000000D9470008A8
:100030001304000800000000494500089D4800081E
:10004000BB010008BB010008BB010008BB010008A0
:10005000BB010008BB010008BB010008BB01000890
:10006000BB010008BB010008BB010008BB01000880
:10007000BB010008BB010008BB010008BB01000870
:10008000BB010008BB010008BB010008BB01000860
:10009000BB010008BB010008BB010008BB01000850
:1000A000BB010008BB010008BB010008BB01000840
:1000B000214900080000000000000000BB0100080A
:1000C000BB010008BB010008BB010008BB01000820
:1000D000BB01000815530008215300082D530008E8
:1000E000BB010008BB010008000000000000000088
:1000F0000000000000000000000000000000000000
:1001000000000000BB01000800000000BB01000867
:100110000000000000000000BB010008BB01000857
:10012000BB010008BB010008BB010008BB010008BF
:10013000BB010008000000000000000000000000FB
:10014000BB010008BB010008BB0100080000000063
:10015000BB010008BB010008BB010008BB0100088F
:10016000BB010008BB010008BB0100080000000043
:10017000BB010008BB0100080000000000000000F7
:10018000BB010008BB010008BB010008DFF80CD070
:1001900000F07AF8004800477D530008D806002098
:1001A0000648804706480047FEE7FEE7FEE7FEE711
:1001B000FEE7FEE7FEE7FEE7FEE7FEE7114900087F
:1001C0008D0100082DE9F05F0546002092469B4610
:1001D00088460646814640241BE02846414647465D
:1001E000224600F041F853465A46C01A914110D3B6
:1001F00011461846224600F028F82D1A67EB010830
:100200004F4622460120002100F01FF817EB00099D
:100210004E41201EA4F10104DFDC484631462A4647
:100220004346BDE8F09FD2B201E000F8012B491E21
:10023000FBD270470022F6E710B513460A46044683
:100240001946FFF7F0FF204610BD202A04DB203AB4
:1002500000FA02F1002070479140C2F1200320FA19
:1002600003F3194390407047202A04DB203A21FA17
:1002700002F00021704721FA02F3D040C2F12002BF
:100280009140084319467047064C074D06E0E06868
:1002900040F0010394E8070098471034AC42F6D3CD
:1002A000FFF778FF1C5400083C54000870B5044662
:1002B000006881688268C1F3400112F0010F28D004
:1002C00039BB816801F00D01012914D18168124AFE
:1002D0001140891C816021680320086001F01CFA2C
:1002E000054612E001F018FA401B02280DD92068DB
:1002F0008068C00709D0606D40F010006065A06D97
:1003000040F00100A065012070BD20688068C00732
:10031000E8D1002070BD0000C0FFFF7FF8B50446A3
:10032000002000902068816811F0010F41D18168A0
:10033000214A11422ED18168D5432940491C816050
:100340001E48806800F0E07000020DD51C481D4971
:100350000068B0FBF1F0401C00EB4000800000E0C2
:10036000401E00900028FBD101F0D6F906461BE0A4
:10037000816811F0010F03D181682940491C816017
:1003800001F0CAF9801B02280ED920680068C0431A
:10039000C00709D0606D40F010006065A06D40F0AE
:1003A0000100A0650120F8BD20680168C943C907A4
:1003B000DED10020F8BD00003F00008000030450A3
:1003C0000C000020400D030001B582B04FF4807096
:1003D0000090012302AA4621014801F0DFFB0EBD77
:1003E0009C00002010B50120FFF7EEFF1020FFF762
:1003F000EBFFBDE810404720FFF7E6BF08B500203F
:100400000090684600F008F8BDF8000040BA08BD4A
:10041000FEE7704772B6FEE738B50446FFF7E2FF25
:100420004FF480700090022322464621014801F0DB
:1004300023FB38BD9C00002010B5064800F0EAFE02
:100440000121044800F068FE024800F0ADFB80B2D4
:1004500010BD000038000020F8B500260D46044607
:10046000009600682849884203D07D2127A004F027
:1004700083FF7F2D06D03448854203D07E2123A000
:1004800004F07AFF94F8500001280BD0012084F882
:1004900050002046FFF70AFF0100606D04D040F0D5
:1004A00010002BE00220F8BD20F4885040F002003C
:1004B000606520688268254B1A4005F080431A4326
:1004C00042F0004282604FF4912320680EE0009ACF
:1004D000521C00929A4209D3606D20F0020040F055
:1004E0001000606584F850600120F8BD8268D20F6A
:1004F000EDD1606D20F0020040F00100606584F8ED
:1005000050600846F8BD0000000004502E2E2F4415
:100510007269766572732F53544D33324C34787848
:100520005F48414C5F4472697665722F5372632F46
:1005300073746D33326C3478785F68616C5F6164BA
:10054000635F65782E63000000007F40C0FFFF3FBF
:100550002DE9F84F4FF000090446CDF800900068EF
:10056000F54E0D46B04204D040F69721F3A004F0BA
:1005700003FF686806282DD00C282BD0122829D01C
:10058000182827D0B0F5807F24D0B0F5837F21D004
:10059000B0F5867F1ED0B0F5897F1BD0B0F58C7F7B
:1005A00018D0B0F5007F15D0A0F50071063911D034
:1005B000B0F5037F0ED00C390CD0B0F5067F09D012
:1005C000B0F5407F06D0F43904D040F69821DBA086
:1005D00004F0D2FEA86890B1012810D002280ED0F5
:1005E00003280CD004280AD0052808D0062806D0F5
:1005F000072804D040F69921D0A004F0BDFEE86899
:10060000DC4F7F2806D0B84204D040F69A21CBA018
:1006100004F0B2FE286904280BD050B1012808D09C
:10062000022806D0032804D040F69B21C3A004F082
:10063000A3FE2068C06800F01800810840F6FF7033
:10064000C8406969884204D240F69C21BBA004F0EE
:1006500093FE2869042808D094F83800012804D1B2
:100660004FF42A61B5A004F087FEC349B846E86894
:100670004A00C24BC24FDFF80CC3DFF80CA3DFF80F
:100680000CB3DFF80CE3404544D02068B0423ED1C3
:100690002868884269D0904267D0984265D0B842B5
:1006A00063D0604561D050455FD058455DD07045FE
:1006B0005BD0B849884258D0B749884255D0B7492D
:1006C000884252D0B64988424FD0B64988424CD071
:1006D000B549884249D0B549884246D0B449884294
:1006E00043D0B449884240D0B34988423DD06FF0EE
:1006F0000041C84239D0B149884236D0B049884219
:1007000033D0B049884230D0AF4988422DD040F62E
:10071000A52127E02868884227D0904225D098421A
:1007200023D0B84221D060451FD050451DD0584538
:100730001BD0704519D09749884216D096498842F7
:1007400013D09649884210D0954988420DD09549DA
:1007500088420AD09449884207D09449884204D0FC
:1007600040F6A92175A004F007FE94F85000012876
:1007700011D0012784F85070206803F019FD60B192
:10078000606D40F020006065B946002084F850009C
:100790004846BDE8F88F0220FBE7D5E900210C238D
:1007A000206803EA91131844036B01F01F014FF016
:1007B0001F0C0CFA01FCC2F3846223EA0C038A408A
:1007C00013430363206803F0F3FC8246206803F0C0
:1007D000EBFC5AEA00001DD1AA682968206803F0E2
:1007E000F3FC20686969C268C2F3C10252009140FB
:1007F0002A69042A0FD000EB82002B68026EDFF812
:10080000CCC103F0F84302EA0C020B431A4342F056
:100810000041016672E0002103F0C0FC4003206843
:100820004FF0000172D003F0B9FC90FAA0F0B0FADA
:1008300080F1286842036ED090FAA0F0B0FA80F000
:10084000814204D100221146206803F0CCFC012132
:10085000206803F0A3FC400320684FF001015DD045
:1008600003F09CFC90FAA0F0B0FA80F128684203F3
:1008700059D090FAA0F0B0FA80F0814204D1002261
:100880000121206803F0AFFC0221206803F086FC00
:10089000400320684FF0020148D003F07FFC90FA3B
:1008A000A0F0B0FA80F12868420344D090FAA0F09A
:1008B000B0FA80F0814204D100220221206803F0C6
:1008C00092FC0321206803F069FC400320684FF08C
:1008D00003017DD003F062FC90FAA0F0B0FA80F141
:1008E000286842037ED090FAA0F0B0FA80F08142EE
:1008F00004D100220321206803F075FC2068816880
:1009000011F0010F72D0FBE000E004E003F046FCC0
:10091000C0F384618DE7C0F3846091E703F03EFC8F
:10092000C0F38461A2E7C0F38460A6E703F036FC5D
:10093000C0F38461B7E74DE0000004502E2E2F4431
:100940007269766572732F53544D33324C34787814
:100950005F48414C5F4472697665722F5372632F12
:1009600073746D33326C3478785F68616C5F616486
:10097000632E630000007F40020030040800900CEA
:100980001000C0102000F014400020198000501DFD
:10099000000180210002B0250004002A0008302E4A
:1009A00000106032002090360040C03A0080F03ED7
:1009B00000002143000052470000844B000052C752
:1009C000000084CB00005AC700008CCB00F0FF036E
:1009D00003E007E0C0F384606CE703F0DFFBC0F3E3
:1009E00084617DE7C0F3846081E7FFE72A7B2968A3
:1009F00050F8B03FC1F3120C23EA0C0302F0180CBC
:100A0000614A22FA0CF20A4013430360E968414547
:100A100076D1286841031BD090FAA0F1B1FA81F198
:100A2000491C01F01F0109294FEA403131D8002942
:100A300011D090FAA0F1B1FA81F100BF01F10101EA
:100A400001F01F0107FA01F708D1C0F3846109E042
:100A5000C0F38461E4E7C0F38461EFE790FAA0F1AA
:100A6000B1FA81F101F1010101F01F0147EA816151
:100A700002D1C0F3846003E090FAA0F0B0FA80F0F5
:100A800000F1010000F01F0000EB400041EA0051BE
:100A900032E000290ED090FAA0F1B1FA81F100BF46
:100AA00001F1010101F01F0107FA01F705D1C0F3BF
:100AB000846106E0C0F38461F2E790FAA0F1B1FA34
:100AC00081F101F1010101F01F0147EA816102D1C9
:100AD000C0F3846003E090FAA0F0B0FA80F000F177
:100AE000010000F01F00294A00EB400002EB00501B
:100AF00041EA000141F00071AA68206803F064FB3C
:100B000023482A6802423FF440AE22488168224BC3
:100B100001F0E0719A421BD10B0219D42268B24253
:100B20007FF433AE826841F4000122F0E0720A43A0
:100B300082601A481A490068B0FBF1F0401C00EBD3
:100B40004000800000E0401E00900028FBD11CE621
:100B5000144B9A4207D1CB0105D42268B242F6D198
:100B600041F080710AE06FF00043DA42EFD14A02AF
:100B7000EDD42268B242EAD141F48001826822F0C9
:100B8000E0720A43826000E6FFFF0700000020FEDB
:100B90000000088000030450000052C70C00002031
:100BA000400D0300000084CB10B5044600680549E1
:100BB000884204D040F6A90103A004F0DDFB2068C0
:100BC000006C10BD000004502E2E2F447269766513
:100BD00072732F53544D33324C3478785F48414C04
:100BE0005F4472697665722F5372632F73746D332D
:100BF000326C3478785F68616C5F6164632E630087
:100C00002DE9F8434FF0000504002E4600957CD0F6
:100C1000FE4F2068B84204D040F29911FCA004F0C5
:100C2000ABFB6068B0F5803F2CD0B0F5003F29D019
:100C3000B0F5403F26D028B3B0F5802F22D0B0F5D4
:100C4000002F1FD0B0F5402F1CD0B0F5801F19D059
:100C5000B0F5A01F16D0B0F5C01F13D0B0F5E01F3F
:100C600010D0B0F5001F0DD0B0F5101F0AD0B0F5B0
:100C7000201F07D0B0F5301F04D04FF4CD71E4A091
:100C800004F07AFBA06850B1082808D0102806D0DC
:100C9000182804D040F29B11DDA004F06DFBE06841
:100CA00030B1202804D040F29F11D9A004F064FB99
:100CB000206930B1012804D04FF4D071D4A004F0E1
:100CC0005BFB607E30B1012804D040F2A111D0A0BE
:100CD00004F052FBE06A4FF4806860B140450AD0EE
:100CE000B0F5006F07D0B0F5406F04D04FF4D1716C
:100CF000C7A004F041FBA06A404534D0B0F5886F2E
:100D000031D0B0F5906F2ED000E077E0B0F5986F5D
:100D100029D0B0F5A06F26D0B0F5A86F23D0B0F5DC
:100D2000B06F20D0B0F5B86F1DD0B0F5C06F1AD03D
:100D3000B0F5C86F17D0B0F5D06F14D0B0F5D86F3C
:100D400011D0B0F5E06F0ED0B0F5E86F0BD0B0F574
:100D5000F06F08D0B0F5F86F05D020B140F2A311C4
:100D6000ABA004F009FB94F8300030B1012804D0A6
:100D70004FF4D271A6A004F0FFFA6069042806D0EF
:100D8000082804D040F2A511A1A004F0F5FA606B88
:100D900038B1B0F5805F04D04FF4D3719CA004F05B
:100DA000EBFA207E30B1012804D040F2A71198A0C0
:100DB00004F0E2FA94F8380030B1012804D04FF47E
:100DC000D47193A004F0D8FA206918B3E069401EEA
:100DD0000F2804D94FF4D6718DA004F0CDFA94F801
:100DE000200018B301280CD040F2AD1188A004F007
:100DF000C3FA94F82000012803D017E00120BDE8D1
:100E0000F883606A401E072808D940F2B11180A01B
:100E100004F0B2FA94F82000012807D1607E01287E
:100E200004D14FF4DB717AA004F0A6FA606D28B902
:100E3000204600F027F9A66584F850602068816894
:100E4000C1F3407119B181687F4A11408160206807
:100E50008168C1F3007189B981687C4A114041F011
:100E6000805181607A487B490068B0FBF1F0400016
:100E7000801C00E0401E00900028FBD120688168A3
:100E8000C1F3007141B9616D41F010016165A16D5F
:100E900041F00101A165012503F08AF90646606D64
:100EA00000F01001606D314305D040F01000606526
:100EB00001252846A3E720F4807040F00200606519
:100EC0002068806810F0010F0AD1B86810F0010F97
:100ED00006D1614960688A6822F47C1202438A6004
:100EE000E168606B627E0843A16841EA42310843D1
:100EF00094F8201040EA0140012904D1A18C574AFE
:100F000002EB41410843A16A29B101F47071E26A20
:100F1000014342EA01002268D168514B1940014364
:100F2000D160206803F040F9064315D1207E94F883
:100F30003010800340EA41022068C16844F2020395
:100F400099431143C16094F8380001280CD02068FF
:100F5000016921F001010161206901282068016B0C
:100F600021F00F0151D084E0E06B90B1042810D043
:100F700008280ED00C280CD010280AD0142808D02D
:100F8000182806D01C2804D040F2662120A004F0C6
:100F9000F3F9206CA8B1202813D0402811D0602884
:100FA0000FD080280DD0A0280BD0C02809D0E02871
:100FB00007D0B0F5807F04D040F2672114A004F080
:100FC000DBF9606C38B1B0F5007F04D04FF41A71D2
:100FD0000FA004F0D1F9A06C012808D0A0F5806121
:100FE000013904D040F2692109A004F0C5F9D4E91F
:100FF0000F010843D4E911121143084321680A691B
:1010000040F2FC739A4310432CE02FE000000450A0
:101010002E2E2F447269766572732F53544D3332DE
:101020004C3478785F48414C5F4472697665722F22
:101030005372632F73746D33326C3478785F6861E8
:101040006C5F6164632E6300C0FFFF5FC0FFFF7FC2
:101050000C000020400D0300000304500000FEFFC0
:1010600007C0F0FF40F00100086175E7E269521E19
:1010700011430163606D20F0020040F001006065E3
:1010800017E7000010B59EB00446142117A8FFF71B
:10109000D1F85C216846FFF7CDF81C4920688842EA
:1010A00031D14FF4804000908003149003200190D0
:1010B00001200824CDE902040720049002200590B5
:1010C0000690C0050790684600F0C4FF08B1FFF71E
:1010D000A1F90F48C16C41F40051C164C16C01F425
:1010E00000511C91C16C41F00401C164C06C17A98E
:1010F00000F004001C900B20CDE91740002019904F
:10110000044800F04FF91EB010BD0000000004506C
:1011100000100240000800482DE9F0410E46044648
:1011200000682D49884204D040F27B512BA004F086
:1011300023F9606908280AD02068C068C00708D071
:10114000606D40F0200060650120BDE8F081082559
:1011500000E0042500F0E0FA074614E0701C12D00D
:1011600000F0DAFAC01BB04200D866B92068006807
:10117000284208D1606D40F004006065002084F8CA
:1011800050000320E1E7206800682842E6D0606D47
:1011900040F400706065206803F00EF880B1607E56
:1011A00070B92068006800070AD5606D20F480706F
:1011B0006065606DC00403D4606D40F0010060653F
:1011C0002068C168082D05D0490401D40C210160B4
:1011D0000020BAE70821FAE7000004502E2E2F4421
:1011E0007269766572732F53544D33324C3478786C
:1011F0005F48414C5F4472697665722F5372632F6A
:1012000073746D33326C3478785F68616C5F6164DD
:10121000632E630010B5044600682349884204D059
:1012200040F2BC4121A004F0A7F8206802F0C0FF02
:1012300010B10221084610BD94F8500001280CD0CE
:10124000012084F850002046FFF768F801004FF0B5
:10125000000004D084F85000ECE7022010BD626D5D
:1012600040F601639A4342F480726265626DD20473
:1012700004D5A26D22F00602A26500E0A0652368F5
:101280001C221A6084F850002068C268920105D5BB
:10129000626D22F4005242F4805262658268114B02
:1012A0001A40121D8260C5E7000004502E2E2F4404
:1012B0007269766572732F53544D33324C3478789B
:1012C0005F48414C5F4472697665722F5372632F99
:1012D00073746D33326C3478785F68616C5F61640D
:1012E000632E6300C0FFFF7F10B590F82510002229
:1012F000022905D00421C16380F82420012010BDFB
:1013000001680B6823F00E030B6001680B6823F083
:1013100001030B6090F84410046C01F01C030121E0
:1013200001FA03F3636080F8251080F8242010464A
:1013300010BD10B590F825100024022903D0042117
:10134000C16301241AE001680A6822F00E020A60F3
:1013500001680A6822F001020A6090F84410036CE8
:1013600001F01C02012101FA02F25A6080F82510F6
:10137000002180F82410816B01B18847204610BD00
:1013800070B5044600F0C8F90546601C02D0044858
:101390000078044400F0C0F9401BA042FAD370BDAD
:1013A000000000202DE9F84F00274FF0904ADFF8A9
:1013B0004482DFF844B20D460446504510D04445FF
:1013C0000ED05C450CD08D48844209D08C488442B4
:1013D00006D08C48844203D0AA218BA003F0CCFF16
:1013E00028680104090C01D0000C03D0AB2186A0B1
:1013F00003F0C2FF68684FF00309002821D00128DC
:10140000FCD01128FAD00228F8D01228F6D0B0F576
:10141000881FF3D0B0F5041FF0D0B0F5441FEDD015
:10142000B0F5901FEAD0B0F5081FE7D0B0F5481F1F
:10143000E4D00328E2D00B28E0D0AC2172A003F066
:101440009BFFCFE00121B9400840009106007DD00C
:10145000287900F00300012801D002281DD1E86896
:1014600048B1012807D0022805D0032803D0BB21AA
:1014700065A003F081FFA0687A0009FA02F18843B1
:10148000E96891400143A160606800998843297927
:10149000C1F30011B940014361602879C04380075E
:1014A00012D0A86838B1012805D0022803D0DC2169
:1014B00055A003F061FFE0687A0009FA02F1884361
:1014C000A96891400143E160287900F003000228F7
:1014D00026D1544510D044450ED05C450CD0474829
:1014E000844209D04648844206D04648844203D00C
:1014F000E82145A003F040FF28690F2803D9E9211E
:1015000041A003F039FFF80804EB8003186A79075B
:10151000CA0E0F2191408843296991400143196205
:1015200021687A0009FA02F08143287900F003006B
:10153000904008432060686810F4403F51D0414813
:10154000016E41F001010166006E00E049E000F02B
:10155000010000903C4827F003010A189168B80781
:10156000030F0F2098408143544501D1002012E021
:10157000444501D101200EE05C4501D102200AE082
:101580001E48844201D1032005E01D48844201D158
:10159000042000E007209840084390602B49086829
:1015A0006A68B043D20200D5304308602749091D5C
:1015B00008686A68B043920200D530430860234946
:1015C000091F08686A68B043920300D53043086079
:1015D0001E49083908686A68B043D20300D5304311
:1015E00008607F1C2E683046FE407FF42BAFBDE8BC
:1015F000F88F00000004004800080048000C004874
:1016000000100048001C00482E2E2F447269766599
:1016100072732F53544D33324C3478785F48414CB9
:101620005F4472697665722F5372632F73746D33E2
:10163000326C3478785F68616C5F6770696F2E63B5
:1016400000000000001002400000014008040140BA
:1016500070B50C00054604D14FF4E37105A003F00A
:101660008BFE696924EA0100214040EA0140A8613B
:1016700070BD00002E2E2F447269766572732F5351
:10168000544D33324C3478785F48414C5F44726932
:101690007665722F5372632F73746D33326C3478A6
:1016A000785F68616C5F6770696F2E63000000008F
:1016B00070B515460C00064604D14FF4D77107A04B
:1016C00003F05AFE45B1012D04D040F2AF1103A042
:1016D00003F052FEB46170BDB46270BD2E2E2F4473
:1016E0007269766572732F53544D33324C34787867
:1016F0005F48414C5F4472697665722F5372632F65
:1017000073746D33326C3478785F68616C5F6770C6
:10171000696F2E6300000000014880687047000078
:101720000000002070B50D46044600681F4988423D
:1017300009D01F49884206D01E49884203D0632140
:101740001DA003F019FE35B1B5F5805F03D064210B
:1017500019A003F011FE94F84100202823D194F839
:10176000400001281FD0012084F84000242084F884
:1017700041002068016821F00101016020680168D2
:1017800021F48051016020680168294301602068CC
:10179000016841F001010160202084F8410000202F
:1017A00084F8400070BD022070BD0000005400406D
:1017B00000580040005C00402E2E2F447269766570
:1017C00072732F53544D33324C3478785F48414C08
:1017D0005F4472697665722F5372632F73746D3331
:1017E000326C3478785F68616C5F6932635F65780A
:1017F0002E63000070B50D46044600681D498842FE
:1018000009D01D49884206D01C49884203D0912145
:101810001BA003F0B1FD0F2D03D9922118A003F0F6
:10182000ABFD94F84100202821D194F84000012814
:101830001DD0012084F84000242084F84100206855
:10184000016821F0010101602068016821F47061E4
:1018500041EA052101602068016841F00101016051
:10186000202084F84100002084F8400070BD022050
:1018700070BD00000054004000580040005C004073
:101880002E2E2F447269766572732F53544D333266
:101890004C3478785F48414C5F4472697665722FAA
:1018A0005372632F73746D33326C3478785F686170
:1018B0006C5F6932635F65782E63000070B5040069
:1018C00061D05B49206888420AD05A49884207D0D3
:1018D0005949884204D04FF4087158A003F04CFDD8
:1018E000A068B0F5806F04D340F2212153A003F02B
:1018F00043FDE068012806D0022804D040F22221EE
:101900004EA003F039FD206938B1B0F5004F04D086
:1019100040F2232149A003F02FFD6069FF2804D97C
:101920004FF4097145A003F027FDA06990B101288B
:1019300010D002280ED003280CD004280AD0052885
:1019400008D0062806D0072804D040F225213BA065
:1019500003F012FDE06938B1B0F5002F04D040F279
:10196000262136A003F008FD206A38B1B0F5003F0B
:1019700004D040F2272131A003F0FEFC94F841008E
:10198000002510B106E0012070BD84F840502046CB
:1019900000F0AAF9242084F841002068016821F0B1
:1019A000010101606068216820F0706008612068B2
:1019B000816821F400418160E0680128A06830D08E
:1019C00040F4044021688860E0680228206841688B
:1019D0002AD021F40061416020684168254A114302
:1019E00041602068C16821F40041C160D4E904016C
:1019F0000843A16940EA01202168C860D4E90701D1
:101A00000843216808602068016841F00101016015
:101A10006564202084F84100256384F8425000204A
:101A200070BD40F40040CDE741F40061D3E7000011
:101A30000054004000580040005C00402E2E2F440F
:101A40007269766572732F53544D33324C34787803
:101A50005F48414C5F4472697665722F5372632F01
:101A600073746D33326C3478785F68616C5F69329F
:101A7000632E6300008000022DE9F84F044690F8C1
:101A80004100DDF828A0984691468B4620287ED15B
:101A900094F8400001287AD0012784F84070FFF7BD
:101AA0003BFE0646012200901923D103204602F096
:101AB0008DFAE0BB222084F84100102084F8420017
:101AC00000256564C4F82490A4F82A806563618DBC
:101AD00030484FF080784FF00079FF2903D92785EF
:101AE0003A46009039E0618D218500903AE05946F0
:101AF000204602F0FBF913E002F0A6FAB8B920681C
:101B0000406A616A0870606A401C6062208D401EF5
:101B100080B22085618D491E6185618D01B168B1FA
:101B2000608D3246002851462046E5D100E002E0B3
:101B300002F0DCFAD0B10120BDE8F88F5346002254
:101B400080212046009602F041FA0028F3D1608DF2
:101B5000FF2804D9FF22228500954346C7E7608D00
:101B60002085009594F828204B46C0E72168202066
:101B7000C86121684A68084B1A404A6084F84100ED
:101B800084F8425084F840500020D5E7FFE7022057
:101B9000D2E700000024008000E800FE2DE9FF4F9E
:101BA00081B0044690F84100DDF838B01F469046F9
:101BB00020287BD194F84000012877D0012084F8B8
:101BC0004000FFF7A9FD0646012200901923D1032A
:101BD000204602F0FBF9002853D1212084F841006F
:101BE000102084F8420000256564C4F824806785CD
:101BF0006563608D3A49FF274FF080794FF0007A96
:101C0000FF2802D927854B4605E0608D208500041A
:101C10005346000C10D0226898F800009062606A69
:101C2000401C6062608D401E6085208D401E2085B6
:101C3000401CC2B2009101E00022009120460299AE
:101C400002F054F914E000BF02F07BFAC8B9606AF0
:101C5000216800788862606A401C6062608D401E66
:101C60006085208D401E80B22085618D01B160B1FC
:101C7000608D3246002859462046E5D102F036FAFA
:101C8000E0B1012005B0BDE8F08F5B460022802165
:101C90002046009602F09AF90028F2D1608DFF28C4
:101CA00005D927853A464B460095C7E716E0608D73
:101CB0002085009594F828205346BFE7216820200E
:101CC000C86121684A68074B1A404A6084F841009D
:101CD00084F8425084F840500020D3E70220D1E736
:101CE0000020008000E800FE30B59DB004461421BD
:101CF00017A8FEF79FFA5C216846FEF79BFA174982
:101D00002068884227D14020002500900C95684625
:101D100000F0A0F908B1FEF77DFB114CE06C40F03B
:101D20000200E064E06C17A900F002001C90C020E3
:101D300017901220CDE9180503201A9004201B905B
:101D40000848FFF72FFBA06D40F40010A065A06DC0
:101D500000F400101C901DB030BD00000054004085
:101D600000100240000400480248816802781144D3
:101D7000816070470000002010B50024032000F0AF
:101D8000C5F80F2000F008F808B1012401E000F0C8
:101D900025F8204610BD000070B50E4E0546002403
:101DA000307898B14FF47A71B1FBF0F00A490968C4
:101DB000B1FBF0F001F0D0F840B9102D06D20022AE
:101DC0002946501E00F052F8756000E001242046BC
:101DD00070BD0000000000200C000020094808B57C
:101DE000016E41F001010166016E01F001010091F7
:101DF000816D41F080518165806D00F080500090D0
:101E000008BD00000010024010B5040003D5D22127
:101E100007A003F0B1FA002C09DB04F01F01012038
:101E200088406109890001F1E021C1F8000110BD7D
:101E30002E2E2F447269766572732F53544D3332B0
:101E40004C3478785F48414C5F4472697665722FF4
:101E50005372632F73746D33326C3478785F6861BA
:101E60006C5F636F727465782E63000070B5154601
:101E70000C460646102A03D3BE2114A003F07CFAB8
:101E8000102C03D3BF2111A003F076FA1E4800687E
:101E9000C0F30223C3F107022046042A00D904221A
:101EA000191D072901D2002300E0DB1E012404FADA
:101EB00002F1491E014099409C40641E2C40214380
:101EC0003046BDE8704003F038BA00002E2E2F4493
:101ED0007269766572732F53544D33324C3478786F
:101EE0005F48414C5F4472697665722F5372632F6D
:101EF00073746D33326C3478785F68616C5F636FD4
:101F0000727465782E6300000CED00E010B5044695
:101F100007280BD0062C09D0052C07D0042C05D09F
:101F2000032C03D0A62108A003F026FA154904F0DB
:101F3000070208684FF6FF03184040EA0220124AE1
:101F40001043086010BD00002E2E2F447269766584
:101F500072732F53544D33324C3478785F48414C70
:101F60005F4472697665722F5372632F73746D3399
:101F7000326C3478785F68616C5F636F7274657817
:101F80002E6300000CED00E00000FA0510B51B4CBC
:101F9000B0F5007F13D0B0F5806F03D0A72118A053
:101FA00003F0EAF92068C0F34120022805D0206838
:101FB00020F4C06040F480602060002010BD2068E4
:101FC000C0F341200128F8D0206820F4C06040F41C
:101FD0000070206019483221006848431849B0FB5E
:101FE000F1F0401C00E0401E6169490501D5002860
:101FF000F9D160694005E0D5032010BD00700040B4
:102000002E2E2F447269766572732F53544D3332DE
:102010004C3478785F48414C5F4472697665722F22
:102020005372632F73746D33326C3478785F6861E8
:102030006C5F7077725F65782E6300000C00002083
:1020400040420F000248006800F4C0607047000082
:10205000007000402DE9F84F044600270068F3495E
:102060003E46084202D0C943084203D0C921F0A02D
:1020700003F082F92088FD4D000521D5606C4FF4F6
:1020800000084FF4400938B1404505D0484503D019
:10209000D121E7A003F070F9606C50B1404503D046
:1020A00048453BD001270AE0E86840F48030E8600A
:1020B00034E00021201D02F049FA07002ED03E46F0
:1020C000206880034BD5A06D4FF0000868B1B0F5D3
:1020D000807F0AD0B0F5007F07D0B0F5407F04D0F4
:1020E0004FF4A271D2A003F047F9A86DC00009D443
:1020F000A86D40F08050A865A86D4FF0010800F071
:1021000080500090DFF868A3DAF8001041F4807185
:10211000CAF80010FFF700FB814611E0D5F88800EF
:10212000616C20F440000843C5F88800C8E700BF90
:10213000FFF7F2FAA0EB0900022801D9032705E016
:10214000DAF80000C005F3D5002F7DD04FEA07066E
:10215000B8F1000F03D0A86D20F08050A86520785A
:10216000C00714D0206A50B1012808D0032806D037
:10217000022804D040F29911ADA003F0FDF8D5F883
:102180008800216A20F003000843C5F88800207801
:10219000800714D5606A50B1042808D00C2806D0F6
:1021A000082804D040F2A311A1A003F0E5F8D5F867
:1021B0008800616A20F00C000843C5F88800207888
:1021C000400714D5A06A50B1102808D0302806D096
:1021D000202804D040F2AF1195A003F0CDF8D5F837
:1021E0008800A16A20F030000843C5F888002078F4
:1021F000800617D5E06A68B1B0F5806F0AD0B0F5F7
:10220000406F07D0B0F5006F04D040F2D71188A01E
:1022100003F0B2F8D5F88800E16A20F44060084382
:10222000C5F888002088800519D5E06B78B1B0F535
:10223000802F0CD0B0F5002F09D0B0F5402F06D07C
:102240004FF4F0717AA000E092E003F095F8D5F831
:102250008800E16B20F440200843C5F888002088FE
:10226000400517D5206C68B1B0F5801F0AD0B0F5D5
:10227000001F07D0B0F5401F04D040F2E7116CA05A
:1022800003F07AF8D5F88800216C20F44010084358
:10229000C5F888002078400614D5206B50B1B0F501
:1022A000805F07D0B0F5005F04D040F2EF1160A06E
:1022B00003F062F8D5F88800216B20F44050084301
:1022C000C5F888002078000614D5606B50B1B0F5D1
:1022D000804F07D0B0F5004F04D040F2FB1154A05E
:1022E00003F04AF8D5F88800616B20F440400843B9
:1022F000C5F888002088C00514D5A06B50B1B0F592
:10230000803F07D0B0F5003F04D040F2072148A03D
:1023100003F032F8D5F88800A16B20F44030084370
:10232000C5F8880020684FF0406900034FF08067CF
:102330004FF000685AD5A06C50B1B84208D0404563
:1023400006D0484504D040F2412139A003F014F8EA
:10235000D5F88800A16C20F040600843C5F88800DB
:10236000A06C40453AD1E86840F48010E8603DE058
:10237000D5F8900010F4407014D0A16D814211D0B6
:10238000D5F89000D5F8901020F4407041F48031D9
:10239000C5F89010D5F8901021F48031C5F8901050
:1023A000C5F89000C00710D0FFF7B6F9074641F214
:1023B000883906E0FFF7B0F9C11B494501D903266A
:1023C000C6E6D5F890008007F4D5D5F89000A16D49
:1023D00020F440700843C5F89000B9E6B84205D132
:1023E0000121201D02F0B2F800B10646206840032A
:1023F00048D5E06C50B1B84208D0404506D04845B9
:1024000004D040F266210AA002F0B6FFD5F8880099
:10241000E16C20F040600843C5F88800E06C40455E
:1024200028D1E86840F48010E8602BE0E7CF0E0088
:102430002E2E2F447269766572732F53544D3332AA
:102440004C3478785F48414C5F4472697665722FEE
:102450005372632F73746D33326C3478785F6861B4
:102460006C5F7263635F65782E630000001002404A
:1024700000700040B84205D10121201D02F066F82D
:1024800000B10646208840041FD5206D4FF08057CC
:1024900050B1B84208D0B0F1405F05D040F286217B
:1024A000AFF2740002F068FFD5F88800216D20F0CB
:1024B00040500843C5F88800206DB84205D102217C
:1024C000201D02F043F800B106462088000411D513
:1024D000606D40B1B0F1804F05D040F2B621AFF24F
:1024E000B00002F049FF55F8880F616D20F0804080
:1024F000084328603046BDE8F88F00002DE9F0471A
:102500000E46050072D02868401E0E2804D940F2FD
:10251000594178A002F030FF66B1012E0AD0022E98
:1025200008D0032E06D0042E04D040F25A4171A0E8
:1025300002F022FF7D4F386800F00700B04209D258
:10254000386820F0070030433860386800F0070032
:10255000B0424BD12878764C800721D5A868A0B12D
:10256000802812D0902810D0A0280ED0B0280CD0EF
:10257000C0280AD0D02808D0E02806D0F02804D0FF
:1025800040F272415BA002F0F7FEA868A16801F07A
:10259000F001884204D9A16821F0F0010143A16053
:1025A0002878C0073CD0686838B301280ED00228CC
:1025B00020D003281BD040F27D414EA002F0DCFE6B
:1025C0006868032813D0022814D0B0B120684005F1
:1025D000002842DAA068696820F003000843A06080
:1025E000FFF79AF8804641F2883912E035E020681A
:1025F0008001EDE720688003EAE720688007E7E7CD
:10260000FFF78AF8A0EB0801494502D90320BDE88D
:10261000F087A068696800F00C00B0EB810FEFD183
:10262000287880070AD5A868A16801F0F0018842DF
:1026300004D2A16821F0F0010143A160386800F0E4
:102640000700B0420BD9386820F0070030433860EB
:10265000386800F00700B04201D00120D7E72878A1
:102660004FF4806640074FF4A0674FF4C0684FF402
:10267000E06914D5E86860B1B0420AD0B84208D029
:10268000404506D0484504D040F2F54119A002F07B
:1026900073FEA068E96820F4E0600843A060287831
:1026A000000715D5286960B1B0420AD0B84208D0F9
:1026B000404506D0484504D040F2FC410DA002F050
:1026C0005BFEA068296920F4605040EAC100A06068
:1026D00000F05AF8A168174AC1F30311515C01F0E8
:1026E0001F01C8401449086014480068BDE8F0475D
:1026F000FFF752BB2E2E2F447269766572732F53EB
:10270000544D33324C3478785F48414C5F447269A1
:102710007665722F5372632F73746D33326C347815
:10272000785F68616C5F7263632E63000020024013
:1027300000100240D45300080C00002004000020C8
:102740000548064900688968054AC1F30221515CC1
:1027500001F01F01C84070470C000020001002402B
:10276000145400080548064900688968054AC1F301
:10277000C221515C01F01F01C84070470C000020CD
:10278000001002401454000870B525490023184673
:102790008A68CC6812F00C0204F00306214C4FEA60
:1027A000640509D00C2A05D0042A32D0082A00D1A9
:1027B000284670BD012E10D10B681B0704D4D1F838
:1027C0009430C3F3032302E00B68C3F30313164EE4
:1027D00056F82330DAB10C2AEBD1C86800F00300B8
:1027E000022818D0032818D01846CA68CB68C2F34C
:1027F0000212C3F306234343521CB3FBF2F2C86830
:10280000C0F34160401C4000B2FBF0F070BD1846C0
:1028100070BD204670BD2046E7E72846E5E700008A
:10282000001002400024F400E45300082DE9F843AE
:1028300004007CD0206830B1800904D04FF4D171FD
:10284000F1A002F099FDFE4DA86800F00C06E868C2
:1028500000F003072078C0066AD5A06930B10128CE
:1028600004D040F2AB11E8A002F086FDE069FF2839
:1028700004D94FF4D671E4A002F07EFD206AD0B1F5
:10288000102818D0202816D0302814D0402812D074
:10289000502810D060280ED070280CD080280AD084
:1028A000902808D0A02806D0B02804D040F2AD115E
:1028B000D5A002F061FD76B10C2E01D1012F0AD016
:1028C000A069002828687BD040F001002860FEF74E
:1028D00023FF80465EE02868800702D5A0690028B3
:1028E000A7D0216A2868000703D5286800F0F00007
:1028F00004E0D5F89400F02202EA1010814218D9C1
:10290000084601F02BFF002811D1286840F008008C
:1029100028602868216A20F0F00008432860686871
:10292000E16920F47F4040EA0120686018E0F0E0AF
:1029300057E0286840F0080028602868216A20F0E5
:10294000F000084328606868E16920F47F4040EAAD
:102950000120686026B9206A01F000FF0028D3D169
:10296000FFF712FFA968B74AC1F30311515C01F0E8
:102970001F01C840B4490860B4480068FFF70CFA6A
:10298000002873D12DE000BFFEF7C6FEA0EB0800C3
:1029900002286CD828688007F6D5286840F008001F
:1029A00028602868216A20F0F000084328606868E1
:1029B000E16920F47F4040EA0120686011E0FFE710
:1029C00020F001002860FEF7A7FE804606E000BF69
:1029D000FEF7A2FEA0EB08000228DAD828688007DC
:1029E000F6D42078C00750D060684FF480384FF498
:1029F000A02940B1404506D0484504D040F21921F5
:102A000081A002F0B9FC082E0AD00C2E01D1032FB0
:102A100006D0606840450AD1286840F4803013E051
:102A20002868800331D56068002872D02DE04845C1
:102A3000286803D140F480202860EDE720F480303E
:102A40002860286820F480202860606880B1FEF744
:102A500063FE804606E000BFFEF75EFEA0EB0800C6
:102A6000642896D828688003F6D50EE062E260E21A
:102A7000FEF752FE804605E0FEF74EFEA0EB080092
:102A8000642886D828688003F6D42078800749D542
:102A9000E06838B1B0F5807F04D04FF413715AA0CC
:102AA00002F06AFC20691F2804D940F24D2156A08B
:102AB00002F062FC042E0ED00C2E01D1022F0AD09F
:102AC000E068002828681DD040F480702860FEF778
:102AD00023FE07460BE0286840050BD5E068002878
:102AE000A3D007E0FEF718FEC01B0228B9D828685B
:102AF0004005F7D56868217C20F0F85040EA016075
:102B000068600FE020F480702860FEF705FE07463D
:102B100005E092E1FEF700FEC01B0228A1D828685C
:102B20004005F7D42078000731D56069E0B101286D
:102B300006D040F28D2134A002F01EFC606998B1ED
:102B4000D5F8940040F00100C5F89400FEF7E4FDCC
:102B5000074604E0FEF7E0FDC01B022891D8D5F837
:102B600094008007F6D512E0D5F8940020F001001B
:102B7000C5F89400FEF7D0FD074604E0FEF7CCFD53
:102B8000C01B0228B2D8D5F894008007F6D420786C
:102B900040076FD5A068002740B1012806D005285E
:102BA00004D04FF4387118A002F0E6FBA86DC00005
:102BB00008D4A86D40F08050A865A86D012700F0EA
:102BC0008050009022480168C90513D401688146ED
:102BD00041F480710160FEF79FFD804606E000BF72
:102BE000FEF79AFDA0EB0800022897D8D9F800005C
:102BF000C005F5D5A06801283DD00528D5F890007E
:102C00003ED020F0010025E02E2E2F44726976651B
:102C100072732F53544D33324C3478785F48414CA3
:102C20005F4472697665722F5372632F73746D33CC
:102C3000326C3478785F68616C5F7263632E630016
:102C400000100240D45300080C00002004000020B3
:102C500000700040C5F89000D5F8900020F0040006
:102C6000C5F89000A06841F28839D0B1FEF754FD54
:102C7000804611E029E0D5F8900040F00100EFE730
:102C800040F00400C5F89000F5E700BFFEF744FDF2
:102C9000A0EB08014945A8D8D5F890008007F5D5E4
:102CA0000EE0FEF739FD804606E000BFFEF734FD7A
:102CB000A0EB0801494598D8D5F890008007F5D4D5
:102CC0001FB1A86D20F08050A8652078800632D50D
:102CD000606AE8B1012807D040F24531AFF2D80070
:102CE00002F04AFB606A98B1D5F8980040F0010004
:102CF000C5F89800FEF710FD074604E0FEF70CFD4E
:102D0000C01B0228C7D8D5F898008007F6D512E076
:102D1000D5F8980020F00100C5F89800FEF7FCFCFB
:102D2000074604E0FEF7F8FCC01B0228B3D8D5F82C
:102D300098008007F6D4A06A00287DD001280CD026
:102D4000022814D040F26E31AFF2441002F014FBAE
:102D5000A06A0028F1D0022809D00C2E6DD0286876
:102D600020F080702860FEF7D7FC0446E4E0E06ABB
:102D700058B1012809D0022807D0032805D040F215
:102D80007631AFF27C1002F0F7FA206B401E072874
:102D900005D940F27731AFF2901002F0EDFA606B96
:102DA00008384E2805D94FF45E71AFF2A41002F036
:102DB000E3FAA06B801E1D2805D940F27A31AFF2EC
:102DC000B81002F0D9FAE06B02280BD0042809D021
:102DD000062807D0082805D04FF45F71AFF2D8104D
:102DE00002F0CAFA206C02280BD0042809D0062869
:102DF00007D0082805D040F27D31AFF2F41002F080
:102E0000BBFAE868E26A00F00301914229D1216B24
:102E100000F0700209011039914222D1626B00F476
:102E2000FE41B1EB022F1CD194F8382000F078411C
:102E3000B1EBC26F15D101E074E086E0A18F00F420
:102E4000C00249084905A1F50011914209D194F841
:102E5000401000F0C06049084906A1F100718142AC
:102E600049D00C2E72D0286840016FD4286820F019
:102E700080702860FEF750FC064604E0FEF74CFC2C
:102E8000801B022855D828688001F7D4F4E90B018B
:102E90006FF00F0202EB01110843218A5204490826
:102EA00002EB4151A26841EA02210843217D4FF023
:102EB0007E42490802EB41610843217B40EAC16040
:102EC000E968234A11400843E860286840F08070B0
:102ED0002860E86840F08070E860FEF71DFC04465A
:102EE00005E000BFFEF718FC001B022821D8286867
:102EF0008001F7D527E02868800124D4286840F0B5
:102F000080702860E86840F08070E860FEF704FC9C
:102F1000044604E0FEF700FC001B022809D82868DC
:102F20008001F7D50FE000BFFEF7F6FB001B02287B
:102F300002D90320BDE8F88328688001F4D4E8684A
:102F400004490840E8600020F4E7FFE70120F1E7CA
:102F50008C809D01FCFFEEFE10B5401EB0F1807F1D
:102F600001D3012010BD4FF0E02460610F216017F4
:102F700002F0E3F90020A06107202061002010BDCD
:102F800070477047704700002DE9F05F0446006805
:102F9000DFF83081DFF830910D464FF0804B40452F
:102FA0000ED058450CD04949884209D0484988423A
:102FB00006D0484504D040F2AC7146A002F0DCF9DE
:102FC000286890B1102810D020280ED030280CD0BE
:102FD00040280AD0502808D0602806D0702804D095
:102FE00040F2AD713BA002F0C7F9A868802805D077
:102FF00020B140F2AE7137A002F0BEF994F83C0067
:1030000001285CD04FF0010A84F83CA0022084F82B
:103010003D00206846688768404537D1686888B3B6
:10302000B0F5801F2ED0B0F5001F2BD0B0F5401F9B
:1030300028D0B0F5800F25D0B0F5A00F22D0B0F584
:10304000C00F1FD0B0F5E00F1CD0B0F5000F19D0A5
:10305000B0F5100F16D0B0F5200F13D0B0F5300F2B
:1030600010D0B0F5400F0DD0B0F5500F0AD0B0F52C
:10307000600F07D0B0F5700F04D04FF4F86115A0C1
:1030800002F07AF926F470006E680643286826F08C
:1030900070010843216848602068404503D05845C6
:1030A00001D0484504D1A96827F08002114381600E
:1030B00084F83DA0002084F83C00BDE8F09F022089
:1030C000FBE70000002C01400040014000100040E0
:1030D000001400402E2E2F447269766572732F53B0
:1030E000544D33324C3478785F48414C5F447269B8
:1030F0007665722F5372632F73746D33326C34782C
:10310000785F68616C5F74696D5F65782E6300003D
:1031100070B504003ED03D4920684FF0804588429C
:1031200012D0A84210D03A4988420DD0394988427D
:103130000AD03949884207D03849884204D04FF430
:103140008B7137A002F018F9A06860B110280AD07E
:10315000202808D0402806D0602804D040F217115B
:103160002FA002F009F9206950B1B0F5807F07D097
:10317000B0F5007F04D04FF48C7129A002F0FCF868
:103180002068A842E06807D04FF6FE71401E8842D2
:1031900008D902E0012070BD20B940F2191120A029
:1031A00002F0EAF8A06930B1802804D04FF48D71A4
:1031B0001BA002F0E1F894F83D0028B9002084F843
:1031C0003C00204600F048F8022084F83D00211D14
:1031D000206801F0ABFB012084F8480084F83E0031
:1031E00084F83F0084F8400084F8410084F84200ED
:1031F00084F8430084F8440084F8450084F84600CD
:1032000084F8470084F83D00002070BD002C014088
:103210000010004000140040004001400044014004
:103220002E2E2F447269766572732F53544D3332AC
:103230004C3478785F48414C5F4472697665722FF0
:103240005372632F73746D33326C3478785F6861B6
:103250006C5F74696D2E630008B50068B0F1804F33
:1032600012D10A48816D41F001018165806D002213
:1032700000F00100009011461C20FEF7F7FDBDE8AC
:1032800008401C20FEF7C0BD08BD00000010024031
:103290002DE9F041074600681D4C1E4D4FF0804659
:1032A000A04211D0B0420FD01B4988420CD01B491C
:1032B000884209D0A84207D01949884204D040F278
:1032C000D31118A002F058F897F83D00012802D059
:1032D0000120BDE8F081022087F83D003868C16810
:1032E00041F00101C1603868A04203D0B04201D072
:1032F000A84207D18168194A1140062906D0B1F5C4
:10330000803F03D0016841F0010101600020E0E747
:10331000002C01400040014000100040001400401B
:10332000004401402E2E2F447269766572732F532C
:10333000544D33324C3478785F48414C5F44726965
:103340007665722F5372632F73746D33326C3478D9
:10335000785F68616C5F74696D2E6300070001001F
:103360002DE9F05F054690F83C000C464FF000094F
:1033700001283BD04FF0010A85F83CA0022085F8D7
:103380003D0020684FF480564FF40058B04215D0ED
:10339000702813D0404511D040280FD050280DD0B0
:1033A00060280BD050B1102808D0202806D0302833
:1033B00004D041F25651A7A001F0DEFF29688868C9
:1033C000B24A104020F47F4088604FF0804322686A
:1033D000AF48B049DF13502A7ED00FDC202A04D03A
:1033E00007DC002AFBD0102A77D11BE10220BDE8C0
:1033F000F09F302AF9D0402AF6D1EAE0602A6DD059
:10340000702A54D0B3465A453BD04646B242EBD11F
:103410002968814206D0994204D041F281518DA0A1
:1034200001F0AAFFA06858B1584509D0B04207D0B2
:10343000B0F5405F04D041F2845186A001F09CFFBA
:103440006068B84209D040B1022806D00A2804D0EA
:1034500041F285517FA001F08FFFE0680F2804D969
:1034600041F286517BA001F087FFD4E90121E36896
:10347000286801F097FA2868816841F480418160EA
:10348000E1E02A688242FBD09A42F9D08248824227
:10349000F6D082488242F3D08A42F1D080488242FC
:1034A000EED041F262516BA001F066FFCBE02A68DA
:1034B000824208D09A4206D08A4204D041F2695131
:1034C00064A001F059FFA06878B1B0420DD040452A
:1034D0000BD0B0F5405F02E027E0B2E04EE004D050
:1034E00041F26C515BA001F047FF6068B84209D01F
:1034F00040B1022806D00A2804D041F26D5155A0EF
:1035000001F03AFFE0680F2804D941F26E5151A052
:1035100001F032FFD4E90121E368286801F042FAA2
:103520002868816841F07701A9E72A68824208D0BB
:103530009A4206D08A4204D041F2955145A001F04A
:103540001BFF6068B84209D040B1022806D00A28A3
:1035500004D041F298513FA001F00EFFE0680F281F
:1035600004D941F299513BA001F006FFE26861687D
:10357000286801F029FA5021286827E02A68824249
:1035800008D09A4206D08A4204D041F2A55131A017
:1035900001F0F2FE6068B84209D040B1022806D0BE
:1035A0000A2804D041F2A8512AA001F0E5FEE06803
:1035B0000F2804D941F2A95126A001F0DDFEE268EE
:1035C0006168286801F011FA6021286801F0F4F9B7
:1035D00039E02A68824208D09A4206D08A4204D052
:1035E00041F2B5511BA001F0C7FE6068B84209D096
:1035F00040B1022806D00A2804D041F2B85115A0E3
:1036000001F0BAFEE0680F2804D941F2B95111A0C7
:1036100001F0B2FEE2686168286801F0D5F9402146
:103620002868D3E72A68824208D09A4206D08A42A4
:1036300004D041F2C85107A001F09EFE216828681D
:10364000C4E74FF0010985F83DA0002085F83C0053
:103650004846CCE62E2E2F447269766572732F533E
:10366000544D33324C3478785F48414C5F44726932
:103670007665722F5372632F73746D33326C3478A6
:10368000785F68616C5F74696D2E630088FFFEFF70
:10369000002C014000400140001000400014004098
:1036A0000044014070472DE9F04104460068C668B7
:1036B00005694FF00007A90713D5B10711D5F91E09
:1036C000016101202077206880698007204602D0B0
:1036D000FFF7E8FF04E000F08BF8204600F089F8DF
:1036E0002777680716D5700714D521686FF0040096
:1036F0000861022020772068806910F4407F20460E
:1037000002D0FFF7CFFF04E000F072F8204600F08F
:1037100070F82777280715D5300713D521686FF083
:1037200008000861042020772068C06980072046CF
:1037300002D0FFF7B7FF04E000F05AF8204600F08F
:1037400058F82777E80616D5F00614D521686FF0EB
:1037500010000861082020772068C06910F4407FBD
:10376000204602D0FFF79EFF04E000F041F820461B
:1037700000F03FF82777E80708D0F00706D0216867
:103780006FF001000861204600F034F8280601D4EB
:10379000A80408D5300606D521686FF402500861E8
:1037A0002046FFF7EEFBE80508D5300606D5216870
:1037B0006FF4807008612046FFF7E2FB680608D5C9
:1037C000700606D521686FF040000861204600F0C1
:1037D0001DF8A8060AD5B00608D521686FF02000AC
:1037E00008612046BDE8F041FFF7CCBBBDE8F081A1
:1037F000704770470349884203D104210248FDF70E
:1038000027BF7047F000002000080048704770474D
:10381000704770472DE9F04102680446D06911688D
:10382000936840F60F0528424FF000054FF002065E
:1038300005D187067ED58F067CD5A16E33E1DFF8F2
:1038400094C203F0010701EA0C0C57EA0C0C71D08A
:103850005FEAC07C0CD05FEAC15C09D54FF0010C77
:10386000C2F820C0D4F8842042F00102C4F88420B9
:10387000820709D5DA0707D022681662D4F88420B7
:1038800042F00402C4F8842042070AD5DA0708D0BF
:10389000236804221A62D4F8842042F00202C4F899
:1038A000842002070CD501F020023A4308D0236897
:1038B00008221A62D4F8842042F00802C4F8842056
:1038C00002050BD54A0109D523684FF400621A623C
:1038D000D4F8842042F02002C4F88420D4F8842054
:1038E000002A36D0800605D5880603D5A16E09B119
:1038F00020468847D4F8840021688968490602D4A4
:1039000010F0280F27D0204601F0E2F920688068E7
:1039100040061BD52068083050E8001F21F0400108
:1039200040E80012002AF5D1606F78B16A498163DE
:10393000606F00E015E0FDF7FCFC002809D0606F27
:10394000816B00E02046BDE8F04108472046FFF7C4
:1039500060FFBDE8F0812046FFF75BFFC4F88450AC
:10396000F7E7D4F860C02027BCF1010F7ED15FEAF1
:10397000C06C7BD55FEAC16C78D5102010622068DE
:10398000806840064FD5616F0A6850680004000CDB
:103990003DD0B4F85830834239D9A4F85A000868A9
:1039A000006880062BD4206850E8001F21F4807145
:1039B00040E80012002AF6D12068083050E8001FC5
:1039C00021F0010140E80012002AF5D120680830FA
:1039D00050E8001F21F0400140E80012002AF5D114
:1039E000C4F880702566206850E8001F21F010019F
:1039F00040E80012002AF6D1606FFDF775FC66669C
:103A0000B4F85800B4F85A10401A81B207E0B4F87C
:103A1000581081429DD1106880069AD5666620466E
:103A2000FFF7F5FE95E7B4F85800B4F85A10401ABD
:103A300081B2B4F85A0000288BD0002989D02268BE
:103A400052E8000F20F4907042E80003002BF6D1FA
:103A50002068083050E8002F22F0010240E80023DF
:103A6000002BF5D1C4F88070256600E00AE0A56659
:103A7000226852E8000F20F0100042E80003002BFB
:103A8000F6D1CBE7C60209D55B0207D54FF480100B
:103A900010622046BDE8F041FFF7BABE020606D527
:103AA0000A0604D5E16E00297FF44CAF51E74006C9
:103AB000B8D54806B6D52046026852E8001F21F066
:103AC000400142E80013002BF6D1C767C56600F03D
:103AD00075F93EE720010004BD4C000870B50400F4
:103AE00012D0A06926490028264A274B274D206876
:103AF0000CD0884217D0904215D0984213D0A842DB
:103B000011D04FF4A9710BE0012070BD88420AD09A
:103B1000904208D0984206D0A84204D040F25711F3
:103B20001BA001F029FCE06F28B9002084F8780080
:103B3000204600F04BF82420E0672068016821F05F
:103B400001010160606A10B1204600F061FF20466B
:103B500001F0ACF90128D8D02068416821F49041E7
:103B600041602068816821F02A0181602068016835
:103B700041F0010101602046BDE8704001F04AB803
:103B800000380140004400400048004000800040F0
:103B90002E2E2F447269766572732F53544D333233
:103BA0004C3478785F48414C5F4472697665722F77
:103BB0005372632F73746D33326C3478785F68613D
:103BC0006C5F756172742E63000000002DE9F04394
:103BD0009DB00446142117A8FCF72CFB5C21684615
:103BE000FCF728FB4A4920684A4C03260727002592
:103BF0004FF090494FF0020888422AD101200090EE
:103C000008956846FEF726FA08B1FCF703FC206E1B
:103C100040F480402066206E00F480401C90E06CF0
:103C200040F00100E064E06C19AA00F001001C9073
:103C30004FF4C060CDE9170882E8E00017A94846B4
:103C4000FDF7B0FB002211462520FEF70FF92520D5
:103C50002BE0314988422DD16846CDF80080099586
:103C6000FEF7F8F908B1FCF7D5FBA06D40F4003081
:103C7000A065A06D00F400301C90E06C40F00100E5
:103C8000E064E06C19AA00F001001C900C20CDE962
:103C9000170882E8E00017A94846FDF783FB0022D9
:103CA00011462620FEF7E2F82620FEF7ADF81DB0FB
:103CB000BDE8F08319498842F9D104200A950090A3
:103CC0006846FEF7C7F908B1FCF7A4FBA06D40F405
:103CD0008020A065A06D00F480201C90E06C40F076
:103CE0000400E064E06C19AA00F004001C9030208D
:103CF000CDE9170882E8E00017A90948FDF752FB53
:103D0000002211462720FEF7B1F82720CDE700005A
:103D100000380140001002400044004000480040CC
:103D20000008004830B4D0F88030202B02D00220A8
:103D300030BC7047A9B1A2B1002303660A4C0368E6
:103D4000A3420BD05B681B0208D5046854E8003F0F
:103D500043F0806344E80035002DF6D130BC01F01B
:103D600033BA0120E4E700000080004070B500682D
:103D70000E49884218D10E4C0E4D2078302804D1BF
:103D8000012211462846FDF793FC2078312804D102
:103D9000002201212846FDF78BFCBDE8704001227E
:103DA00003490548FFF7BEBF70BD00000038014061
:103DB0002C000020000800483C0100207047FEE76E
:103DC00001688A69D243920701D400228A6200689E
:103DD0008169C943C90703D0816941F0010181614B
:103DE000704700002DE9F047044600688846002629
:103DF000816935461746C9064FF020093FD5102185
:103E0000C1612FE0B8F1FF3F2CD0FDF785FCC11B4D
:103E1000414502D8B8F1000F24D12068416894F8D8
:103E2000422001F480418369DB431B0415D4B1F5C2
:103E3000804F12D0202A10D0416841F48041416067
:103E4000FDF76AFC074608E0FDF766FCC01B192871
:103E500003D945F02005012604E020688069C043AD
:103E60008006F1D420688069C0F340103043C9D087
:103E700016B92168C1F81C9045F004050126216897
:103E80008869C20505D54FF4807245F00105CA6105
:103E90000126410509D522684FF4806145F00805E7
:103EA000D1610126800502D40AE0800507D521688A
:103EB0004FF4007045F00205C861012600E086B1AC
:103EC0002046FFF77DFF54F8241B4868064A10403F
:103ED0004860206A2843206284F81D900020A07763
:103EE00020773046BDE8F08700E800FE2DE9F0417C
:103EF0000F46064600682049069C1D4690468842AB
:103F00000AD01E49884207D01D49884204D041F694
:103F1000A9411CA001F030FAB5F1807F08D0B5F1BD
:103F2000007F05D025B141F6AA4116A001F024FA80
:103F3000224884420BD02248844208D0214884423F
:103F400005D024B141F6AB410EA001F015FAC7F33C
:103F5000090141EA0840326828432043516820F0B3
:103F600000404FF4806303EA5453174C23439943B2
:103F700001435160BDE8F08100540040005800400A
:103F8000005C00402E2E2F447269766572732F53A9
:103F9000544D33324C3478785F48414C5F447269F9
:103FA0007665722F5372632F73746D33326C34786D
:103FB000785F68616C5F6932632E63000040008047
:103FC0000024008000200080FF63FF032DE9F04102
:103FD0001D4617460E460446DDF8188027E0424687
:103FE00029462046FFF7FEFE10B10120BDE8F08112
:103FF000681C1CD0FDF790FBA0EB0800A84200D87D
:10400000ADB92068806936EA00000ED00020B842C1
:104010000DD154F8440F40F0200044F8040920204A
:1040200060700020A0702070DFE70120EFE72068BB
:10403000806936EA000004D00020B842CFD00020CA
:10404000D4E70120F9E700002DE9F047002591466B
:104050000F4604462E464FF020083CE04A463946BB
:104060002046FFF7BFFE00B1012520688169C943E2
:1040700089061AD4CDB981698169C943C90613D4A7
:104080001021C161042060642168C1F81C8021688E
:104090004A68154B1A404A6084F8418084F84260AF
:1040A00084F84060012500E06664FDF735FBA0EB75
:1040B0000900B84200D877B96DB920688069C0435B
:1040C000400708D5606C40F02000606484F84180AF
:1040D00084F84060012520688069C0F3800028438F
:1040E000BCD02846BDE8F08700E800FE70B5164653
:1040F0000D4604461EE0324629462046FFF772FE72
:1041000008B1012070BDFDF707FB801BA84200D855
:1041100085B920688069C04380060BD554F8440FE8
:1041200040F0200044F80409202060700020A070B6
:104130002070E6E720688069C0438006DBD4002059
:1041400070BD70B516460D46044620E0324629463D
:104150002046FFF747FE08B1012070BD681C16D04D
:10416000FDF7DAFA801BA84200D885B9206880697B
:10417000C04380070BD554F8440F40F0200044F8AA
:104180000409202060700020A0702070E4E72068FF
:104190008069C0438007D9D4002070BD00EB810046
:1041A000006E00F0F84070478068C0F3C0007047B0
:1041B0008068C0F380007047C06810F4406F01D081
:1041C0000020704701207047042303EAD15310B543
:1041D00018444369C1F3045107248C40A3438A4027
:1041E0001343436110BD00EB8100016E21F00041DB
:1041F000114301667047000010B5002210210548E8
:10420000FDF756FA0022BDE8104004210248FDF7F0
:104210004FBA000000040048000C004830B587B0D9
:1042200018216846FCF706F8184817490024C0E929
:10423000001484600425C460C0E904450476447613
:104240000121C16180F820408462C46280F830405E
:10425000446380F83840FCF7D3FC08B1FCF7DAF887
:104260000B4800900620CDE901047F200594CDE99C
:10427000030569460548FCF76BF9002801D0FCF7F7
:10428000C9F807B030BD000000000450380000201D
:104290001000C0102DE9F04387B014216846FBF7E9
:1042A000C9FF4548C16C41F00401C164C16C01F013
:1042B00004010591C16C41F08001C164C16C01F041
:1042C00080010591C16C41F00101C164C16C01F034
:1042D00001010591C16C41F00201C164C16C01F0A2
:1042E00002010591C16C41F00801C164C06C334FFB
:1042F00000F008000590012207213846FDF7D8F9A3
:10430000DFF8BC80002204214046FDF7D1F9DFF838
:10431000B490002210214846FDF7CAF94FF400502E
:10432000002401258DE8310069463846FDF73AF84A
:104330004DF6C0700326CDE9000669460294384662
:10434000FDF730F80720CDE90005CDE902546946B4
:104350003846FDF727F849F6F310CDE9000669461F
:1043600002944FF09040FDF71DF84FF62F70CDE905
:104370000006694602944846FDF714F804200090B0
:10438000CDE90154694640460394FDF70BF810202F
:104390000090CDE90154694648460394FDF702F8C0
:1043A0000820CDE90006694602940748FCF7FAFFA9
:1043B00007B0BDE8F083000000100240000800488C
:1043C000000C004800040048001C0048134810B5C9
:1043D000114901601249416000210122C0E9021225
:1043E000016141618161C1610162FDF767FA08B154
:1043F000FCF710F800210948FDF794F908B1FCF723
:1044000009F800210548FDF7F5F9002803D0BDE8BB
:104410001040FBF7FFBF10BD005400409C0000207F
:10442000EC9C901010B588B00024174800940194BB
:1044300002940394049405944FF080410694016023
:104440004F21C0E901141149C0E9031480218161A1
:10445000FEF75EFE08B1FBF7DDFF4FF480500090E1
:1044600069460948FEF77CFF08B1FBF7D3FF0494C7
:1044700004A905480694FEF787FD002801D0FBF744
:10448000C9FF08B010BD0000F00000209F860100A9
:104490000D4810B50B4901604FF4E1314160002136
:1044A00081600C22C160C0E904128161C1610162B6
:1044B0004162FFF713FB002803D0BDE81040FBF773
:1044C000A9BF10BD003801403C0100200D4810B5C7
:1044D0000B4901604FF4E1314160002181600C2201
:1044E000C160C0E904128161C16101624162FFF7EC
:1044F000F5FA002803D0BDE81040FBF78BBF10BDD4
:1045000000440040C40100200D4810B50B49016073
:104510004FF4E1314160002181600C22C160C0E9AB
:1045200004128161C16101624162FFF7D7FA00287C
:1045300003D0BDE81040FBF76DBF10BD0048004040
:104540004C020020FEE7FEE7704700002DE9F04135
:10455000044600688846002650B1012808D0022889
:1045600006D0032804D040F6623167A000F004FFB3
:104570006068401E072804D940F6633162A000F04D
:10458000FBFEA06808384E2804D940F664315EA0CE
:1045900000F0F2FEA069C10303D4C10201D4C1013D
:1045A00002D56849084204D040F6653156A000F0B3
:1045B000E3FE654DE86880070ED0E86800F003016F
:1045C0002068814217D1B0B1E8686168C0F3021079
:1045D000401C88420FD121E02068012804D0022825
:1045E00005D0032807D108E02968890701E0296878
:1045F0004905002907DB012682E02968890302D4E6
:1046000029684903F5E7E96862686FF00F0321F054
:10461000730103EB021211430143E960286820F0A3
:1046200080602860FDF778F8074604E0FDF774F82D
:10463000C01B02285BD828680001F7D4B8F1000F2E
:1046400026D0B8F1010F34D0606902280AD00428BE
:1046500008D0062806D0082804D040F6EE312AA05B
:1046600000F08AFE207D4FF07E41400801EB406063
:10467000A16840EA01202969344A114008432861B1
:10468000286840F080602860FDF746F8074630E073
:10469000E068801E1D2804D940F6B8311AA000F049
:1046A0006BFEA068217B000240EAC1602969284AAC
:1046B000E3E7206902280AD0042808D0062806D09B
:1046C000082804D040F6DC310FA000F055FE208A07
:1046D0002049400801EB4050A16840EA01202969C7
:1046E0001D4ACAE7FDF718F8C01B022801D90326A6
:1046F00006E028680001F5D52869A169084328610A
:104700003046BDE8F08100002E2E2F447269766598
:1047100072732F53544D33324C3478785F48414C88
:104720005F4472697665722F5372632F73746D33B1
:10473000326C3478785F68616C5F7263635F657850
:104740002E630000FFFFEEFE00100240FF80FFF925
:10475000FF80FF070000E0FFFF809FFFF8B51C4DC2
:1047600006460024A86DC00002D5FDF76BFC0DE0E5
:10477000A86D40F08050A865A86D00F080500090B2
:10478000FDF760FCA96D21F08051A965B0F5007FAF
:1047900004D0802E07D94FF003040AE0802E08D9F8
:1047A000A02E01D804E001D1022402E0702E00D135
:1047B00001240848016821F00701214301600068D5
:1047C00000F00700A04201D00120F8BD0020F8BD94
:1047D00000100240002002407047000038B5102150
:1047E0000948FBF739FE10240223084A88210848AB
:1047F0000094FDF7D3F9054A0223921C882104484E
:104800000094FDF7CBF938BD3800002010000020DF
:104810009C00002038B50420FBF70EFE1B4CA08046
:10482000FBF7ECFD20614FF4FA70FCF7A9FD1020B6
:104830000090062304F1140289211548FDF71CF9A4
:1048400004F114004178027801EB0221AF225143B8
:1048500000EE101AB8EE401A9FED0E0AC1EE000AE3
:104860009FED0D1A70EEC10AC4ED030A0179C078FC
:1048700001EB00206421484300EE900AF8EE600A44
:1048800080EE801A84ED021A38BD0000100000206E
:104890009C00002000FF7F4700003442FDF764BA0F
:1048A00010B596B044216846FBF7C4FC142111A84A
:1048B000FBF7C0FC4FF40070FDF768FB08B172B65F
:1048C000FEE701210804CDE90010022003240A902C
:1048D000CDE90B4114210D910721CDE90E10109067
:1048E0006846FDF7A3FF08B172B6FEE70F20CDE9D9
:1048F00011040020139014901590042111A8FDF7C5
:10490000FDFD002801D072B6FEE716B010BD000014
:104910000248016841F470010160704788ED00E0D1
:104920000148FEF7C0BE0000F000002070B502682C
:10493000194B4FF08046984201D0B04203D122F08B
:1049400070044A682243154C154D984205D0B04278
:1049500003D0A04201D0A84203D122F44076CA6815
:1049600032434E6922F08002324302608A68C2629A
:104970000A688262984203D0A04201D0A84201D1C5
:1049800009690163012141610169C90703D0016916
:1049900021F00101016170BD002C01400040014087
:1049A0000044014010B5846842EA032224F47F44A5
:1049B0000A432243826010BD826822F070020A43DB
:1049C00042F007018160704710B5036A046A24F061
:1049D00001040462846924F0F00444EA021423F020
:1049E0000A020A438461026210BD10B5036A046AB8
:1049F00024F010040462846923F0A00324F47044BA
:104A000044EA023243EA01118261016210BD0000F2
:104A100070B50446406AFF2804D940F64D516BA09A
:104A200000F0AAFC94F82400000710D5606B38B1A0
:104A3000B0F5004F04D040F6525164A000F09CFC49
:104A400020684168626B21F400411143416094F891
:104A50002400C00710D0A06A38B1B0F5003F04D0E0
:104A600040F6595159A000F087FC20684168A26ABD
:104A700021F400311143416094F82400800710D5DF
:104A8000E06A38B1B0F5803F04D04FF456614FA0D2
:104A900000F072FC20684168E26A21F48031114321
:104AA000416094F82400400710D5206B38B1B0F570
:104AB000802F04D040F6675144A000F05DFC2068D0
:104AC0004168226B21F480211143416094F8240055
:104AD000C00610D5A06B38B1B0F5805F04D040F6A9
:104AE0006E513AA000F048FC20688168A26B21F466
:104AF00080511143816094F82400800610D5E06B4A
:104B000038B1B0F5005F04D040F675512FA000F029
:104B100033FC20688168E26B21F40051114381600D
:104B200094F8240040063AD53749206888420AD0D4
:104B30003649884207D03649884204D040F67C5135
:104B400022A000F019FC206C4FF4801530B1A8426F
:104B500004D040F67D511DA000F00EFC2068416895
:104B6000226C21F4801111434160206CA84216D1BF
:104B7000606C68B1B0F5001F0AD0B0F5800F07D0A7
:104B8000B0F5C00F04D040F6825110A000F0F4FB45
:104B900020684168626C21F4C0011143416094F8BF
:104BA0002400000610D5A06C38B1B0F5002F04D059
:104BB00040F68A5105A000F0DFFB20684168A26C36
:104BC00021F400211143416070BD00002E2E2F44BE
:104BD0007269766572732F53544D33324C34787842
:104BE0005F48414C5F4472697665722F5372632F40
:104BF00073746D33326C3478785F68616C5F7561A3
:104C000072742E6300000000003801400044004030
:104C1000004800402DE9F84300260446C0F88460AF
:104C2000FCF77AFD8046206800684FF020050007F9
:104C30006FF07E4712D54346002229042046009794
:104C400000F01EFB50B1216851E8000F20F08000F9
:104C500041E80002002AF6D1E56721E020680068FB
:104C6000400722D5434600224FF48001204600979A
:104C700000F006FBC8B1216851E8000F20F49070E5
:104C800041E80002002AF6D12068083050E8001FF1
:104C900021F0010140E80012002AF5D1C4F880504B
:104CA00084F878600320BDE8F883E567C4F8805095
:104CB00044F8606F666026760020F4E710B5806ADD
:104CC0000021A0F85A10A0F85210FEF7A2FD10BD66
:104CD000016851E8002F22F4907241E80023002B74
:104CE000F6D10168083151E8002F22F0010241E8B5
:104CF0000023002BF5D1016E012908D1026852E88A
:104D0000001F21F0100142E80013002BF6D12021F2
:104D1000C0F88010002101668166704710B5B0F8B8
:104D20005C20D0F880300168222B04D0088B40F042
:104D30000800088310BD898C436D11401980416DB6
:104D4000891C4165B0F85A10491EA0F85A10B0F8F5
:104D50005A100029EED1016851E8002F22F4907218
:104D600041E80023002BF6D10168083151E8002FFB
:104D700022F0010241E80023002BF5D12021C0F8E8
:104D80008010002181664166154B02689A420BD063
:104D90005268120208D5036853E8002F22F080629F
:104DA00043E80024002CF6D1026E012A02D0FEF75F
:104DB000DDFF10BD0166026852E8001F21F01001FE
:104DC00042E80013002BF6D10168CA69D243D2062B
:104DD00001D410220A62B0F85810FEF718FD10BD79
:104DE0000080004010B5B0F85C20D0F88030016839
:104DF000222B04D0088B40F00800088310BD898C5A
:104E00001140426D1170416D491C4165B0F85A1056
:104E1000491EA0F85A10B0F85A100029EED10268C5
:104E200052E8001F21F4907142E80013002BF6D1E4
:104E30000168083151E8002F22F0010241E8002307
:104E4000002BF5D12021C0F8801000218166416639
:104E5000154B02689A420BD05268120208D50368BB
:104E600053E8002F22F0806243E80024002CF6D1A2
:104E7000026E012A02D0FEF779FF10BD01660268BA
:104E800052E8001F21F0100142E80013002BF6D178
:104E90000168CA69D243D20601D410220A62B0F86E
:104EA0005810FEF7B4FC10BD008000402DE9F0471B
:104EB00004464068AC490026884204D340F6584175
:104EC000AAA000F059FAA0684FF48055B0F1805FB5
:104ED00007D030B1A84204D040F65941A3A000F059
:104EE0004BFADFF8C48220684FF400514045E06877
:104EF0004FF4006906D100281AD0884218D040F635
:104F00005C4112E0A8420AD048B1B0F5405F06D03B
:104F1000884204D04FF4466194A000F02DFA206A34
:104F200030B1484504D040F6614190A000F024FA29
:104F300020694FF4806748B1B84207D0B0F5C06F20
:104F400004D040F6644189A000F016FA606930F0A0
:104F50000C0100D120B940F6654184A000F00CFAA4
:104F6000A06968B1B0F5807F0AD0B0F5007F07D0A6
:104F7000B0F5407F04D040F666417CA000F0FCF91B
:104F8000E0694FF4004530B1A84204D040F66741D3
:104F900076A000F0F1F92169A068E269084361692F
:104FA0001143084321680A68804B1A4002430A6093
:104FB00020684168E26821F4405111434160216852
:104FC000A069414501D0226A10438A6822F4306208
:104FD00002438A607649226876488A420DD1D0F829
:104FE000880010F0030006D0012841D0022831D0FB
:104FF00003282ED13EE001202CE06F498A420BD1DC
:10500000D0F8880010F00C0024D0042822D0082802
:105010002CD00C281DD12DE068498A420BD1D0F844
:10502000880010F0300015D0102821D020281DD085
:1050300030280ED11EE042450BD1D0F8880010F484
:10504000406007D0B84213D048450FD0B0F5406F4C
:1050500010D010205A49002742452FD160B10228B4
:105060000DD004280DD0082874D125E00220F1E7E6
:105070000420EFE70820EDE7FDF762FB03E00846B8
:1050800002E0FDF781FB78B3626802EB42018142E6
:1050900060D8B0EB023F5DD8010E0302500818182B
:1050A00079410023FBF78EF8464AA0F54071914202
:1050B00050D82168C8604EE02846E5E7E2694FF61F
:1050C000EF78AA4229D1092844D2DFE800F0050888
:1050D0000B430E4343432400FDF732FB07E0FDF78B
:1050E00041FB04E0084603E035E0FDF74DFB90B3DB
:1050F0004100606801EB5001B1FBF0F0A0F110013C
:10510000414527D84FF6F0710140C0F342000143FA
:105110002068C1601FE02846EAE709281AD2DFE8C4
:1051200000F005080B190D1919191F00FDF708FBF0
:1051300006E0FDF717FB03E0084602E0FDF724FB5D
:1051400048B1616800EB5100B0FBF1F0A0F1100133
:10515000414507D90126A7663046E766BDE8F087D6
:105160002846EEE780B2A4E7819698002E2E2F44C1
:105170007269766572732F53544D33324C3478789C
:105180005F48414C5F4472697665722F5372632F9A
:1051900073746D33326C3478785F68616C5F7561FD
:1051A00072742E630000000000800040F369FFEF7E
:1051B0000038014000100240004400400048004018
:1051C0000024F400FFFC0F0030B54165A0F8582022
:1051D000A0F85A200022826681684FF48055FF2390
:1051E000A94204D1016969BB40F2FF1130E07F247C
:1051F00031B3B1F1805F28D0A0F85C20C0F88420E2
:105200002221C0F880100168083151E8002F42F0D7
:10521000010241E80023002BF5D18168A94201D1A8
:105220000169D9B1144981660169C9B1016851E8C0
:10523000002F42F4907241E80023002BF6D118E0D1
:10524000016941B9A0F85C30D8E7016919B13F2183
:10525000A0F85C10D2E7A0F85C40CFE70749816670
:10526000026852E8001F41F0200142E80013002BC1
:10527000F6D1002030BD0000E54D00081D4D0008AE
:105280002DE9F047994617460D4604464FF00008B1
:10529000089E33E0701C31D0FCF73EFAA0EB090009
:1052A000B04218D8BEB120680168490726D5802DC4
:1052B00024D0402D22D0C169C94309070DD4082547
:1052C00005622046FFF704FDC4F8845084F8788016
:1052D0000120BDE8F0870320FBE7C069C04300055B
:1052E0000CD421684FF4006008622046FFF7F0FC00
:1052F0002020C4F8840084F87880ECE72068C06936
:1053000035EA000004D00020B842C3D00020E0E716
:105310000120F9E70148FEF77DBA00003C010020BA
:105320000148FEF777BA0000C40100200148FEF7EB
:1053300071BA00004C020020FEE70907090E0028A0
:1053400004DB00F1E02080F80014704700F00F004B
:1053500000F1E02080F8141D704702E008C8121F19
:1053600008C1002AFAD170477047002001E001C14E
:10537000121F002AFBD1704770470000FCF7FCFCAD
:10538000FFF78EFAFEF786FFFFF7A0F8FFF7BCF8ED
:10539000FFF71CF8FFF746F8FEF740FFFFF778F835
:1053A000012209490948FEF7BDFC0948FDF770FFD5
:1053B000FEF722FFFFF712FA4FF4FA74FFF72AFA0A
:1053C0002046FBF7DDFFF9E72C0000203C01002020
:1053D000F0000020000000000000000001020304B3
:1053E00006070809A0860100400D0300801A060088
:1053F00000350C0040420F0080841E0000093D0073
:1054000000127A000024F40000366E010048E80122
:10541000006CDC0200000000010203043C540008A0
:10542000000000202C0000005A53000868540008B7
:105430002C000020AC0600006A53000801000000A8
:10544000100000000000000000093D002236E000CE
:10545000000000000000000000000000000000004C
:08546000000000000000000044
:040000050800018D61
:00000001FF
