:020000040800F2
:1000000060060020A101000833390008A33200086F
:100010003139000899070008194400080000000061
:10002000000000000000000000000000C53B0008C8
:100030009B0700080000000035390008C73B000896
:10004000BB010008BB010008BB010008BB010008A0
:10005000BB010008BB010008BB010008BB01000890
:10006000BB010008BB010008BB010008BB01000880
:10007000BB010008BB010008BB010008BB01000870
:10008000BB010008BB010008BB010008BB01000860
:10009000BB010008BB010008BB010008BB01000850
:1000A000BB010008BB010008BB010008BB01000840
:1000B000493C00080000000000000000BB010008EF
:1000C000BB010008BB010008BB010008BB01000820
:1000D000BB010008F5430008014400080D44000876
:1000E000BB010008BB010008000000000000000088
:1000F0000000000000000000000000000000000000
:1001000000000000BB01000800000000BB01000867
:100110000000000000000000BB010008BB01000857
:10012000BB010008BB010008BB010008BB010008BF
:10013000BB010008000000000000000000000000FB
:10014000BB010008BB010008BB0100080000000063
:10015000BB010008BB010008BB010008BB0100088F
:10016000BB010008BB010008BB0100080000000043
:10017000BB010008BB0100080000000000000000F7
:10018000BB010008BB010008BB010008DFF80CD070
:1001900000F05CFA00480047294D00086006002086
:1001A0000648804706480047FEE7FEE7FEE7FEE711
:1001B000FEE7FEE7FEE7FEE7FEE7FEE7393C000864
:1001C0008D0100082DE9F05F0546002092469B4610
:1001D00088460646814640241BE02846414647465D
:1001E000224600F06AF853465A46C01A914110D38D
:1001F00011461846224600F051F82D1A67EB010807
:100200004F4622460120002100F048F817EB000974
:100210004E41201EA4F10104DFDC484631462A4647
:100220004346BDE8F09FD2B201E000F8012B491E21
:10023000FBD270470022F6E710B513460A46044683
:100240001946FFF7F0FF204610BD00F0004230F0E5
:1002500000400AD0C10D01F56071C0F3160042EAFA
:100260000151C20840071143704700200146704702
:1002700030B50B46014600202022012409E021FA76
:1002800002F59D4205D303FA02F5491B04FA02F573
:100290002844151EA2F10102F1DC30BD202A04DB46
:1002A000203A00FA02F1002070479140C2F1200389
:1002B00020FA03F3194390407047202A04DB203AC8
:1002C00021FA02F00021704721FA02F3D040C2F176
:1002D000200291400843194670472DE9FE4F8046A1
:1002E00081EA0300C00F0C46009021F0004123F08A
:1002F0000045B8EB0200A94105D240462146904690
:100300001C460B46024623F00040104347D0270D01
:10031000C7F30A00C3F30A510290401A0190402823
:100320006BDAC3F3130040F4801B0098924620B1AF
:100330000023D2EB030A63EB0B0B01985946C0F183
:1003400040025046FFF7AAFF06460D465046594662
:10035000019A00F08DF910EB08006141002487EA52
:10036000115284EAE7731A4340D0009A62B3019AAB
:10037000012A4FEA075215DC001B61EB02014FF026
:10038000004202EA0752CDE90042001C41F580110B
:1003900032462B4600F08DF903B0BDE8F08F4046A1
:1003A0002146F9E7001B61EB0201001C41F58013B7
:1003B00000185B412018A2F5001747EB030140EA43
:1003C000D570B6196D4111E06D084FEA360645EA61
:1003D000C0754FEA0752001B61EB0201001C41F59A
:1003E000801149084FEA30000019514132462B462E
:1003F00003B0BDE8F04F00F04DB900980122400075
:100400000023D0EB020263EBE073009821464FEA31
:10041000E074B8EB000061EB0401E9E783F000430E
:100420005BE781F0004158E72DE9FE4F81EA0304C4
:1004300004F0004421F0004100944FF0000B23F041
:10044000004350EA01045ED052EA03045BD0C3F3D8
:100450000A54C1F30A552C44A4F2F3340194A0FBCE
:100460000254C1F3130141F48011C3F3130343F4A5
:10047000801301FB024400FB034E840A970A44EAFE
:10048000815447EA8357A4FB076802958D0A05FB50
:1004900007854FEA932C04FB0C542705029D4FEA75
:1004A000065847EA1637B5EB08056EEB070C870EC2
:1004B000920E47EA811742EA8312A7FB0201B6EBCC
:1004C0000B0164EB00042B0D43EA0C335E1844EB84
:1004D0001C50DA465146E7FB0201C5F313044FEA0C
:1004E0000B3343EA14534FEA0432019C43EA0603F8
:1004F000A4F10C040294009CCDE900B400F0D9F8FA
:1005000003B0BDE8F08F00200146F9E72DE9F04D7A
:1005100081EA030404F0004B21F0004514464FF03B
:10052000000A23F0004150EA050220D054EA0102FB
:100530001DD0C5F30A570246C5F31303C1F31300D8
:10054000C1F30A5640F4801543F48013A7EB060864
:10055000101BD64608F2FD3873EB050002D308F1F4
:10056000010801E092185B41B8F1000F03DA0020A6
:100570000146BDE8F08D00204FF480110646844608
:100580000EE0171B73EB050705D3121B63EB050386
:1005900006434CEA010C49084FEA300092185B41CF
:1005A00050EA0107EDD152EA030012D082EA0400BA
:1005B00083EA0501084305D0101BAB4106D2012296
:1005C000002306E000224FF0004302E06FF001023A
:1005D00053101AEB06004CEB085110EB0A0041EBEC
:1005E0000B01BDE8F04D00F055B8C1F30A52C1F35C
:1005F000130140F2FF3341F480119A4202DA0020E5
:100600000146704740F233439A42A2F2334202DC81
:100610005242FFF752BEFFF741BE000030B5041E44
:1006200071F1000404DB4FF00044404264EB01012F
:10063000141E73F1000405DB1C464FF000435242C8
:1006400063EB0403994208BF904230BD064C074D4E
:1006500006E0E06840F0010394E807009847103492
:10066000AC42F6D3FFF796FD9C4E0008BC4E000846
:10067000202A06DBCB17203A41FA02F043EAE07366
:1006800006E041FA02F3D040C2F120029140084353
:100690001946704710B5141E73F1000408DA401CA7
:1006A00041F1000192185B411A4301D120F0010091
:1006B00010BD2DE9F04D92469B4611B1B1FA81F281
:1006C00002E0B0FA80F220329046FFF7E7FD0446E0
:1006D0000F4640EA0A0041EA0B0153465A460843D6
:1006E00013D0114653EA010019D0C8F14002504618
:1006F000FFF7E3FD05460E46504659464246FFF7D2
:10070000CDFD084305D0012004E020463946BDE870
:10071000F08D0020054346EAE0762C4337430A98E3
:100720006305E40AA0EB08000022FD0A44EA4754EE
:100730000A3002D500200146E9E701051019694198
:10074000DDE9084500196941BDE8F04DA2E7000068
:1007500001B582B04FF480700090012302AA4621B7
:10076000014800F087FC0EBD2800002010B50120D4
:10077000FFF7EEFF1020FFF7EBFFBDE8104047202A
:10078000FFF7E6BF08B500200090684600F008F8C3
:10079000BDF8000040BA08BDFEE7704772B6FEE73C
:1007A00038B50446FFF7E2FF4FF480700090022353
:1007B00022464621014800F0CBFB38BD280000202E
:1007C00010B590F825100022022905D00421C1633C
:1007D00080F82420012010BD01680B6823F00E036F
:1007E0000B6001680B6823F001030B6090F8441064
:1007F000046C01F01C03012101FA03F3636080F82B
:10080000251080F82420104610BD10B590F8251052
:100810000024022903D00421C16301241AE00168E5
:100820000A6822F00E020A6001680A6822F00102DA
:100830000A6090F84410036C01F01C02012101FAD7
:1008400002F25A6080F82510002180F82410816B94
:1008500001B18847204610BD70B5044600F0C8F9C4
:100860000546601C02D004480078044400F0C0F93A
:10087000401BA042FAD370BD140000202DE9F84FB0
:1008800000274FF0904ADFF84482DFF844B20D466B
:100890000446504510D044450ED05C450CD08D48E0
:1008A000844209D08C48844206D08C48844203D0CC
:1008B000AA218BA004F02BFA28680104090C01D0AE
:1008C000000C03D0AB2186A004F021FA68684FF039
:1008D0000309002821D00128FCD01128FAD00228D1
:1008E000F8D01228F6D0B0F5881FF3D0B0F5041F69
:1008F000F0D0B0F5441FEDD0B0F5901FEAD0B0F5C0
:10090000081FE7D0B0F5481FE4D00328E2D00B2839
:10091000E0D0AC2172A004F0FAF9CFE00121B94097
:100920000840009106007DD0287900F003000128DE
:1009300001D002281DD1E86848B1012807D002285B
:1009400005D0032803D0BB2165A004F0E0F9A0681E
:100950007A0009FA02F18843E96891400143A160F5
:100960006068009988432979C1F30011B9400143B7
:1009700061602879C043800712D0A86838B1012887
:1009800005D0022803D0DC2155A004F0C0F9E068AE
:100990007A0009FA02F18843A96891400143E160B5
:1009A000287900F00300022826D1544510D0444590
:1009B0000ED05C450CD04748844209D0464884425A
:1009C00006D04648844203D0E82145A004F09FF9B0
:1009D00028690F2803D9E92141A004F098F9F80803
:1009E00004EB8003186A7907CA0E0F2191408843EF
:1009F000296991400143196221687A0009FA02F0DD
:100A00008143287900F00300904008432060686823
:100A100010F4403F51D04148016E41F001010166A0
:100A2000006E00E049E000F0010000903C4827F033
:100A300003010A189168B807030F0F2098408143FB
:100A4000544501D1002012E0444501D101200EE0BF
:100A50005C4501D102200AE01E48844201D10320F6
:100A600005E01D48844201D1042000E007209840A1
:100A7000084390602B4908686A68B043D20200D5E9
:100A8000304308602749091D08686A68B04392022C
:100A900000D5304308602349091F08686A68B043DD
:100AA000920300D5304308601E49083908686A6817
:100AB000B043D20300D5304308607F1C2E68304617
:100AC000FE407FF42BAFBDE8F88F00000004004823
:100AD00000080048000C004800100048001C0048B6
:100AE0002E2E2F447269766572732F53544D333214
:100AF0004C3478785F48414C5F4472697665722F58
:100B00005372632F73746D33326C3478785F68611D
:100B10006C5F6770696F2E63000000000010024078
:100B2000000001400804014070B50C00054604D1E6
:100B30004FF4E37105A004F0EAF8696924EA0100C2
:100B4000214040EA0140A86170BD00002E2E2F44D4
:100B50007269766572732F53544D33324C34787802
:100B60005F48414C5F4472697665722F5372632F00
:100B700073746D33326C3478785F68616C5F677062
:100B8000696F2E630000000070B515460C00064624
:100B900004D14FF4D77107A004F0B9F845B1012D85
:100BA00004D040F2AF1103A004F0B1F8B46170BDFD
:100BB000B46270BD2E2E2F447269766572732F5306
:100BC000544D33324C3478785F48414C5F447269FD
:100BD0007665722F5372632F73746D33326C347871
:100BE000785F68616C5F6770696F2E63000000005A
:100BF00001488068704700001400002070B50D4661
:100C0000044600681F49884209D01F49884206D01F
:100C10001E49884203D063211DA004F078F835B145
:100C2000B5F5805F03D0642119A004F070F894F842
:100C30004100202823D194F8400001281FD0012032
:100C400084F84000242084F841002068016821F0E5
:100C5000010101602068016821F480510160206871
:100C60000168294301602068016841F001010160C9
:100C7000202084F84100002084F8400070BD02204C
:100C800070BD00000054004000580040005C00406F
:100C90002E2E2F447269766572732F53544D333262
:100CA0004C3478785F48414C5F4472697665722FA6
:100CB0005372632F73746D33326C3478785F68616C
:100CC0006C5F6932635F65782E63000070B50D4616
:100CD000044600681D49884209D01D49884206D053
:100CE0001C49884203D091211BA004F010F80F2D5D
:100CF00003D9922118A004F00AF894F841002028A2
:100D000021D194F8400001281DD0012084F8400032
:100D1000242084F841002068016821F0010101606D
:100D20002068016821F4706141EA052101602068B2
:100D3000016841F001010160202084F84100002099
:100D400084F8400070BD022070BD000000540040D7
:100D500000580040005C00402E2E2F4472697665DA
:100D600072732F53544D33324C3478785F48414C72
:100D70005F4472697665722F5372632F73746D339B
:100D8000326C3478785F68616C5F6932635F657874
:100D90002E63000070B5040061D05B492068884272
:100DA0000AD05A49884207D05949884204D04FF4A2
:100DB000087158A003F0ABFFA068B0F5806F04D3B2
:100DC00040F2212153A003F0A2FFE068012806D0E1
:100DD000022804D040F222214EA003F098FF20699F
:100DE00038B1B0F5004F04D040F2232149A003F000
:100DF0008EFF6069FF2804D94FF4097145A003F004
:100E000086FFA06990B1012810D002280ED00328D7
:100E10000CD004280AD0052808D0062806D00728B8
:100E200004D040F225213BA003F071FFE06938B106
:100E3000B0F5002F04D040F2262136A003F067FF62
:100E4000206A38B1B0F5003F04D040F2272131A02C
:100E500003F05DFF94F84100002510B106E0012089
:100E600070BD84F84050204600F0AAF9242084F890
:100E700041002068016821F001010160606821687B
:100E800020F0706008612068816821F40041816071
:100E9000E0680128A06830D040F4044021688860F0
:100EA000E0680228206841682AD021F4006141608E
:100EB00020684168254A114341602068C16821F4D7
:100EC0000041C160D4E904010843A16940EA01205E
:100ED0002168C860D4E907010843216808602068D8
:100EE000016841F0010101606564202084F841003F
:100EF000256384F84250002070BD40F40040CDE7E7
:100F000041F40061D3E70000005400400058004065
:100F1000005C00402E2E2F447269766572732F5349
:100F2000544D33324C3478785F48414C5F44726999
:100F30007665722F5372632F73746D33326C34780D
:100F4000785F68616C5F6932632E63000080000225
:100F50002DE9F84F044690F84100DDF828A09846A6
:100F600091468B4620287ED194F8400001287AD003
:100F7000012784F84070FFF73BFE064601220090EF
:100F80001923D103204602F093FAE0BB222084F813
:100F90004100102084F8420000256564C4F82490C4
:100FA000A4F82A806563618D30484FF080784FF057
:100FB0000079FF2903D927853A46009039E0618DF1
:100FC000218500903AE05946204602F001FA13E0EC
:100FD00002F0ACFAB8B92068406A616A0870606AC9
:100FE000401C6062208D401E80B22085618D491EAC
:100FF0006185618D01B168B1608D3246002851462E
:101000002046E5D100E002E002F0E2FAD0B1012092
:10101000BDE8F88F5346002280212046009602F05A
:1010200047FA0028F3D1608DFF2804D9FF222285DA
:1010300000954346C7E7608D2085009594F82820E9
:101040004B46C0E721682020C86121684A68084BE8
:101050001A404A6084F8410084F8425084F84050B5
:101060000020D5E7FFE70220D2E70000002400803F
:1010700000E800FE2DE9FF4F81B0044690F84100E2
:10108000DDF838B01F46904620287BD194F8400008
:10109000012877D0012084F84000FFF7A9FD06461B
:1010A000012200901923D103204602F001FA002802
:1010B00053D1212084F84100102084F842000025FB
:1010C0006564C4F8248067856563608D3A49FF27AD
:1010D0004FF080794FF0007AFF2802D927854B46E0
:1010E00005E0608D208500045346000C10D0226876
:1010F00098F800009062606A401C6062608D401E3B
:101100006085208D401E2085401CC2B2009101E008
:10111000002200912046029902F05AF914E000BF23
:1011200002F081FAC8B9606A216800788862606A52
:10113000401C6062608D401E6085208D401E80B224
:101140002085618D01B160B1608D3246002859461D
:101150002046E5D102F03CFAE0B1012005B0BDE83F
:10116000F08F5B46002280212046009602F0A0F915
:101170000028F2D1608DFF2805D927853A464B46D5
:101180000095C7E716E0608D2085009594F828202B
:101190005346BFE721682020C86121684A68074B91
:1011A0001A404A6084F8410084F8425084F8405064
:1011B0000020D3E70220D1E70020008000E800FEF5
:1011C00030B59DB00446142117A8FFF733F85C2111
:1011D0006846FFF72FF817492068884227D140203A
:1011E000002500900C95684600F0A0F908B1FFF7C3
:1011F000D5FA114CE06C40F00200E064E06C17A9F5
:1012000000F002001C90C02017901220CDE91805B4
:1012100003201A9004201B900848FFF72FFBA06DB5
:1012200040F40010A065A06D00F400101C901DB0EB
:1012300030BD00000054004000100240000400488F
:1012400002488168027811448160704714000020D0
:1012500010B50024032000F0C5F80F2000F008F8B6
:1012600008B1012401E000F025F8204610BD00007F
:1012700070B50E4E05460024307898B14FF47A715F
:10128000B1FBF0F00A490968B1FBF0F001F0D0F8C9
:1012900040B9102D06D200222946501E00F052F807
:1012A000756000E00124204670BD0000140000209D
:1012B00020000020094808B5016E41F001010166D7
:1012C000016E01F001010091816D41F08051816555
:1012D000806D00F08050009008BD000000100240BA
:1012E00010B5040003D5D22107A003F010FD002C97
:1012F00009DB04F01F01012088406109890001F128
:10130000E021C1F8000110BD2E2E2F4472697665D0
:1013100072732F53544D33324C3478785F48414CBC
:101320005F4472697665722F5372632F73746D33E5
:10133000326C3478785F68616C5F636F7274657863
:101340002E63000070B515460C460646102A03D3DE
:10135000BE2114A003F0DBFC102C03D3BF2111A08D
:1013600003F0D5FC1E480068C0F30223C3F1070256
:101370002046042A00D90422191D072901D200237E
:1013800000E0DB1E012404FA02F1491E01409940ED
:101390009C40641E2C4021433046BDE8704003F061
:1013A0004DB800002E2E2F447269766572732F534C
:1013B000544D33324C3478785F48414C5F44726905
:1013C0007665722F5372632F73746D33326C347879
:1013D000785F68616C5F636F727465782E6300007C
:1013E0000CED00E010B5044607280BD0062C09D000
:1013F000052C07D0042C05D0032C03D0A62108A06F
:1014000003F085FC154904F0070208684FF6FF0356
:10141000184040EA0220124A1043086010BD000044
:101420002E2E2F447269766572732F53544D3332CA
:101430004C3478785F48414C5F4472697665722F0E
:101440005372632F73746D33326C3478785F6861D4
:101450006C5F636F727465782E6300000CED00E0C2
:101460000000FA0510B51B4CB0F5007F13D0B0F5A5
:10147000806F03D0A72118A003F049FC2068C0F3B7
:101480004120022805D0206820F4C06040F480602C
:101490002060002010BD2068C0F341200128F8D052
:1014A000206820F4C06040F40070206019483221A8
:1014B000006848431849B0FBF1F0401C00E0401EB2
:1014C0006169490501D50028F9D160694005E0D579
:1014D000032010BD007000402E2E2F4472697665E7
:1014E00072732F53544D33324C3478785F48414CEB
:1014F0005F4472697665722F5372632F73746D3314
:10150000326C3478785F68616C5F7077725F657891
:101510002E6300002000002040420F0002480068B7
:1015200000F4C06070470000007000402DE9F84FE3
:10153000044600270068F3493E46084202D0C943EA
:10154000084203D0C921F0A003F0E1FB2088FD4D43
:10155000000521D5606C4FF400084FF4400938B104
:10156000404505D0484503D0D121E7A003F0CFFB8B
:10157000606C50B1404503D048453BD001270AE09C
:10158000E86840F48030E86034E00021201D02F07B
:10159000D3F907002ED03E46206880034BD5A06DBE
:1015A0004FF0000868B1B0F5807F0AD0B0F5007F39
:1015B00007D0B0F5407F04D04FF4A271D2A003F061
:1015C000A6FBA86DC00009D4A86D40F08050A865A6
:1015D000A86D4FF0010800F080500090DFF868A37C
:1015E000DAF8001041F48071CAF80010FFF700FB30
:1015F000814611E0D5F88800616C20F44000084372
:10160000C5F88800C8E700BFFFF7F2FAA0EB0900B1
:10161000022801D9032705E0DAF80000C005F3D558
:10162000002F7DD04FEA0706B8F1000F03D0A86D58
:1016300020F08050A8652078C00714D0206A50B1EF
:10164000012808D0032806D0022804D040F29911BE
:10165000ADA003F05CFBD5F88800216A20F0030000
:101660000843C5F888002078800714D5606A50B117
:10167000042808D00C2806D0082804D040F2A31172
:10168000A1A003F044FBD5F88800616A20F00C00AB
:101690000843C5F888002078400714D5A06A50B1E7
:1016A000102808D0302806D0202804D040F2AF11EE
:1016B00095A003F02CFBD5F88800A16A20F030003B
:1016C0000843C5F888002078800617D5E06A68B11D
:1016D000B0F5806F0AD0B0F5406F07D0B0F5006F5D
:1016E00004D040F2D71188A003F011FBD5F8880090
:1016F000E16A20F440600843C5F88800208880052E
:1017000019D5E06B78B1B0F5802F0CD0B0F5002F73
:1017100009D0B0F5402F06D04FF4F0717AA000E068
:1017200092E003F0F4FAD5F88800E16B20F4402051
:101730000843C5F888002088400517D5206C68B19B
:10174000B0F5801F0AD0B0F5001F07D0B0F5401FDC
:1017500004D040F2E7116CA003F0D9FAD5F8880064
:10176000216C20F440100843C5F88800207840061A
:1017700014D5206B50B1B0F5805F07D0B0F5005F95
:1017800004D040F2EF1160A003F0C1FAD5F8880050
:10179000216B20F440500843C5F8880020780006EB
:1017A00014D5606B50B1B0F5804F07D0B0F5004F45
:1017B00004D040F2FB1154A003F0A9FAD5F8880038
:1017C000616B20F440400843C5F888002088C005BC
:1017D00014D5A06B50B1B0F5803F07D0B0F5003FF5
:1017E00004D040F2072148A003F091FAD5F8880010
:1017F000A16B20F440300843C5F8880020684FF002
:10180000406900034FF080674FF000685AD5A06C24
:1018100050B1B84208D0404506D0484504D040F207
:10182000412139A003F073FAD5F88800A16C20F0AB
:1018300040600843C5F88800A06C40453AD1E8688C
:1018400040F48010E8603DE0D5F8900010F440705E
:1018500014D0A16D814211D0D5F89000D5F8901028
:1018600020F4407041F48031C5F89010D5F8901004
:1018700021F48031C5F89010C5F89000C00710D051
:10188000FFF7B6F9074641F2883906E0FFF7B0F9ED
:10189000C11B494501D90326C6E6D5F8900080074B
:1018A000F4D5D5F89000A16D20F440700843C5F838
:1018B0009000B9E6B84205D10121201D02F03CF8A4
:1018C00000B106462068400348D5E06C50B1B842EC
:1018D00008D0404506D0484504D040F266210AA011
:1018E00003F015FAD5F88800E16C20F04060084359
:1018F000C5F88800E06C404528D1E86840F48010C5
:10190000E8602BE0E7CF0E002E2E2F44726976653B
:1019100072732F53544D33324C3478785F48414CB6
:101920005F4472697665722F5372632F73746D33DF
:10193000326C3478785F68616C5F7263635F65787E
:101940002E6300000010024000700040B84205D134
:101950000121201D01F0F0FF00B10646208840045F
:101960001FD5206D4FF0805750B1B84208D0B0F16C
:10197000405F05D040F28621AFF2740003F0C7F952
:10198000D5F88800216D20F040500843C5F8880044
:10199000206DB84205D10221201D01F0CDFF00B11C
:1019A00006462088000411D5606D40B1B0F1804F2B
:1019B00005D040F2B621AFF2B00003F0A8F955F817
:1019C000880F616D20F08040084328603046BDE8F4
:1019D000F88F00002DE9F0470E46050072D0286808
:1019E000401E0E2804D940F2594178A003F08FF927
:1019F00066B1012E0AD0022E08D0032E06D0042E86
:101A000004D040F25A4171A003F081F97D4F38684B
:101A100000F00700B04209D2386820F007003043D8
:101A20003860386800F00700B0424BD12878764C17
:101A3000800721D5A868A0B1802812D0902810D0A6
:101A4000A0280ED0B0280CD0C0280AD0D02808D0AA
:101A5000E02806D0F02804D040F272415BA003F0E9
:101A600056F9A868A16801F0F001884204D9A1687C
:101A700021F0F0010143A1602878C0073CD06868DC
:101A800038B301280ED0022820D003281BD040F202
:101A90007D414EA003F03BF96868032813D002286B
:101AA00014D0B0B120684005002842DAA068696807
:101AB00020F003000843A060FFF79AF8804641F247
:101AC000883912E035E020688001EDE72068800366
:101AD000EAE720688007E7E7FFF78AF8A0EB08014C
:101AE000494502D90320BDE8F087A068696800F085
:101AF0000C00B0EB810FEFD1287880070AD5A868D9
:101B0000A16801F0F001884204D2A16821F0F0013F
:101B10000143A160386800F00700B0420BD9386873
:101B200020F0070030433860386800F00700B0420A
:101B300001D00120D7E728784FF4806640074FF4A2
:101B4000A0674FF4C0684FF4E06914D5E86860B14D
:101B5000B0420AD0B84208D0404506D0484504D02B
:101B600040F2F54119A003F0D2F8A068E96820F42A
:101B7000E0600843A0602878000715D5286960B1A7
:101B8000B0420AD0B84208D0404506D0484504D0FB
:101B900040F2FC410DA003F0BAF8A068296920F4D6
:101BA000605040EAC100A06000F05AF8A168174AEE
:101BB000C1F30311515C01F01F01C84014490860D2
:101BC00014480068BDE8F047FFF752BB2E2E2F44A3
:101BD0007269766572732F53544D33324C34787872
:101BE0005F48414C5F4472697665722F5372632F70
:101BF00073746D33326C3478785F68616C5F7263D4
:101C0000632E63000020024000100240544E000882
:101C10002000002018000020054806490068896857
:101C2000054AC1F30221515C01F01F01C840704711
:101C30002000002000100240944E0008054806498C
:101C400000688968054AC1F3C221515C01F01F0197
:101C5000C84070472000002000100240944E000849
:101C600070B52549002318468A68CC6812F00C022A
:101C700004F00306214C4FEA640509D00C2A05D074
:101C8000042A32D0082A00D1284670BD012E10D176
:101C90000B681B0704D4D1F89430C3F3032302E08C
:101CA0000B68C3F30313164E56F82330DAB10C2A2F
:101CB000EBD1C86800F00300022818D0032818D020
:101CC0001846CA68CB68C2F30212C3F30623434323
:101CD000521CB3FBF2F2C868C0F34160401C4000E4
:101CE000B2FBF0F070BD184670BD204670BD2046B6
:101CF000E7E72846E5E70000001002400024F40072
:101D0000644E00082DE9F84304007CD0206830B10F
:101D1000800904D04FF4D171F1A002F0F8FFFE4D1C
:101D2000A86800F00C06E86800F003072078C006F9
:101D30006AD5A06930B1012804D040F2AB11E8A007
:101D400002F0E5FFE069FF2804D94FF4D671E4A062
:101D500002F0DDFF206AD0B1102818D0202816D05C
:101D6000302814D0402812D0502810D060280ED02F
:101D700070280CD080280AD0902808D0A02806D03F
:101D8000B02804D040F2AD11D5A002F0C0FF76B16A
:101D90000C2E01D1012F0AD0A069002828687BD021
:101DA00040F001002860FEF723FF80465EE02868CF
:101DB000800702D5A0690028A7D0216A28680007FB
:101DC00003D5286800F0F00004E0D5F89400F02274
:101DD00002EA1010814218D9084601F0B5FE002829
:101DE00011D1286840F0080028602868216A20F096
:101DF000F000084328606868E16920F47F4040EA09
:101E00000120686018E0F0E057E0286840F0080022
:101E100028602868216A20F0F0000843286068687C
:101E2000E16920F47F4040EA0120686026B9206A19
:101E300001F08AFE0028D3D1FFF712FFA968B74A44
:101E4000C1F30311515C01F01F01C840B44908609F
:101E5000B4480068FFF70CFA002873D12DE000BFEA
:101E6000FEF7C6FEA0EB080002286CD828688007A1
:101E7000F6D5286840F0080028602868216A20F01C
:101E8000F000084328606868E16920F47F4040EA78
:101E90000120686011E0FFE720F001002860FEF7F4
:101EA000A7FE804606E000BFFEF7A2FEA0EB0800FA
:101EB0000228DAD828688007F6D42078C00750D0E6
:101EC00060684FF480384FF4A02940B1404506D0F7
:101ED000484504D040F2192181A002F018FF082ED5
:101EE0000AD00C2E01D1032F06D0606840450AD1DC
:101EF000286840F4803013E02868800331D560689A
:101F0000002872D02DE04845286803D140F4802095
:101F10002860EDE720F480302860286820F48020D5
:101F20002860606880B1FEF763FE804606E000BF6F
:101F3000FEF75EFEA0EB0800642896D828688003B0
:101F4000F6D50EE062E260E2FEF752FE804605E062
:101F5000FEF74EFEA0EB0800642886D828688003B0
:101F6000F6D42078800749D5E06838B1B0F5807F95
:101F700004D04FF413715AA002F0C9FE20691F2843
:101F800004D940F24D2156A002F0C1FE042E0ED01D
:101F90000C2E01D1022F0AD0E068002828681DD03D
:101FA00040F480702860FEF723FE07460BE02868A7
:101FB00040050BD5E0680028A3D007E0FEF718FE27
:101FC000C01B0228B9D828684005F7D56868217C6D
:101FD00020F0F85040EA016068600FE020F4807063
:101FE0002860FEF705FE074605E092E1FEF700FED9
:101FF000C01B0228A1D828684005F7D42078000724
:1020000031D56069E0B1012806D040F28D2134A0BD
:1020100002F07DFE606998B1D5F8940040F00100AF
:10202000C5F89400FEF7E4FD074604E0FEF7E0FD86
:10203000C01B022891D8D5F894008007F6D512E08D
:10204000D5F8940020F00100C5F89400FEF7D0FD0B
:10205000074604E0FEF7CCFDC01B0228B2D8D5F835
:1020600094008007F6D4207840076FD5A068002739
:1020700040B1012806D0052804D04FF4387118A0CB
:1020800002F045FEA86DC00008D4A86D40F0805055
:10209000A865A86D012700F08050009022480168D3
:1020A000C90513D40168814641F480710160FEF7CF
:1020B0009FFD804606E000BFFEF79AFDA0EB0800FA
:1020C000022897D8D9F80000C005F5D5A0680128E6
:1020D0003DD00528D5F890003ED020F0010025E045
:1020E0002E2E2F447269766572732F53544D3332FE
:1020F0004C3478785F48414C5F4472697665722F42
:102100005372632F73746D33326C3478785F686107
:102110006C5F7263632E630000100240544E00082F
:10212000200000201800002000700040C5F890003A
:10213000D5F8900020F00400C5F89000A06841F2A6
:102140008839D0B1FEF754FD804611E029E0D5F87A
:10215000900040F00100EFE740F00400C5F8900067
:10216000F5E700BFFEF744FDA0EB08014945A8D8FC
:10217000D5F890008007F5D50EE0FEF739FD8046D2
:1021800006E000BFFEF734FDA0EB0801494598D8F2
:10219000D5F890008007F5D41FB1A86D20F08050CD
:1021A000A8652078800632D5606AE8B1012807D09A
:1021B00040F24531AFF2D80002F0A9FD606A98B153
:1021C000D5F8980040F00100C5F89800FEF710FD22
:1021D000074604E0FEF70CFDC01B0228C7D8D5F85F
:1021E00098008007F6D512E0D5F8980020F001009D
:1021F000C5F89800FEF7FCFC074604E0FEF7F8FC83
:10220000C01B0228B3D8D5F898008007F6D4A06A7E
:1022100000287DD001280CD0022814D040F26E3165
:10222000AFF2441002F073FDA06A0028F1D002283A
:1022300009D00C2E6DD0286820F080702860FEF741
:10224000D7FC0446E4E0E06A58B1012809D002282E
:1022500007D0032805D040F27631AFF27C1002F0AF
:1022600056FD206B401E072805D940F27731AFF2AA
:10227000901002F04CFD606B08384E2805D94FF4E1
:102280005E71AFF2A41002F042FDA06B801E1D280B
:1022900005D940F27A31AFF2B81002F038FDE06BA8
:1022A00002280BD0042809D0062807D0082805D01A
:1022B0004FF45F71AFF2D81002F029FD206C0228B4
:1022C0000BD0042809D0062807D0082805D040F2F2
:1022D0007D31AFF2F41002F01AFDE868E26A00F016
:1022E0000301914229D1216B00F0700209011039DC
:1022F000914222D1626B00F4FE41B1EB022F1CD15E
:1023000094F8382000F07841B1EBC26F15D101E0AC
:1023100074E086E0A18F00F4C00249084905A1F5E8
:102320000011914209D194F8401000F0C0604908B2
:102330004906A1F10071814249D00C2E72D0286863
:1023400040016FD4286820F080702860FEF750FCB0
:10235000064604E0FEF74CFC801B022855D828688E
:102360008001F7D4F4E90B016FF00F0202EB0111C9
:102370000843218A5204490802EB4151A26841EA0C
:1023800002210843217D4FF07E42490802EB416162
:102390000843217B40EAC160E968234A11400843B1
:1023A000E860286840F080702860E86840F080703D
:1023B000E860FEF71DFC044605E000BFFEF718FCD0
:1023C000001B022821D828688001F7D527E028685B
:1023D000800124D4286840F080702860E86840F0CC
:1023E0008070E860FEF704FC044604E0FEF700FCA1
:1023F000001B022809D828688001F7D50FE000BF2C
:10240000FEF7F6FB001B022802D90320BDE8F88383
:1024100028688001F4D4E86804490840E860002096
:10242000F4E7FFE70120F1E78C809D01FCFFEEFE61
:1024300010B5401EB0F1807F01D3012010BD4FF0D8
:10244000E02460610F21601701F0F8FF0020A06117
:1024500007202061002010BD7047704770470000C2
:102460002DE9F05F04460068DFF83081DFF8309135
:102470000D464FF0804B40450ED058450CD0494991
:10248000884209D04849884206D0484504D040F2E5
:10249000AC7146A002F03BFC286890B1102810D027
:1024A00020280ED030280CD040280AD0502808D040
:1024B000602806D0702804D040F2AD713BA002F035
:1024C00026FCA868802805D020B140F2AE7137A064
:1024D00002F01DFC94F83C0001285CD04FF0010A8A
:1024E00084F83CA0022084F83D0020684668876894
:1024F000404537D1686888B3B0F5801F2ED0B0F55D
:10250000001F2BD0B0F5401F28D0B0F5800F25D08C
:10251000B0F5A00F22D0B0F5C00F1FD0B0F5E00F7E
:102520001CD0B0F5000F19D0B0F5100F16D0B0F5D3
:10253000200F13D0B0F5300F10D0B0F5400F0DD0F4
:10254000B0F5500F0AD0B0F5600F07D0B0F5700F9E
:1025500004D04FF4F86115A002F0D9FB26F4700006
:102560006E680643286826F07001084321684860B9
:102570002068404503D0584501D0484504D1A9689A
:1025800027F080021143816084F83DA0002084F888
:102590003C00BDE8F09F0220FBE70000002C01405A
:1025A0000040014000100040001400402E2E2F4437
:1025B0007269766572732F53544D33324C34787888
:1025C0005F48414C5F4472697665722F5372632F86
:1025D00073746D33326C3478785F68616C5F7469E2
:1025E0006D5F65782E63000070B504003ED03D49F4
:1025F00020684FF08045884212D0A84210D03A4956
:1026000088420DD0394988420AD03949884207D0DA
:102610003849884204D04FF48B7137A002F077FB21
:10262000A06860B110280AD0202808D0402806D021
:10263000602804D040F217112FA002F068FB206937
:1026400050B1B0F5807F07D0B0F5007F04D04FF4D3
:102650008C7129A002F05BFB2068A842E06807D0DB
:102660004FF6FE71401E884208D902E0012070BD7D
:1026700020B940F2191120A002F049FBA06930B145
:10268000802804D04FF48D711BA002F040FB94F819
:102690003D0028B9002084F83C00204600F048F8AE
:1026A000022084F83D00211D206801F0D3FA0120AA
:1026B00084F8480084F83E0084F83F0084F8400025
:1026C00084F8410084F8420084F8430084F8440010
:1026D00084F8450084F8460084F8470084F83D00FB
:1026E000002070BD002C014000100040001400408C
:1026F00000400140004401402E2E2F44726976654F
:1027000072732F53544D33324C3478785F48414CB8
:102710005F4472697665722F5372632F73746D33E1
:10272000326C3478785F68616C5F74696D2E630019
:1027300008B50068B0F1804F12D10A48816D41F0B0
:1027400001018165806D002200F0010000901146BA
:102750001C20FEF7F7FDBDE808401C20FEF7C0BDB9
:1027600008BD0000001002402DE9F0410746006856
:102770001D4C1E4D4FF08046A04211D0B0420FD0EC
:102780001B4988420CD01B49884209D0A84207D077
:102790001949884204D040F2D31118A002F0B7FAC8
:1027A00097F83D00012802D00120BDE8F081022009
:1027B00087F83D003868C16841F00101C1603868A0
:1027C000A04203D0B04201D0A84207D18168194A83
:1027D0001140062906D0B1F5803F03D0016841F0D1
:1027E000010101600020E0E7002C014000400140B1
:1027F0000010004000140040004401402E2E2F44E1
:102800007269766572732F53544D33324C34787835
:102810005F48414C5F4472697665722F5372632F33
:1028200073746D33326C3478785F68616C5F74698F
:102830006D2E6300070001002DE9F05F054690F85A
:102840003C000C464FF0000901283BD04FF0010A34
:1028500085F83CA0022085F83D0020684FF48056A2
:102860004FF40058B04215D0702813D0404511D015
:1028700040280FD050280DD060280BD050B1102820
:1028800008D0202806D0302804D041F25651A7A005
:1028900002F03DFA29688868B24A104020F47F406F
:1028A00088604FF080432268AF48B049DF13502A58
:1028B0007ED00FDC202A04D007DC002AFBD0102AAF
:1028C00077D11BE10220BDE8F09F302AF9D0402AE1
:1028D000F6D1EAE0602A6DD0702A54D0B3465A454A
:1028E0003BD04646B242EBD12968814206D099429C
:1028F00004D041F281518DA002F009FAA06858B1CC
:10290000584509D0B04207D0B0F5405F04D041F23D
:10291000845186A002F0FBF96068B84209D040B14A
:10292000022806D00A2804D041F285517FA002F087
:10293000EEF9E0680F2804D941F286517BA002F03D
:10294000E6F9D4E90121E368286801F0BFF92868B5
:10295000816841F480418160E1E02A688242FBD0D5
:102960009A42F9D082488242F6D082488242F3D01D
:102970008A42F1D080488242EED041F262516BA08F
:1029800002F0C5F9CBE02A68824208D09A4206D00C
:102990008A4204D041F2695164A002F0B8F9A068FB
:1029A00078B1B0420DD040450BD0B0F5405F02E0A9
:1029B00027E0B2E04EE004D041F26C515BA002F09F
:1029C000A6F96068B84209D040B1022806D00A28AA
:1029D00004D041F26D5155A002F099F9E0680F283A
:1029E00004D941F26E5151A002F091F9D4E90121CC
:1029F000E368286801F06AF92868816841F0770186
:102A0000A9E72A68824208D09A4206D08A4204D0B6
:102A100041F2955145A002F07AF96068B84209D0B8
:102A200040B1022806D00A2804D041F298513FA0B4
:102A300002F06DF9E0680F2804D941F299513BA0EA
:102A400002F065F9E2686168286801F051F95021E7
:102A5000286827E02A68824208D09A4206D08A4233
:102A600004D041F2A55131A002F051F96068B8429A
:102A700009D040B1022806D00A2804D041F2A8515A
:102A80002AA002F044F9E0680F2804D941F2A951C4
:102A900026A002F03CF9E2686168286801F039F983
:102AA0006021286801F01CF939E02A68824208D0C8
:102AB0009A4206D08A4204D041F2B5511BA002F0DE
:102AC00026F96068B84209D040B1022806D00A2829
:102AD00004D041F2B85115A002F019F9E0680F28AE
:102AE00004D941F2B95111A002F011F9E26861680C
:102AF000286801F0FDF840212868D3E72A6882425F
:102B000008D09A4206D08A4204D041F2C85107A0A8
:102B100002F0FDF821682868C4E74FF0010985F844
:102B20003DA0002085F83C004846CCE62E2E2F44E0
:102B30007269766572732F53544D33324C34787802
:102B40005F48414C5F4472697665722F5372632F00
:102B500073746D33326C3478785F68616C5F74695C
:102B60006D2E630088FFFEFF002C014000400140F5
:102B700000100040001400400044014070472DE95F
:102B8000F04104460068C66805694FF00007A907D0
:102B900013D5B10711D5F91E0161012020772068F6
:102BA00080698007204602D0FFF7E8FF04E000F0CC
:102BB0008BF8204600F089F82777680716D570074C
:102BC00014D521686FF00400086102202077206886
:102BD000806910F4407F204602D0FFF7CFFF04E069
:102BE00000F072F8204600F070F82777280715D516
:102BF000300713D521686FF00800086104202077A2
:102C00002068C0698007204602D0FFF7B7FF04E0C4
:102C100000F05AF8204600F058F82777E80616D555
:102C2000F00614D521686FF01000086108202077A5
:102C30002068C06910F4407F204602D0FFF79EFF55
:102C400004E000F041F8204600F03FF82777E8075D
:102C500008D0F00706D021686FF001000861204617
:102C600000F034F8280601D4A80408D5300606D5AB
:102C700021686FF4025008612046FFF7EEFBE8057B
:102C800008D5300606D521686FF4807008612046AB
:102C9000FFF7E2FB680608D5700606D521686FF0DD
:102CA00040000861204600F01DF8A8060AD5B006CD
:102CB00008D521686FF0200008612046BDE8F0418A
:102CC000FFF7CCBBBDE8F0817047704703498842ED
:102CD00003D104210248FDF727BF70477C00002084
:102CE0000008004870477047704770472DE9F04171
:102CF00002680446D0691168936840F60F052842BF
:102D00004FF000054FF0020605D187067ED58F06ED
:102D10007CD5A16E33E1DFF894C203F0010701EA2C
:102D20000C0C57EA0C0C71D05FEAC07C0CD05FEA47
:102D3000C15C09D54FF0010CC2F820C0D4F8842042
:102D400042F00102C4F88420820709D5DA0707D0CF
:102D500022681662D4F8842042F00402C4F8842069
:102D600042070AD5DA0708D0236804221A62D4F889
:102D7000842042F00202C4F8842002070CD501F03E
:102D800020023A4308D0236808221A62D4F884202B
:102D900042F00802C4F8842002050BD54A0109D587
:102DA00023684FF400621A62D4F8842042F02002B3
:102DB000C4F88420D4F88420002A36D0800605D5B3
:102DC000880603D5A16E09B120468847D4F884004F
:102DD00021688968490602D410F0280F27D02046C0
:102DE00001F00AF92068806840061BD52068083089
:102DF00050E8001F21F0400140E80012002AF5D100
:102E0000606F78B16A498163606F00E015E0FDF79B
:102E1000FCFC002809D0606F816B00E02046BDE813
:102E2000F04108472046FFF760FFBDE8F0812046EB
:102E3000FFF75BFFC4F88450F7E7D4F860C02027A1
:102E4000BCF1010F7ED15FEAC06C7BD55FEAC16C3B
:102E500078D5102010622068806840064FD5616FD9
:102E60000A6850680004000C3DD0B4F85830834222
:102E700039D9A4F85A000868006880062BD4206865
:102E800050E8001F21F4807140E80012002AF6D1BA
:102E90002068083050E8001F21F0010140E80012CE
:102EA000002AF5D12068083050E8001F21F04001C9
:102EB00040E80012002AF5D1C4F880702566206829
:102EC00050E8001F21F0100140E80012002AF6D15E
:102ED000606FFDF775FC6666B4F85800B4F85A10D8
:102EE000401A81B207E0B4F8581081429DD11068B1
:102EF00080069AD566662046FFF7F5FE95E7B4F89A
:102F00005800B4F85A10401A81B2B4F85A00002898
:102F10008BD0002989D0226852E8000F20F49070ED
:102F200042E80003002BF6D12068083050E8002F5B
:102F300022F0010240E80023002BF5D1C4F8807094
:102F4000256600E00AE0A566226852E8000F20F03E
:102F5000100042E80003002BF6D1CBE7C60209D5EA
:102F60005B0207D54FF4801010622046BDE8F041A7
:102F7000FFF7BABE020606D50A0604D5E16E00299F
:102F80007FF44CAF51E74006B8D54806B6D5204689
:102F9000026852E8001F21F0400142E80013002BB4
:102FA000F6D1C767C56600F07BF93EE72001000453
:102FB000E53F000870B5040012D0A069264900283A
:102FC000264A274B274D20680CD0884217D09042C4
:102FD00015D0984213D0A84211D04FF4A9710BE03C
:102FE000012070BD88420AD0904208D0984206D095
:102FF000A84204D040F257111BA001F088FEE06FF8
:1030000028B9002084F87800204600F04BF82420EE
:10301000E0672068016821F001010160606A10B179
:10302000204600F089FE204601F00CF80128D8D097
:103030002068416821F4904141602068816821F056
:103040002A0181602068016841F001010160204689
:10305000BDE8704000F072BF0038014000440040FD
:1030600000480040008000402E2E2F447269766593
:1030700072732F53544D33324C3478785F48414C3F
:103080005F4472697665722F5372632F73746D3368
:10309000326C3478785F68616C5F756172742E632E
:1030A000000000002DE9F0439DB00446142117A84C
:1030B000FDF7C0F85C216846FDF7BCF84A49206876
:1030C0004A4C0326072700254FF090494FF002088D
:1030D00088422AD10120009008956846FEF726FA1A
:1030E00008B1FDF75BFB206E40F480402066206E47
:1030F00000F480401C90E06C40F00100E064E06C63
:1031000019AA00F001001C904FF4C060CDE9170827
:1031100082E8E00017A94846FDF7B0FB00221146FF
:103120002520FEF70FF925202BE0314988422DD1CB
:103130006846CDF800800995FEF7F8F908B1FDF76B
:103140002DFBA06D40F40030A065A06D00F40030B0
:103150001C90E06C40F00100E064E06C19AA00F003
:1031600001001C900C20CDE9170882E8E00017A9A7
:103170004846FDF783FB002211462620FEF7E2F8C1
:103180002620FEF7ADF81DB0BDE8F083194988424E
:10319000F9D104200A9500906846FEF7C7F908B1F6
:1031A000FDF7FCFAA06D40F48020A065A06D00F44E
:1031B00080201C90E06C40F00400E064E06C19AAF0
:1031C00000F004001C903020CDE9170882E8E000F0
:1031D00017A90948FDF752FB002211462720FEF7E8
:1031E000B1F82720CDE70000003801400010024070
:1031F0000044004000480040000800482DE9F84322
:103200000446C06F984616460D46202802D002207C
:10321000BDE8F88395B18EB10020C4F88400212068
:10322000E067FDF7E5FCA4F850608146A4F8526021
:10323000A0682027B0F5805F02D003E00120E7E717
:10324000206910B12E46002510E000260EE08021F6
:10325000204601F085F8C0B9D6B116F8010B2168F7
:103260000885B4F85200401EA4F85200B4F8520089
:103270004B464FF00002CDF800800028E7D14FF018
:103280004001204601F06CF838B1E7670320BFE742
:1032900035F8020BC0F30800E1E7E7670020B7E765
:1032A0007047FEE701688A69D243920701D4002281
:1032B0008A6200688169C943C90703D0816941F006
:1032C00001018161704700002DE9F0470446006864
:1032D00088460026816935461746C9064FF0200901
:1032E0003FD51021C1612FE0B8F1FF3F2CD0FDF791
:1032F0007FFCC11B414502D8B8F1000F24D12068E2
:10330000416894F8422001F480418369DB431B0447
:1033100015D4B1F5804F12D0202A10D0416841F465
:1033200080414160FDF764FC074608E0FDF760FC62
:10333000C01B192803D945F02005012604E02068A8
:103340008069C0438006F1D420688069C0F34010D2
:103350003043C9D016B92168C1F81C9045F0040566
:10336000012621688869C20505D54FF4807245F0B1
:103370000105CA610126410509D522684FF4806123
:1033800045F00805D1610126800502D40AE08005D8
:1033900007D521684FF4007045F00205C861012689
:1033A00000E086B12046FFF77DFF54F8241B4868F3
:1033B000064A10404860206A2843206284F81D9025
:1033C0000020A07720773046BDE8F08700E800FEB7
:1033D0002DE9F0410F46064600682049069C1D462F
:1033E000904688420AD01E49884207D01D4988422B
:1033F00004D041F6A9411CA001F089FCB5F1807F01
:1034000008D0B5F1007F05D025B141F6AA4116A03C
:1034100001F07DFC224884420BD02248844208D02F
:103420002148844205D024B141F6AB410EA001F001
:103430006EFCC7F3090141EA084032682843204383
:10344000516820F000404FF4806303EA5453174C56
:103450002343994301435160BDE8F081005400408B
:1034600000580040005C00402E2E2F4472697665A3
:1034700072732F53544D33324C3478785F48414C3B
:103480005F4472697665722F5372632F73746D3364
:10349000326C3478785F68616C5F6932632E6300E8
:1034A000004000800024008000200080FF63FF03B4
:1034B0002DE9F0411D4617460E460446DDF81880FA
:1034C00027E0424629462046FFF7FEFE10B10120C4
:1034D000BDE8F081681C1CD0FDF78AFBA0EB08005A
:1034E000A84200D8ADB92068806936EA00000ED045
:1034F0000020B8420DD154F8440F40F0200044F8A9
:103500000409202060700020A0702070DFE70120F7
:10351000EFE72068806936EA000004D00020B84256
:10352000CFD00020D4E70120F9E700002DE9F047D3
:10353000002591460F4604462E464FF020083CE0F9
:103540004A4639462046FFF7BFFE00B101252068F4
:103550008169C94389061AD4CDB981698169C94392
:10356000C90613D41021C161042060642168C1F828
:103570001C8021684A68154B1A404A6084F84180D3
:1035800084F8426084F84060012500E06664FDF73D
:103590002FFBA0EB0900B84200D877B96DB92068BD
:1035A0008069C043400708D5606C40F0200060642B
:1035B00084F8418084F84060012520688069C0F368
:1035C00080002843BCD02846BDE8F08700E800FE14
:1035D00070B516460D4604461EE032462946204682
:1035E000FFF772FE08B1012070BDFDF701FB801BE3
:1035F000A84200D885B920688069C04380060BD5F1
:1036000054F8440F40F0200044F804092020607072
:103610000020A0702070E6E720688069C043800623
:10362000DBD4002070BD70B516460D46044620E080
:10363000324629462046FFF747FE08B1012070BDFB
:10364000681C16D0FDF7D4FA801BA84200D885B9B3
:1036500020688069C04380070BD554F8440F40F0C0
:10366000200044F80409202060700020A070207021
:10367000E4E720688069C0438007D9D4002070BD8A
:103680002DE9F04387B014216846FCF7D3FD454887
:10369000C16C41F00401C164C16C01F004010591E9
:1036A000C16C41F08001C164C16C01F080010591E1
:1036B000C16C41F00101C164C16C01F001010591CF
:1036C000C16C41F00201C164C16C01F002010591BD
:1036D000C16C41F00801C164C06C334F00F00800B8
:1036E0000590012207213846FDF74EFADFF8BC802D
:1036F000002204214046FDF747FADFF8B49000228B
:1037000010214846FDF740FA4FF4005000240125EF
:103710008DE8310069463846FDF7B0F84DF6C870BF
:103720000326CDE90006694602943846FDF7A6F85F
:103730000720CDE90005CDE9025469463846FDF77A
:103740009DF849F6F310CDE90006694602944FF062
:103750009040FDF793F84FF62F70CDE900066946CB
:1037600002944846FDF78AF804200090CDE9015400
:10377000694640460394FDF781F810200090CDE99A
:103780000154694648460394FDF778F80820CDE9CE
:103790000006694602940748FDF770F807B0BDE8D7
:1037A000F08300000010024000080048000C0048B0
:1037B00000040048001C0048134810B5114901607E
:1037C0001249416000210122C0E9021201614161F8
:1037D0008161C1610162FDF7DDFA08B1FCF7DEFF2E
:1037E00000210948FDF70AFA08B1FCF7D7FF0021CC
:1037F0000548FDF76BFA002803D0BDE81040FCF740
:10380000CDBF10BD0054004028000020EC9C90105B
:1038100010B588B0002417480094019402940394D2
:10382000049405944FF08041069401604F21C0E953
:1038300001141149C0E9031480218161FEF7D4FE0F
:1038400008B1FCF7ABFF4FF480500090694609487F
:10385000FEF7F2FF08B1FCF7A1FF049404A90548A4
:103860000694FEF7FDFD002801D0FCF797FF08B095
:1038700010BD00007C0000209F8601000D4810B59F
:103880000B4901604FF4E1314160002181600C225D
:10389000C160C0E904128161C16101624162FFF748
:1038A00089FB002803D0BDE81040FCF777BF10BDAE
:1038B00000380140C80000200D4810B50B490160D8
:1038C0004FF4E1314160002181600C22C160C0E908
:1038D00004128161C16101624162FFF76BFB002844
:1038E00003D0BDE81040FCF759BF10BD00440040B4
:1038F000500100200D4810B50B4901604FF4E13133
:103900004160002181600C22C160C0E90412816124
:10391000C16101624162FFF74DFB002803D0BDE8A1
:103920001040FCF73BBF10BD00480040D80100200C
:10393000FEE7FEE7704700002DE9F041044600680D
:103940008846002650B1012808D0022806D0032856
:1039500004D040F6623167A001F0D9F96068401EDA
:10396000072804D940F6633162A001F0D0F9A068BD
:1039700008384E2804D940F664315EA001F0C7F93A
:10398000A069C10303D4C10201D4C10102D56849B1
:10399000084204D040F6653156A001F0B8F9654DF3
:1039A000E86880070ED0E86800F0030120688142D3
:1039B00017D1B0B1E8686168C0F30210401C8842BA
:1039C0000FD121E02068012804D0022805D0032867
:1039D00007D108E02968890701E02968490500291D
:1039E00007DB012682E02968890302D4296849039C
:1039F000F5E7E96862686FF00F0321F0730103EBEC
:103A0000021211430143E960286820F080602860B9
:103A1000FDF7EEF8074604E0FDF7EAF8C01B0228C0
:103A20005BD828680001F7D4B8F1000F26D0B8F1B0
:103A3000010F34D0606902280AD0042808D0062873
:103A400006D0082804D040F6EE312AA001F05FF934
:103A5000207D4FF07E41400801EB4060A16840EAC4
:103A600001202969344A114008432861286840F040
:103A700080602860FDF7BCF8074630E0E068801EF3
:103A80001D2804D940F6B8311AA001F040F9A06809
:103A9000217B000240EAC1602969284AE3E72069E6
:103AA00002280AD0042808D0062806D0082804D006
:103AB00040F6DC310FA001F02AF9208A20494008A5
:103AC00001EB4050A16840EA012029691D4ACAE77C
:103AD000FDF78EF8C01B022801D9032606E02868EE
:103AE0000001F5D52869A169084328613046BDE881
:103AF000F08100002E2E2F447269766572732F5369
:103B0000544D33324C3478785F48414C5F4472698D
:103B10007665722F5372632F73746D33326C347801
:103B2000785F68616C5F7263635F65782E63000025
:103B3000FFFFEEFE00100240FF80FFF9FF80FF074D
:103B40000000E0FFFF809FFFF8B51C4D06460024F3
:103B5000A86DC00002D5FDF7E1FC0DE0A86D40F0B6
:103B60008050A865A86D00F080500090FDF7D6FC4D
:103B7000A96D21F08051A965B0F5007F04D0802E99
:103B800007D94FF003040AE0802E08D9A02E01D8EF
:103B900004E001D1022402E0702E00D10124084883
:103BA000016821F0070121430160006800F007006F
:103BB000A04201D00120F8BD0020F8BD0010024055
:103BC000002002407047FDF73BBB10B596B0442182
:103BD0006846FCF72FFB142111A8FCF72BFB4FF4D0
:103BE0000070FDF73FFC08B172B6FEE70121080442
:103BF000CDE90010022003240A90CDE90B411421E5
:103C00000D910721CDE90E1010906846FEF77AF865
:103C100008B172B6FEE70F20CDE911040020139021
:103C200014901590042111A8FDF7D4FE002801D0AE
:103C300072B6FEE716B010BD0248016841F470018B
:103C40000160704788ED00E00148FEF798BF000072
:103C50007C00002070B50268194B4FF080469842F6
:103C600001D0B04203D122F070044A682243154CBF
:103C7000154D984205D0B04203D0A04201D0A842D1
:103C800003D122F44076CA6832434E6922F08002A2
:103C9000324302608A68C2620A688262984203D034
:103CA000A04201D0A84201D109690163012141610B
:103CB0000169C90703D0016921F00101016170BDEB
:103CC000002C0140004001400044014010B58468D0
:103CD00042EA032224F47F440A432243826010BD57
:103CE000826822F070020A4342F007018160704747
:103CF00010B5036A046A24F001040462846924F0A4
:103D0000F00444EA021423F00A020A4384610262C6
:103D100010BD10B5036A046A24F0100404628469BB
:103D200023F0A00324F4704444EA023243EA011170
:103D30008261016210BD000070B50446406AFF2830
:103D400004D940F64D516BA000F0E1FF94F8240037
:103D5000000710D5606B38B1B0F5004F04D040F6C5
:103D6000525164A000F0D3FF20684168626B21F4D7
:103D700000411143416094F82400C00710D0A06AAC
:103D800038B1B0F5003F04D040F6595159A000F0C9
:103D9000BEFF20684168A26A21F4003111434160EE
:103DA00094F82400800710D5E06A38B1B0F5803F60
:103DB00004D04FF456614FA000F0A9FF206841687D
:103DC000E26A21F480311143416094F824004007F5
:103DD00010D5206B38B1B0F5802F04D040F6675174
:103DE00044A000F094FF20684168226B21F48021F8
:103DF0001143416094F82400C00610D5A06B38B17F
:103E0000B0F5805F04D040F66E513AA000F07FFF1D
:103E100020688168A26B21F480511143816094F87D
:103E20002400800610D5E06B38B1B0F5005F04D0F7
:103E300040F675512FA000F06AFF20688168E26BA0
:103E400021F400511143816094F8240040063AD5D2
:103E50003749206888420AD03649884207D0364917
:103E6000884204D040F67C5122A000F050FF206C24
:103E70004FF4801530B1A84204D040F67D511DA00A
:103E800000F045FF20684168226C21F48011114345
:103E90004160206CA84216D1606C68B1B0F5001F7B
:103EA0000AD0B0F5800F07D0B0F5C00F04D040F6AF
:103EB000825110A000F02BFF20684168626C21F451
:103EC000C0011143416094F82400000610D5A06C95
:103ED00038B1B0F5002F04D040F68A5105A000F0AB
:103EE00016FF20684168A26C21F400211143416053
:103EF00070BD00002E2E2F447269766572732F53A9
:103F0000544D33324C3478785F48414C5F44726989
:103F10007665722F5372632F73746D33326C3478FD
:103F2000785F68616C5F756172742E6300000000D9
:103F30000038014000440040004800402DE9F843AB
:103F400000260446C0F88460FCF752FE80462068D4
:103F500000684FF0200500076FF07E4712D54346FA
:103F6000002229042046009700F0FAF950B1216898
:103F700051E8000F20F0800041E80002002AF6D14D
:103F8000E56721E020680068400722D5434600220B
:103F90004FF480012046009700F0E2F9C8B1216893
:103FA00051E8000F20F4907041E80002002AF6D199
:103FB0002068083050E8001F21F0010140E800129D
:103FC000002AF5D1C4F8805084F878600320BDE859
:103FD000F883E567C4F8805044F8606F6660267621
:103FE0000020F4E710B5806A0021A0F85A10A0F86C
:103FF0005210FEF77AFE10BD016851E8002F22F43E
:10400000907241E80023002BF6D10168083151E895
:10401000002F22F0010241E80023002BF5D1016EB0
:10402000012908D1026852E8001F21F0100142E87E
:104030000013002BF6D12021C0F88010002101666A
:10404000816670472DE9F04704464068AC49002678
:10405000884204D340F65841AAA000F058FEA06858
:104060004FF48055B0F1805F07D030B1A84204D042
:1040700040F65941A3A000F04AFEDFF8C482206850
:104080004FF400514045E0684FF4006906D1002824
:104090001AD0884218D040F65C4112E0A8420AD0FB
:1040A00048B1B0F5405F06D0884204D04FF4466175
:1040B00094A000F02CFE206A30B1484504D040F6B0
:1040C000614190A000F023FE20694FF4806748B161
:1040D000B84207D0B0F5C06F04D040F6644189A063
:1040E00000F015FE606930F00C0100D120B940F6F7
:1040F000654184A000F00BFEA06968B1B0F5807F37
:104100000AD0B0F5007F07D0B0F5407F04D040F66C
:1041100066417CA000F0FBFDE0694FF4004530B142
:10412000A84204D040F6674176A000F0F0FD216976
:10413000A068E269084361691143084321680A687D
:10414000804B1A4002430A6020684168E26821F40B
:104150004051114341602168A069414501D0226A64
:1041600010438A6822F4306202438A6076492268EA
:1041700076488A420DD1D0F8880010F0030006D0AE
:10418000012841D0022831D003282ED13EE0012061
:104190002CE06F498A420BD1D0F8880010F00C0057
:1041A00024D0042822D008282CD00C281DD12DE0A2
:1041B00068498A420BD1D0F8880010F0300015D041
:1041C000102821D020281DD030280ED11EE04245D5
:1041D0000BD1D0F8880010F4406007D0B84213D05B
:1041E00048450FD0B0F5406F10D010205A49002735
:1041F00042452FD160B102280DD004280DD00828E7
:1042000074D125E00220F1E70420EFE70820EDE774
:10421000FDF702FD03E0084602E0FDF721FD78B35B
:10422000626802EB4201814260D8B0EB023F5DD888
:10423000010E03025008181879410023FBF7C2FF52
:10424000464AA0F54071914250D82168C8604EE0BE
:104250002846E5E7E2694FF6EF78AA4229D1092816
:1042600044D2DFE800F005080B430E43434324002B
:10427000FDF7D2FC07E0FDF7E1FC04E0084603E0AF
:1042800035E0FDF7EDFC90B34100606801EB5001B3
:10429000B1FBF0F0A0F11001414527D84FF6F071C5
:1042A0000140C0F3420001432068C1601FE028467E
:1042B000EAE709281AD2DFE800F005080B190D1902
:1042C00019191F00FDF7A8FC06E0FDF7B7FC03E095
:1042D000084602E0FDF7C4FC48B1616800EB5100FC
:1042E000B0FBF1F0A0F11001414507D90126A76606
:1042F0003046E766BDE8F0872846EEE780B2A4E7DF
:10430000819698002E2E2F447269766572732F5312
:10431000544D33324C3478785F48414C5F44726975
:104320007665722F5372632F73746D33326C3478E9
:10433000785F68616C5F756172742E6300000000C5
:1043400000800040F369FFEF003801400010024098
:1043500000440040004800400024F400FFFC0F002F
:104360002DE9F047994617460D4604464FF00008E0
:10437000089E33E0701C31D0FCF73AFCA0EB09003A
:10438000B04218D8BEB120680168490726D5802DF3
:1043900024D0402D22D0C169C94309070DD4082576
:1043A00005622046FFF728FEC4F8845084F8788020
:1043B0000120BDE8F0870320FBE7C069C04300058A
:1043C0000CD421684FF4006008622046FFF714FE09
:1043D0002020C4F8840084F87880ECE72068C06965
:1043E00035EA000004D00020B842C3D00020E0E746
:1043F0000120F9E70148FEF779BC0000C800002061
:104400000148FEF773BC0000500100200148FEF790
:104410006DBC0000D8010020FEE700000FB4054B82
:1044200010B503A9044A029800F0DAF810BC5DF850
:1044300014FB0000114D0008240000200907090E9C
:10444000002804DB00F1E02080F80014704700F041
:104450000F0000F1E02080F8141D704702E008C84A
:10446000121F08C1002AFAD170477047002001E0EE
:1044700001C1121F002AFBD1704700002DE9FF5F28
:10448000DDE90220010DDDF838B0024318D044F612
:104490001050A1F2FF3141430D140F98012820D094
:1044A000A5EB0B00401C5FEA000A4FF00004474EEA
:1044B000DFF81C91A046504616D5CAF1000728E047
:1044C0000F98012443A2012808D0002100980F9BD7
:1044D000C0E90021C0E90243BDE8FF9F6FEA0B017C
:1044E000F4E7CBF10000DEE7074612E0F80707D05B
:1044F0002246334640464946FBF796FF80468946AA
:104500002246334610461946FBF78EFF04460E46F8
:104510007F10002FEAD1DDE90201BAF1000F424617
:104520004B4602DAFBF780FF01E0FBF7EFFF0446A2
:104530000E460022284BFCF771F803D84FF0FF30ED
:10454000014607E00022254B20463146FBF7C5FE19
:10455000FCF74BF8102409E0002C0ADB0A220023A8
:10456000FBF730FE019B30321A55641E50EA0102FF
:10457000F2D1641C019AC4F1110314440F9A012A68
:1045800003D0012208430DD10AE0084304D00020E3
:104590004FF0110B0F9080E7A3EB0B056D1E0DE0A4
:1045A0005B4504DD4FF0000205F1010504E003DA8C
:1045B0004FF00002A5F10105002AECD000980F99F8
:1045C000C0E90231C0E9004586E700000000244050
:1045D0000000F03F300000000000F0430000E03F2A
:1045E0002DE9FF4F95B09B468946064600250FE210
:1045F000252877D100242746F84A0121059400E0B8
:10460000044316F8013F203B01FA03F01042F7D1B2
:1046100030782A2811D06FF02F033078A0F13002C3
:10462000092A16D8059A44F0020402EB820203EB31
:1046300042021044761C0590EFE759F8042B0592CE
:10464000002A03DA504244F40054059044F0020476
:10465000761C30782E2816D116F8010F44F0040489
:104660002A280DD06FF02F023078A0F13003092BEB
:1046700009D807EB870302EB4303C718761CF3E75F
:1046800059F8047B761C30786C280FD006DC4C2857
:1046900017D068280DD06A2814D104E0742810D0EF
:1046A0007A280FD10DE044F400140AE044F4801499
:1046B00001E044F440147278824202D104F580147F
:1046C000761C761C307866280BD013DC582877D0FF
:1046D00009DC002875D04528F6D04628F4D04728B4
:1046E0001AD19DE118E0632835D0642879D0652877
:1046F00012D195E1702873D008DC6728F1D06928C1
:104700006FD06E280DD06F2806D1B5E073282CD05D
:10471000752875D0782874D05A46179990476D1C23
:1047200075E1C4F30250022809D003280DD0D9F84E
:10473000001004280DD00D6009F1040967E1D9F8D3
:104740000010EA17C1E90052F6E7D9F800100D8011
:10475000F2E70D70F0E719F8041B8DF80010002047
:104760008DF80100EA46012003E059F804AB4FF050
:10477000FF3061074FF0000102D40DE008F10101A4
:104780008846B9420FDA8045F8DB1AF8081000298C
:10479000F4D108E008F1010188468142FADB1AF8F9
:1047A00008100029F6D105985B46A0EB08072146C2
:1047B0003846179A00F094FA284400EB080507E001
:1047C0004DE029E10DE01AF8010B5A461799904780
:1047D000B8F10108F7D25B4621463846179A13E133
:1047E00042E00A220092C4F302524FF0000A022A69
:1047F00008D059F804CB032A4FEAEC710AD00DE037
:1048000029E02AE009F1070121F00702F2E802C1DC
:10481000914609E00FFA8CFC4FEAEC71042A03D1AF
:104820004FFA8CFC4FEAEC71002907DA0A460021A6
:10483000DCF1000C61EB02012D2202E0220504D51F
:104840002B228DF80420012203E0E20701D0202270
:10485000F7E7904659E00A2102E010220DE010210E
:104860004FF0000A00910BE010224FF0000A44F0D4
:1048700004040827009203E008224FF0000A009287
:10488000C4F30252022A05D059F804CB0021032AAE
:1048900008D009E009F1070121F00702F2E802C19E
:1048A000914605E01FFA8CFC042A01D10CF0FF0CA4
:1048B0004FF00008220728D5702806D0009B83F00F
:1048C000100353EA0A0305D00EE040228DF80420BD
:1048D000012208E05CEA010206D030228DF80420B3
:1048E0008DF8050002229046009B83F0080353EAEE
:1048F0000A030AD15CEA010201D1620705D5302220
:104900008DF804204FF001087F1E582804D034A0F1
:1049100003900EA802900DE036A0F9E753466046DA
:10492000009AFBF74FFC84460398825C0298401E75
:10493000029002705CEA0100F0D1029806A9081A00
:1049400000F1200A600702D524F4803400E001273A
:10495000574502DDA7EB0A0000E0002000EB0A014A
:10496000009005984144401A0590E00306D45B4648
:104970002146179A059800F0B3F90544002706E090
:1049800001A85A46C05D179990476D1C7F1C47458A
:10499000F6DBE0030CD55B462146179A059800F03C
:1049A0009FF9054404E030205A46179990476D1C42
:1049B0000099481E00900029F5DC08E00298029951
:1049C0005A460078491C0291179990476D1CBAF11C
:1049D0000001AAF1010AF1DC65E1000009280100EB
:1049E0003031323334353637383961626364656665
:1049F0000000000030313233343536373839414227
:104A0000434445460000000000F058F90544761C78
:104A1000307800287FF4ECAD19B02846BDE8F08F5F
:104A2000620700D4062709F1070222F0070CFCE810
:104A30000223E14603F000485FEA080C02D00FF2BF
:104A4000702C0DE05FEA045C02D50FF2682C07E0E1
:104A50005FEAC47C02D00FF2602C01E0AFF2700C70
:104A60004FF0FF3823F00043CDF850C065280CD03C
:104A700006DC452809D046281DD047283DD13DE019
:104A8000662818D067287ED138E00021112F01DB7D
:104A9000112000E0781CCDE9000106A90EA8FFF75F
:104AA000EDFCDDE90F010E9A03910021009207F160
:104AB000010A04914DE04FF000400097CDE901104C
:104AC00006A90EA8FFF7DAFCDDE90F0203920E9BA0
:104AD00011990022DDF80CA00093049211B9791C01
:104AE00000EB010AB7EB0A0004D4C0F1FF3007F174
:104AF000010A0490AAEB0700019044E0012F00DABC
:104B000001270021112F01DD112000E03846CDE9F9
:104B1000000106A90EA8FFF7B1FCDDE90F010E9A0E
:104B20000391002104910092BA4621070CD4039905
:104B3000514500DA8A46BAF1010F05DD009AAAF163
:104B40000101515C302908D0B84202DA10F1040F9B
:104B500006DA0121CDE9011015E0AAF10101E9E72A
:104B6000002805DC049901440491AAEB000102E04D
:104B7000411C514500DD8A460499401A401C0190B1
:104B80004FF000400290200704D40198504501DB0B
:104B9000CDF8048000208DF84F0002980DF14F07EA
:104BA000B0F1004F25D02B200E9002984FF0020854
:104BB00000280CDA404202902D200E9007E00A21D6
:104BC0000298FBF755FB3031029007F8011DB8F150
:104BD0000001A8F10108F2DC02980028EFD1791E4B
:104BE0000E980870307800F0200040F0450007F87B
:104BF000020D12A8C01B00F107081498007800B13C
:104C0000012000EB0A01019801EBE0710598414495
:104C1000401A401E0590E00306D45B462146179AD1
:104C2000059800F05DF805441498007818B15A46CC
:104C3000179990476D1CE00324D55B462146179ACF
:104C4000059800F04DF805441CE00498002807DBA7
:104C5000DDE90301884203DD0098405C179901E01B
:104C6000179930205A469047049805F10105401CD9
:104C700004900198401E019004D12E205A461799A5
:104C800090476D1CBAF10001AAF1010ADDDC05E0D4
:104C900017F8010B5A46179990476D1CB8F100019F
:104CA000A8F10108F4DC5B462146179A0598ABE6AB
:104CB0002D0000002B000000200000002DE9F04135
:104CC000044600251E461746880404D405E03946EC
:104CD0002020B0476D1C641EF9D52846BDE8F08140
:104CE0002DE9F041044600251E469046C80301D533
:104CF000302700E02027880404D505E041463846E7
:104D0000B0476D1C641EF9D52846BDE8F081704798
:104D100013B54FF6FF73012269460248FEF76EFA9B
:104D200000981CBDC80000202DED048B82B0FCF75C
:104D30008FFAFEF74AFFFEF7A3FCFEF79FFDFEF792
:104D4000BBFDFEF7D7FDFEF737FDFEF761FD3248EC
:104D5000FDF70AFD10260223304A882130480096CC
:104D6000FCF788F9DFF8B4809FED2E8A08F10C0873
:104D70009FED2D9ADFF8A4904FF4167AFBF702FD11
:104D8000264A07460223921C882125480096FCF7F4
:104D900071F9224A06230C32892121480096FCF73A
:104DA000D7F898F8011098F8002001EB0221AF2203
:104DB000514300EE101AF8EE400A80EE880A70EEB9
:104DC000498AC9ED028A98F8042098F8030002EB9A
:104DD00000206422504300EE100AF8EE400A80EEF4
:104DE000880A89ED010A10EE100AFBF72EFA044634
:104DF0000D4618EE900AFBF728FA41EC100B3946E5
:104E000053EC102B09A0CDE90045FFF707FB5046F6
:104E1000FBF722FDB2E700007C000020000000202C
:104E20002800002000FF7F4700003442B9E2D5D5BA
:104E3000C7BFB6C83A253564204C555820CEC2B6F7
:104E4000C83A25342E326620CAAAB6C825342E3276
:104E5000660D0A00000000000000000001020304CB
:104E600006070809A0860100400D0300801A06000D
:104E700000350C0040420F0080841E0000093D00F8
:104E800000127A000024F40000366E010048E801A8
:104E9000006CDC020000000001020304BC4E0008AC
:104EA00000000020280000005C440008E44E0008D8
:104EB00028000020380600006C4400082236E0007C
:104EC00000000000000000000000000000000000E2
:104ED00001000000100000000000000000093D007B
:044EE00000000000CE
:040000050800018D61
:00000001FF
